:03004300020B00AD
:03005300020B009D
:100B0000020FFC000210420002102C000210140020
:100B1000020ABC00020DCE000209FF000210A6006E
:100B20000210A7000210A8000210A9000210AA00DB
:100B30000210AB000210AC000210AD000210AE00BB
:100B40000210AF000210A6000210B0000210B100A7
:100B50000210B2000210B3000210B4000210B5007F
:100B60000210B6000210A6000210A6000210A60095
:100B70000210B7000210B8000210B9000210BA004B
:100B80000210BB000210BC000210BD000210BE002B
:100B90000210BF000210C0000210C1000210C2000B
:100BA0000210C3000210C4000210C5000210C600EB
:080BB0000210C7000209E10078
:100A000012010002FF00FF403B0902A101000102A8
:100A100000010A06000200000040010009022E0049
:100A2000010100C0320904000004FF0000000705B6
:100A30000202000200070584020002000705860288
:100A40000002000705880200020009022E000101D1
:100A500000C0320904000004FF0000000705020284
:100A600040000007058402400000070586024000A0
:100A70000007058802400000040309041003500029
:100A80004C004500580054004F0052002E03500007
:100A90006C006500780074006F0072002000430055
:100AA0006F006E0076006500720074005800200030
:0C0AB0004D003400300032005500000002
:10093C00011E00011F02011B00011C4002180000D7
:06094C0001160001170076
:1008500090E6007410F0120CDD90E60B7401F000CD
:10086000000090E61274A2F000000090E61374E21B
:10087000F000000090E614F000000090E615F00093
:10088000000090E6047480F00000007402F00000A4
:10089000007404F00000007406F00000007408F01A
:1008A000000000E4F000000090E6187411F0000071
:1008B0000090E6907480F000000090E691F0000057
:1008C0000090E6197409F0000000E490E622F000C0
:1008D000000090E6237404F000000090E61A74090A
:1008E000F0000000E490E624F000000090E625749B
:1008F00040F000000090E61B7409F0000000E49056
:10090000E626F000000090E6277440F00000005357
:10091000807F43B28090E668E04403F0000000531B
:1009200091BF00000090E6617402F000000090E6C4
:0C09300060F000000043E80412108C226C
:10056B0090E6F4E030E009E5AA20E3047D01802B5E
:10057B0090E6F4E030E109E5AC30E1047D04801B4A
:10058B0090E6F4E030E209E5AC30E5047D02800B47
:10059B00E5AB20E1047D0880027D10ED24FE7003A5
:1005AB0002063D24FE700302068024FC7003020643
:1005BB00C02407600302074490E6F3E0547FF00089
:1005CB00000090E6F074FFF090E6F174ECF0E5BB00
:1005DB0030E7FB000000E490E6D0F000000090E66E
:1005EB00D104F000000075BB05000000E5BB30E74F
:1005FB00FB00000090E6F3E0547FF000000090E673
:10060B00F074FFF090E6F174EEF0E5BB30E7FB0021
:10061B000000E490E6D0F000000090E6D104F0007A
:10062B00000075BB05000000E5BB30E70302074483
:10063B0080F600000090E6F3E0547FF0000000909D
:10064B00E6F074FFF090E6F174F2F0E5BB30E7FBF7
:10065B0000000090E6D0E51BF000000090E6D1E52D
:10066B001CF000000075BB07000000E5BB30E70382
:10067B0002074480F690E6F3E0547FF00000009010
:10068B00E6F074FFF090E6F174E4F0E5BB30E7FBC5
:10069B0000000090E6D0E51BF000000090E6D1E5ED
:1006AB001CF000000075BB06000000E5BB30E70343
:1006BB0002074480F600000090E6497402F0000047
:1006CB000090E6F3E0547FF000000090E6F074FF3A
:1006DB00F090E6F174F4F0E5BB30E7FB000000901E
:1006EB00E6F1E0F516E5BB30E7FB00000090E6F223
:1006FB00E0FF90E6F0E0F525EF20E13D90E6F3E03A
:10070B00547FF000000090E6F074FFF090E6F17477
:10071B00EAF0E5BB30E7FB000000E490E6D0F00028
:10072B00000090E6D17420F0000000E4F5BB00005F
:0C073B0000E5BB30E7FB00000000000000
:01074700228F
:05109400438080D3221F
:0510990053807FD3220B
:02109E00D3225B
:08107C0090E6BAE0F51DD32255
:1010580090E740E51DF0E490E68AF090E68B04F016
:02106800D32291
:0810840090E6BAE0F51AD32250
:10106A0090E740E51AF0E490E68AF090E68B04F007
:02107A00D3227F
:0210A000D32259
:0210A200D32257
:0210A400D32255
:1003190090E6B9E0120DA8033F1003651203AF146C
:10032900040020043021047E22053830050A4005E6
:100339001A410000055600000090E6047480F000A0
:1003490000007404F00000007406F0000000740856
:10035900F0000000E4F000000002055890E6F3E028
:10036900547FF000000090E6BDE090E6F0F090E6E2
:10037900BCE090E6F1F0E5BB30E7FB00000090E659
:10038900F3E04480F000000090E6BBE090E6F0F076
:1003990090E6BAE090E6F1F0000000E5BB30E7FB3B
:1003A90000000002055890E6F3E0547FF0000000D9
:1003B90090E6BDE090E6F0F090E6BCE090E6F1F062
:1003C900E5BB30E7FB00000090E6F1E0F517E5BB7F
:1003D90030E7FB90E6F2E090E740F090E6F0E0903D
:1003E900E741F0E490E68AF090E68B7402F090E63B
:1003F900A0E04480F0C32290E6BAE0F52590E6BE7D
:10040900E0F526E490E68AF090E68BF090E6A0E02D
:1004190020E1F97AE77B40AD26AF25120FE090E69F
:10042900A0E04480F0C32290E6BAE0F52590E6BE4C
:10043900E0F52690E6A0E020E1F9E4F527E527C3F9
:100449009526501274402527F582E434E7F5837424
:10045900CDF0052780E77AE77B40AD26AF25120F5F
:10046900C4E490E68AF090E68BE526F090E6A0E0F9
:100479004480F0C32290E6BAE0F52590E6BEE0F5A7
:100489002690E6A0E020E1F9E4F527E527C39526C3
:10049900501274402527F582E434E7F58374CDF0D2
:1004A900052780E7E4F52790E6BBE0601590E6BDF7
:1004B900E0FFAE27052774872EF582E43411F58312
:1004C900EFF090E6BCE0FFAE27052774872EF58292
:1004D900E43411F583EFF07A117B87AD27AF25124C
:1004E9000FE07AE77B40AD26AF25120FC4E490E612
:1004F9008AF090E68BE526F090E6A0E04480F0C310
:100509002290E6BAE0547FF580A3E04480F5B280FA
:100519003E90E740E580F0A3E5B2F0E490E68AF08A
:1005290090E68B7402F090E6A0E04480F0C322903C
:10053900E740E51FF0A3E51EF0E490E68AF090E6B7
:100549008B7402F090E6A0E04480F0C322C322E459
:1005590090E68AF090E68B04F090E6A0E04480F003
:01056900C3CE
:01056A00226E
:100FFC00C0E0C083C082D2015391EF90E65D7401D2
:08100C00F0D082D083D0E03265
:10102C00C0E0C083C0825391EF90E65D7404F0D0B1
:06103C0082D083D0E032F7
:10104200C0E0C083C0825391EF90E65D7402F0D09D
:0610520082D083D0E032E1
:100ABC00C0E0C083C08285100C85110D850D828528
:100ACC000C83A37402F085080E85090F850F8285AF
:100ADC000E83A37407F05391EF90E65D7410F0D081
:060AEC0082D083D0E0324D
:10101400C0E0C083C082D2035391EF90E65D7408B0
:08102400F0D082D083D0E0324D
:100DCE00C0E0C083C08290E680E030E74B85080C1F
:100DDE0085090D850D82850C83A37402F085100E96
:100DEE0085110F850F82850E83A37407F0751B0284
:100DFE00751C0000000090E6247402F000000090C4
:100E0E00E625E4F000000090E6267402F0000000F3
:100E1E0090E627E4F00000005391EF90E65D742019
:080E2E00F0D082D083D0E03245
:0109FF0032C5
:0110A6003217
:0110A7003216
:0110A8003215
:0110A9003214
:0110AA003213
:0110AB003212
:0110AC003211
:0110AD003210
:0110AE00320F
:0110AF00320E
:0110B000320D
:0110B100320C
:0110B200320B
:0110B300320A
:0110B4003209
:0110B5003208
:0110B6003207
:0110B7003206
:0110B8003205
:0110B9003204
:0110BA003203
:0110BB003202
:0110BC003201
:0110BD003200
:0110BE0032FF
:0110BF0032FE
:0110C00032FD
:0110C10032FC
:0110C20032FB
:0110C30032FA
:0110C40032F9
:0110C50032F8
:0110C60032F7
:0110C70032F6
:1009E100C0E0C083C08290E6F574FFF000000053C0
:0E09F10091BFF5A2000000D082D083D0E0328A
:0A0AF20000010202030304040505DD
:100BB800E4F524F523F522F521C203C200C202C2DE
:100BC80001120850750A0A750B0075120A7513127E
:100BD80075080A75091C75100A75114A75140A7585
:100BE8001578D2E843D82090E668E04409F090E60A
:100BF8005CE0443DF0D2AF90E680E020E105D2040D
:100C0800120F1890E680E054F7F0538EF8C20330C4
:100C18000105120080C2013003291210945024C229
:100C280003120F9F20001690E682E030E704E020D0
:100C3800E1EF90E682E030E604E020E0E4120F47BE
:080C480012109912056B80C720
:010C50002281
:1000800090E6B9E0700302015B14700302020424DD
:10009000FE700302029924FB7003020155147003E1
:1000A00002014F147003020143147003020149243A
:1000B00005600302030512109E400302031190E63F
:1000C000BBE024FE602C14604724FD6016146031F0
:1000D00024067065E50A90E6B3F0E50B90E6B4F00F
:1000E000020311E51290E6B3F0E51390E6B4F002D6
:1000F0000311E50C90E6B3F0E50D90E6B4F00203D1
:1001000011E50E90E6B3F0E50F90E6B4F0020311AE
:1001100090E6BAE0FF120F73AA06A9077B01EA492D
:10012000600DEE90E6B3F0EF90E6B4F002031190AC
:10013000E6A0E04401F002031190E6A0E04401F0E3
:1001400002031112106A0203111210840203111229
:10015000107C0203111210580203111210A0400368
:1001600002031190E6B8E0247F602B14603C240267
:1001700060030201FAA200E433FF25E0FFA202E4DB
:10018000334F90E740F0E4A3F090E68AF090E68BDE
:100190007402F0020311E490E740F0A3F090E68AC5
:1001A000F090E68B7402F002031190E6BCE0547EFE
:1001B000FF7E00E0D3948040067C007D0180047CBB
:1001C000007D00EC4EFEED4F24F2F582740A3EF500
:1001D00083E493FF3395E0FEEF24A1FFEE34E68F36
:1001E00082F583E0540190E740F0E4A3F090E68AC2
:1001F000F090E68B7402F002031190E6A0E0440157
:10020000F00203111210A2400302031190E6B8E0BD
:1002100024FE601D2402600302031190E6BAE0B4DC
:100220000105C20002031190E6A0E04401F00203C0
:100230001190E6BAE0705990E6BCE0547EFF7E0073
:10024000E0D3948040067C007D0180047C007D002A
:10025000EC4EFEED4F24F2F582740A3EF583E493F2
:10026000FF3395E0FEEF24A1FFEE34E68F82F583A5
:10027000E054FEF090E6BCE05480FF131313541FCB
:10028000FFE0540F2F90E683F0E04420F0020311CA
:1002900090E6A0E04401F080781210A4507390E63C
:1002A000B8E024FE60202402706790E6BAE0B40152
:1002B00004D200805C90E6BAE06402605490E6A04C
:1002C000E04401F0804B90E6BCE0547EFF7E00E00D
:1002D000D3948040067C007D0180047C007D00EC8E
:1002E0004EFEED4F24F2F582740A3EF583E493FF4F
:1002F0003395E0FEEF24A1FFEE34E68F82F583E034
:100300004401F0800C120319500790E6A0E044016C
:08031000F090E6A0E04480F04B
:0103180022C2
:03003300020AFCC2
:040AFC0053D8EF32AA
:10095200608011000301380101010107000201005A
:1009620000000000FAFAFBFBFBFBFBFB36092D2D16
:100972002D2D123F01013801010101070202070278
:1009820000000000F9FBFBFBFBFBFBFB09092D2D23
:10099200002D363F03013F01010101070002010062
:1009A20000000000FAFAFBFBFBFBFBFB36092D2DD6
:1009B2002D2D123F19023F023F01010703020706D4
:1009C20001000000FBFFFBF9FBFBFBFB3F2D2D2D84
:0E09D2002D2D363F471180E00000FB06E4119A
:100CDD0090E60174C6F090E6F574FFF0901180E097
:100CED0090E6F3F0901181E090E6C3F0901182E070
:100CFD0090E6C1F0901183E090E6C2F0901185E08E
:100D0D0090E6C0F0901186E090E6F4F075AF0774B0
:100D1D0011F59A7400F59B759DE4E4F59EFF90E640
:100D2D007BE090E67CF00FBF80F490E67174FFF0ED
:100D3D00F5B490E672E04480F043B480000000E426
:0B0D4D0090E6C4F000000090E6C5F046
:010D58002278
:100F470090E682E030E004E020E60B90E682E030B5
:100F5700E119E030E71590E680E04401F07F147E68
:0C0F670000120E3690E680E054FEF022EE
:100F9F0090E682E044C0F090E681F04387010000C4
:040FAF00000000221C
:100F180030040990E680E0440AF0800790E680E01B
:100F28004408F07FDC7E05120E3690E65D74FFF013
:0F0F380090E65FF05391EF90E680E054F7F022DF
:08108C00E4F52DD2E9D2AF22F8
:100E7C0090E678E020E6F9C2E990E678E04480F06C
:100E8C00EF25E090E679F090E678E030E0F990E636
:100E9C0078E04440F090E678E020E6F990E678E0DF
:060EAC0030E1D6D2E9227C
:100EE600A90790E678E020E6F9E52D702390E678EC
:100EF600E04480F0E925E090E679F08D28AF03A97B
:100F0600077529018A2A892BE4F52C752D01D32230
:020F1600C322F4
:100EB200A90790E678E020E6F9E52D702590E6781E
:100EC200E04480F0E925E0440190E679F08D28AF16
:100ED20003A9077529018A2A892BE4F52C752D03AC
:040EE200D322C32232
:03004B0002074861
:10074800C0E0C083C082C085C084C086758600C0F2
:10075800D075D000C000C001C002C003C006C007E9
:1007680090E678E030E206752D0602083290E678C9
:10077800E020E10CE52D64026006752D07020832C1
:10078800E52D24FE605F14603624FE700302082302
:1007980024FC700302082F24086003020832AB29E6
:1007A800AA2AA92BAF2C052C8F82758300120D590C
:1007B80090E679F0E52C65287070752D05806B90B2
:1007C800E679E0AB29AA2AA92BAE2C8E8275830084
:1007D800120D86752D02E5286401704E90E678E0CA
:1007E8004420F08045E52824FEB52C0790E678E003
:1007F8004420F0E52814B52C0A90E678E04440F04F
:10080800752D0090E679E0AB29AA2AA92BAE2C8E8B
:1008180082758300120D86052C800F90E678E044DF
:1008280040F0752D008003752D005391DFD007D05F
:1008380006D003D002D001D000D0D0D086D084D04A
:0808480085D082D083D0E0329C
:020F7300A907CC
:100F7500AE14AF158F828E83A3E064037017AD01A5
:100F850019ED7001228F828E83E07C002FFDEC3EEF
:090F9500FEAF0580DF7E007F0045
:010F9E002230
:100FC400120EB2E52D24FA600E146006240770F3A5
:0C0FD400D322E4F52DD322E4F52DD32226
:100FE000120EE6E52D24FA600E146006240770F355
:0C0FF000D322E4F52DD322E4F52DD3220A
:100E36008E258F2690E600E054187012E5262401D0
:100E4600FFE43525C313F525EF13F526801590E647
:100E560000E05418FFBF100BE52625E0F526E52532
:100E660033F525E5261526AE25700215254E6005B7
:060E7600120FB380EE2212
:100FB3007400F58690FDA57C05A3E582458370F951
:010FC300220B
:03000000020C519E
:0C0C5100787FE4F6D8FD75812D020C9828
:100D5900BB010CE58229F582E5833AF583E022504F
:100D690006E92582F8E622BBFE06E92582F8E22299
:0D0D7900E58229F582E5833AF583E49322B3
:100D8600F8BB010DE58229F582E5833AF583E8F0A3
:100D9600225006E92582C8F622BBFE05E92582C84F
:020DA600F22237
:100DA800D083D082F8E4937012740193700DA3A3DA
:100DB80093F8740193F5828883E4737402936860EE
:060DC800EFA3A3A380DFEE
:100C5D00020BB8E493A3F8E493A34003F68001F2EA
:100C6D0008DFF48029E493A3F85407240CC8C33398
:100C7D00C4540F4420C8834004F456800146F6DF67
:100C8D00E4800B010204081020408090093CE47EB2
:100C9D00019360BCA3FF543F30E509541FFEE4935C
:100CAD00A360010ECF54C025E060A840B8E493A323
:100CBD00FAE493A3F8E493A3C8C582C8CAC583CA4E
:100CCD00F0A3C8C582C8CAC583CADFE9DEE780BE06
:0109E0000016
:00000001FF
