:100B000012010002FF00FF40FD1000DE01000102A3
:100B100000010A06000200000040010009022E0048
:100B200001010080FA0904000004FF00000007052D
:100B30000202000200070584020002000705860287
:100B40000002000705880200020009022E000101D0
:100B50000080FA0904000004FF00000007050202FB
:100B6000400000070584024000000705860240009F
:100B70000007058802400000040309040803570029
:100B80004900530014034D00410054005200490035
:0A0B90005800200049004900000051
:10092F00012900012A0401260001274002230000AB
:06093F000121000122006D
:1008530090E6007410F0120CBF90E60B7401F000E8
:10086300000090E61274A2F000000090E61374E218
:10087300F000000090E614F000000090E615F00090
:10088300000090E6047480F00000007402F00000A1
:10089300007404F00000007406F00000007408F017
:1008A300000000E4F000000090E6187411F000006E
:1008B3000090E6907480F000000090E691F0000054
:1008C3000090E6197409F0000000E490E622F000BD
:1008D300000090E6237404F000000090E61A740907
:1008E300F0000000E490E624F000000090E6257498
:1008F30040F000000090E61B7409F0000000E49053
:10090300E626F000000090E6277440F00000005354
:10091300807F43B280E4F5B690E668E054FCF000D3
:0C092300000043E80400000012106622EF
:10056E0090E6F4E030E009E5AA20E3047D01802B5B
:10057E0090E6F4E030E109E5AC30E1047D04801B47
:10058E0090E6F4E030E209E5AC30E5047D02800B44
:10059E00E5AB20E1047D0880027D10ED24FE7003A2
:1005AE0002064024FE700302068324FC700302063A
:1005BE00C32407600302074790E6F3E0547FF00080
:1005CE00000090E6F074FFF090E6F174ECF0E5BBFD
:1005DE0030E7FB000000E490E6D0F000000090E66B
:1005EE00D104F000000075BB05000000E5BB30E74C
:1005FE00FB00000090E6F3E0547FF000000090E670
:10060E00F074FFF090E6F174EEF0E5BB30E7FB001E
:10061E000000E490E6D0F000000090E6D104F00077
:10062E00000075BB05000000E5BB30E7030207477D
:10063E0080F600000090E6F3E0547FF0000000909A
:10064E00E6F074FFF090E6F174F2F0E5BB30E7FBF4
:10065E0000000090E6D0E526F000000090E6D1E51F
:10066E0027F000000075BB07000000E5BB30E70374
:10067E0002074780F690E6F3E0547FF0000000900A
:10068E00E6F074FFF090E6F174E4F0E5BB30E7FBC2
:10069E0000000090E6D0E526F000000090E6D1E5DF
:1006AE0027F000000075BB06000000E5BB30E70335
:1006BE0002074780F600000090E6497402F0000041
:1006CE000090E6F3E0547FF000000090E6F074FF37
:1006DE00F090E6F174F4F0E5BB30E7FB000000901B
:1006EE00E6F1E0F521E5BB30E7FB00000090E6F215
:1006FE00E0FF90E6F0E0F51BEF20E13D90E6F3E041
:10070E00547FF000000090E6F074FFF090E6F17474
:10071E00EAF0E5BB30E7FB000000E490E6D0F00025
:10072E00000090E6D17420F0000000E4F5BB00005C
:0C073E0000E5BB30E7FB000000000000FD
:01074A00228C
:05106E00438080D32245
:0510730053807FD32231
:020AFE00D32201
:0810560090E6BAE0F528D32270
:10101A0090E740E528F0E490E68AF090E68B04F049
:02102A00D322CF
:08105E0090E6BAE0F525D3226B
:10102C0090E740E525F0E490E68AF090E68B04F03A
:02103C00D322BD
:02107C00D3227D
:02107E00D3227B
:02108000D32279
:1003190090E6B9E0120D87033F1003651203AF148D
:10032900040020043021047E22053B30050A4005E3
:100339001A410000055900000090E6047480F0009D
:1003490000007404F00000007406F0000000740856
:10035900F0000000E4F000000002055B90E6F3E025
:10036900547FF000000090E6BDE090E6F0F090E6E2
:10037900BCE090E6F1F0E5BB30E7FB00000090E659
:10038900F3E04480F000000090E6BBE090E6F0F076
:1003990090E6BAE090E6F1F0000000E5BB30E7FB3B
:1003A90000000002055B90E6F3E0547FF0000000D6
:1003B90090E6BDE090E6F0F090E6BCE090E6F1F062
:1003C900E5BB30E7FB00000090E6F1E0F522E5BB74
:1003D90030E7FB90E6F2E090E740F090E6F0E0903D
:1003E900E741F0E490E68AF090E68B7402F090E63B
:1003F900A0E04480F0C32290E6BAE0F51B90E6BE87
:10040900E0F51CE490E68AF090E68BF090E6A0E037
:1004190020E1F97AE77B40AD1CAF1B120FA290E6F1
:10042900A0E04480F0C32290E6BAE0F51B90E6BE56
:10043900E0F51C90E6A0E020E1F9E4F51DE51DC317
:10044900951C50127440251DF582E434E7F5837438
:10045900CDF0051D80E77AE77B40AD1CAF1B120F7D
:1004690086E490E68AF090E68BE51CF090E6A0E041
:100479004480F0C32290E6BAE0F51B90E6BEE0F5B1
:100489001C90E6A0E020E1F9E4F51DE51DC3951CEB
:1004990050127440251DF582E434E7F58374CDF0DC
:1004A900051D80E7E4F51D90E6BBE0601590E6BD0B
:1004B900E0FFAE1D051D74872EF582E43411F58326
:1004C900EFF090E6BCE0FFAE1D051D74872EF582A6
:1004D900E43411F583EFF07A117B87AD1DAF1B1260
:1004E9000FA27AE77B40AD1CAF1B120F86E490E6A2
:1004F9008AF090E68BE51CF090E6A0E04480F0C31A
:100509002290E6BAE0547FF580A3E04480F5B280FA
:100519004190E740E508F0A3E580F0E490E68AF031
:1005290090E68B7402F090E6A0E04480F0E4F508D0
:10053900C32290E740E52AF0A3E529F0E490E68A92
:10054900F090E68B7402F090E6A0E04480F0C322BC
:10055900C322E490E68AF090E68B04F090E6A0E0EE
:040569004480F0C317
:01056D00226B
:100FBE00C0E0C083C082D2015391EF90E65D740110
:080FCE00F0D082D083D0E032A4
:100FEE00C0E0C083C0825391EF90E65D7404F0D0F0
:060FFE0082D083D0E03236
:10100400C0E0C083C0825391EF90E65D7402F0D0DB
:0610140082D083D0E0321F
:100E4D00C0E0C083C08285110D85120E850E82858E
:100E5D000D83A37402F085090F850A108510828514
:100E6D000F83A37407F05391EF90E65D7410F0D0EB
:060E7D0082D083D0E032B8
:100FD600C0E0C083C082D2035391EF90E65D7408EF
:080FE600F0D082D083D0E0328C
:100DAD00C0E0C083C08290E680E030E74B85090D3E
:100DBD00850A0E850E82850D83A37402F085110FB1
:100DCD00851210851082850F83A37407F075260296
:100DDD0075270000000090E6247402F000000090DA
:100DED00E625E4F000000090E6267402F000000015
:100DFD0090E627E4F00000005391EF90E65D74203B
:080E0D00F0D082D083D0E03266
:01108200323B
:01108300323A
:011084003239
:011085003238
:011086003237
:011087003236
:011088003235
:011089003234
:01108A003233
:01108B003232
:01108C003231
:01108D003230
:01108E00322F
:01108F00322E
:01109000322D
:01109100322C
:01109200322B
:01109300322A
:011094003229
:011095003228
:011096003227
:011097003226
:011098003225
:011099003224
:01109A003223
:01109B003222
:01109C003221
:01109D003220
:01109E00321F
:01109F00321E
:0110A000321D
:0110A100321C
:0110A200321B
:0110A300321A
:0110A4003219
:100F6800C0E0C083C08290E6F574FFF00000005333
:0E0F780091BFF5A2000000D082D083D0E032FD
:0E103E00C0E05391BFE5B14480F508D0E03228
:0A104C00000102020303040405057D
:100B9A00E4F51AF519F518F517C203C200C202C224
:100BAA0001120853750B0B750C0075130B75141293
:100BBA0075090B750A1C75110B75124A75150B759B
:100BCA001678D2E843D82090E668E04408F090E628
:100BDA005CE0443DF0D2AF90E680E020E105D2042B
:100BEA00120EE990E680E054F7F0538EF8C2033013
:100BFA000105120080C20130032912106E5024C26E
:100C0A0003120F4320001690E682E030E704E0204A
:100C1A00E1EF90E682E030E604E020E0E41209D455
:080C2A0012107312056E80C761
:010C3200229F
:1000800090E6B9E0700302015B14700302020424DD
:10009000FE700302029924FB7003020155147003E1
:1000A00002014F147003020143147003020149243A
:1000B000056003020305120AFE400302031190E6E5
:1000C000BBE024FE602C14604724FD6016146031F0
:1000D00024067065E50B90E6B3F0E50C90E6B4F00D
:1000E000020311E51390E6B3F0E51490E6B4F002D4
:1000F0000311E50D90E6B3F0E50E90E6B4F00203CF
:1001000011E50F90E6B3F0E51090E6B4F0020311AC
:1001100090E6BAE0FF120F18AA06A9077B01EA4988
:10012000600DEE90E6B3F0EF90E6B4F002031190AC
:10013000E6A0E04401F002031190E6A0E04401F0E3
:1001400002031112102C02031112105E020311128D
:10015000105602031112101A02031112107C4003F0
:1001600002031190E6B8E0247F602B14603C240267
:1001700060030201FAA200E433FF25E0FFA202E4DB
:10018000334F90E740F0E4A3F090E68AF090E68BDE
:100190007402F0020311E490E740F0A3F090E68AC5
:1001A000F090E68B7402F002031190E6BCE0547EFE
:1001B000FF7E00E0D3948040067C007D0180047CBB
:1001C000007D00EC4EFEED4F244CF58274103EF5A0
:1001D00083E493FF3395E0FEEF24A1FFEE34E68F36
:1001E00082F583E0540190E740F0E4A3F090E68AC2
:1001F000F090E68B7402F002031190E6A0E0440157
:10020000F002031112107E400302031190E6B8E0E1
:1002100024FE601D2402600302031190E6BAE0B4DC
:100220000105C20002031190E6A0E04401F00203C0
:100230001190E6BAE0705990E6BCE0547EFF7E0073
:10024000E0D3948040067C007D0180047C007D002A
:10025000EC4EFEED4F244CF58274103EF583E49392
:10026000FF3395E0FEEF24A1FFEE34E68F82F583A5
:10027000E054FEF090E6BCE05480FF131313541FCB
:10028000FFE0540F2F90E683F0E04420F0020311CA
:1002900090E6A0E04401F08078121080507390E660
:1002A000B8E024FE60202402706790E6BAE0B40152
:1002B00004D200805C90E6BAE06402605490E6A04C
:1002C000E04401F0804B90E6BCE0547EFF7E00E00D
:1002D000D3948040067C007D0180047C007D00EC8E
:1002E0004EFEED4F244CF58274103EF583E493FFEF
:1002F0003395E0FEEF24A1FFEE34E68F82F583E034
:100300004401F0800C120319500790E6A0E044016C
:08031000F090E6A0E04480F04B
:0103180022C2
:0300330002107840
:0410780053D8EF3228
:100945006080110003013801010101070002010067
:1009550000000000FAFAFBFBFBFBFBFB36092D2D23
:100965002D2D123F01013801010101070202070285
:1009750000000000F9FBFBFBFBFBFBFB09092D2D30
:10098500002D363F03013F0101010107000201006F
:1009950000000000FAFAFBFBFBFBFBFB36092D2DE3
:1009A5002D2D123F19023F023F01010703020706E1
:1009B50001000000FBFFFBF9FBFBFBFB3F2D2D2D91
:0E09C5002D2D363F471180E00000FB06E411A7
:100CBF0090E60174C2F090E6F574FFF0901180E0B9
:100CCF0090E6F3F0901181E090E6C3F0901182E08E
:100CDF0090E6C1F0901183E090E6C2F0901185E0AC
:100CEF0090E6C0F0901186E090E6F4F075AF0774CF
:100CFF0011F59A7400F59B759DE4E4F59EFF90E65F
:100D0F007BE090E67CF00FBF80F490E67174FFF00B
:100D1F00F5B4E490E672F043B48000000090E6C4AE
:080D2F00F000000090E6C5F0A1
:010D37002299
:1009D40090E682E030E004E020E60B90E682E0302E
:1009E400E119E030E71590E680E04401F07F147EE1
:0C09F40000120AB890E680E054FEF022E9
:100F430090E682E044C0F090E681F0438701000020
:040F53000000002278
:100EE90030040990E680E0440AF0800790E680E04B
:100EF9004408F07FDC7E05120AB890E65D74FFF0C5
:0F0F090090E65FF05391EF90E680E054F7F0220E
:08106600E4F530D2E9D2AF221B
:100E1500AD0790E678E020E6F9C2E990E678E0448F
:100E250080F0ED25E090E679F090E678E030E0F9A5
:100E350090E678E04440F090E678E020E6F990E628
:080E450078E030E1D6D2E92289
:100EB700AC0790E678E020E6F9E530702390E67815
:100EC700E04480F0EC25E090E679F08D2BAF03A9A4
:100ED70007752C018A2D892EE4F52F753001D32251
:020EE700C32224
:100E8300AC0790E678E020E6F9E530702590E67847
:100E9300E04480F0EC25E0440190E679F08D2BAF3F
:100EA30003A907752C018A2D892EE4F52F753003CC
:040EB300D322C32261
:03004B0002074B5E
:10074B00C0E0C083C082C085C084C086758600C0EF
:10075B00D075D000C000C001C002C003C006C007E6
:10076B0090E678E030E20675300602083590E678C0
:10077B00E020E10CE53064026006753007020835B5
:10078B00E53024FE605F14603624FE7003020826F9
:10079B0024FC700302083224086003020835AB2CDA
:1007AB00AA2DA92EAF2F052F8F82758300120D381E
:1007BB0090E679F0E52F652B7070753005806B90A6
:1007CB00E679E0AB2CAA2DA92EAE2F8E8275830075
:1007DB00120D65753002E52B6401704E90E678E0E2
:1007EB004420F08045E52B24FEB52F0790E678E0FA
:1007FB004420F0E52B14B52F0A90E678E04440F046
:10080B0075300090E679E0AB2CAA2DA92EAE2F8E79
:10081B0082758300120D65052F800F90E678E044FA
:10082B0040F075300080037530005391DFD007D056
:10083B0006D003D002D001D000D0D0D086D084D047
:08084B0085D082D083D0E03299
:020F1800A90727
:100F1A00AE15AF168F828E83A3E064037017AD01FE
:100F2A0019ED7001228F828E83E07C002FFDEC3E4A
:080F3A00FEAF0580DFE4FEFFBD
:010F4200228C
:100F8600120E83E53024FA600E146006240770F30F
:0C0F9600D322E4F530D322E4F530D3225E
:100FA200120EB7E53024FA600E146006240770F3BF
:0C0FB200D322E4F530D322E4F530D32242
:100AB8008E1B8F1C90E600E054187012E51C240170
:100AC800FFE4351BC313F51BEF13F51C801590E6E7
:100AD80000E05418FFBF100BE51C25E0F51CE51BD2
:100AE80033F51BE51C151CAE1B7002151B4E60056B
:060AF800120F5780EE22F0
:100F57007400F58690FDA57C05A3E582458370F9AD
:010F67002267
:03004300020A00AE
:0300530002103E5A
:100A0000020FBE0002100400020FEE00020FD6001B
:100A1000020E4D00020DAD00021082000210830094
:100A20000210840002108500021086000210870068
:100A3000021088000210890002108A0002108B0048
:100A400002108C000210830002108D0002108E0034
:100A500002108F000210900002109100021092000C
:100A60000210930002108300021083000210830022
:100A700002109400021095000210960002109700D8
:100A8000021098000210990002109A0002109B00B8
:100A900002109C0002109D0002109E0002109F0098
:100AA0000210A0000210A1000210A2000210A30078
:080AB0000210A400020F68000F
:03000000020C33BC
:0C0C3300787FE4F6D8FD758130020C7A61
:100D3800BB010CE58229F582E5833AF583E0225070
:100D480006E92582F8E622BBFE06E92582F8E222BA
:0D0D5800E58229F582E5833AF583E49322D4
:100D6500F8BB010DE58229F582E5833AF583E8F0C4
:100D7500225006E92582C8F622BBFE05E92582C870
:020D8500F22258
:100D8700D083D082F8E4937012740193700DA3A3FB
:100D970093F8740193F5828883E47374029368600F
:060DA700EFA3A3A380DF0F
:100C3F00020B9AE493A3F8E493A34003F68001F226
:100C4F0008DFF48029E493A3F85407240CC8C333B6
:100C5F00C4540F4420C8834004F456800146F6DF85
:100C6F00E4800B010204081020408090092FE47EDD
:100C7F00019360BCA3FF543F30E509541FFEE4937A
:100C8F00A360010ECF54C025E060A840B8E493A341
:100C9F00FAE493A3F8E493A3C8C582C8CAC583CA6C
:100CAF00F0A3C8C582C8CAC583CADFE9DEE780BE24
:0109D3000023
