:100B4900011500011605011000011140C107C10579
:0C0B5900C106020B0000010800010900A9
:100A6B0090E6007410F0120EE790E60B7401F000A4
:100A7B00000090E61274A2F000000090E61374E2FE
:100A8B00F000000090E614F000000090E615F00076
:100A9B00000090E6047480F00000007402F0000087
:100AAB00007404F00000007406F00000007408F0FD
:100ABB00000000E4F000000090E6187411F0000054
:100ACB000090E6907480F000000090E691F000003A
:100ADB000090E6197409F0000000E490E622F000A3
:100AEB00000090E6237404F000000090E61A7409ED
:100AFB00F0000000E490E624F000000090E625747E
:100B0B0040F000000090E61B7409F0000000E49038
:100B1B00E626F000000090E6277440F0000000533A
:100B2B00807F43B280E4F5B6F5B490E668E054FC00
:0E0B3B00F000000053E8FB0000001212BC2284
:1004140090E6F4E030E00AE5AA20E30575390180AE
:100424003790E6F4E030E20AE5AC30E505753902D0
:100434008026300705753920801E90E6F4E030E10F
:100444000AE5AC30E105753904800DE5AB20E10522
:100454007539088003753910E53924FE70030205E7
:100464000224FE700302054524FC70030205852462
:10047400F8700302067524F0700302060F241F604F
:10048400030206AD90E6F3E0547FF000000090E62E
:10049400F074FFF090E6F174ECF0E5BB30E7FB009C
:1004A4000000E490E6D0F000000090E6D104F000F3
:1004B400000075BB05000000E5BB30E7FB00000051
:1004C40090E6F3E0547FF000000090E6F074FFF053
:1004D40090E6F174EEF0E5BB30E7FB000000E49039
:1004E400E6D0F000000090E6D104F000000075BBF7
:1004F40005000000E5BB30E7030206AD80F600000E
:100504000090E6F3E0547FF000000090E6F074FF02
:10051400F090E6F174F2F0E5BB30E7FB00000090E8
:10052400E6D0E510F000000090E6D1E511F00000FF
:100534000075BB07000000E5BB30E7030206AD8091
:10054400F690E6F3E0547FF000000090E6F074FFCC
:10055400F090E6F174E4F0E5BB30E7FB00000090B6
:10056400E6D0E510F000000090E6D1E511F00000BF
:100574000075BB06000000E5BB30E7030206AD8052
:10058400F600000090E6497402F000000090E6F3E3
:10059400E0547FF000000090E6F074FFF090E6F184
:1005A40074F4F0E5BB30E7FB00000090E6F1E0F501
:1005B40008E5BB30E7FB00000090E6F2E0FF90E6C0
:1005C400F0E0F534EF30E1030206AD90E6F3E054D9
:1005D4007FF000000090E6F074FFF090E6F174EA1A
:1005E400F0E5BB30E7FB000000E490E6D0F000004B
:1005F4000090E6D17420F0000000E4F5BB00000098
:10060400E5BB30E7FB0000000206ADE4F537F53842
:10061400901487E0FFA3E0F535A3E0FEC313F5369D
:10062400EF30E03930E104D2058002C205E535D36C
:100634009401400DE53514FD7A147B8AAF3612120D
:100644000474892535F582E43414F583E0F50FD27A
:10065400057A147B88FDAF361211E88010E4F50F9B
:10066400D2057A147B8AAD35AF36121204C20780E4
:1006740038300235300632D3E5139400E512940085
:10068400501FE5B120E10DE58054246424601A4331
:1006940080248015E5805424FFBF240D5380DB8023
:0C06A40008E51315137002151200000089
:0106B0002227
:0512C400438080D322ED
:0512C90053807FD322D9
:020CFE00D322FF
:080CF60090E6BAE0F514D322E8
:1012900090E740E514F0E490E68AF090E68B04F0E5
:0212A000D32257
:0812B40090E6BAE0F50ED3222A
:1012A20090E740E50EF0E490E68AF090E68B04F0D9
:0212B200D32245
:0212D200D32225
:0212D400D32223
:0212D600D32221
:1000800090E6B9E0120FAC00AC1000D212011C14C3
:10009000016D20019D2101EB22027724033B250302
:1000A000E13003904003BF41000003FF00000090D7
:1000B000E6047480F00000007404F0000000740690
:1000C000F00000007408F0000000E4F000000002FE
:1000D000040190E6F3E0547FF000000090E6BDE0FC
:1000E00090E6F0F090E6BCE090E6F1F0E5BB30E79A
:1000F000FB00000090E6F3E04480F000000090E692
:10010000BBE090E6F0F090E6BAE090E6F1F0000097
:1001100000E5BB30E7FB00000002040190E6F3E0DD
:10012000547FF000000090E6BDE090E6F0F090E62D
:10013000BCE090E6F1F0E5BB30E7FB00000090E6A4
:10014000F1E0F509E5BB30E7FB90E6F2E090E7402F
:10015000F090E6F0E090E741F0E490E68AF090E677
:100160008B7402F090E6A0E04480F0C32290E6BADF
:10017000E0F53490E6BEE0F535E490E68AF090E6EE
:100180008BF090E6A0E020E1F97AE77B40AD35AF57
:100190003412120490E6A0E04480F0C32290E6BA44
:1001A000E0F53490E6BEE0F53590E6A0E020E1F918
:1001B000E4F536E536C39535501274402536F582A0
:1001C000E434E7F58374CDF0053680E77AE77B40C9
:1001D000AD35AF341211E8E490E68AF090E68BE595
:1001E00035F090E6A0E04480F0C32290E6BAE0F556
:1001F0003490E6BEE0F53590E6A0E020E1F9E4F5C4
:1002000036E536C39535501274402536F582E43410
:10021000E7F58374CDF0053680E7E4F53690E6BB6C
:10022000E0601590E6BDE0FFAE36053674C72EF5EA
:1002300082E43414F583EFF090E6BCE0FFAE3605BF
:100240003674C72EF582E43414F583EFF07A147B0C
:10025000C7AD36AF341212047AE77B40AD35AF3408
:100260001211E8E490E68AF090E68BE535F090E62E
:10027000A0E04480F0C322E490E68AF090E68BF0A0
:1002800090E6A0E020E1F990E6BEE0F50F90E740AF
:10029000E030E02BE4F536E536C3950F400302036A
:1002A0003074402536F582E434E7F583E0FF748747
:1002B0002536F582E43414F583EFF0053680D890C6
:1002C000E741E02402F535E4F536E536C3953550CF
:1002D0001E74402536F582E434E7F583E0FF748729
:1002E0002536F582E43414F583EFF0053680DB74AF
:1002F000402536F582E434E7F583E0FF90E741E0FE
:100300002F14901488F0E50F14F535E536C39535B4
:10031000501E74412536F582E434E7F583E0FF741E
:10032000872536F582E43414F583EFF0053680DB5B
:10033000D20790E6A0E04480F0C322300710E4909A
:10034000E740F090E68AF090E68B04F0802D90E78D
:10035000407401F0F536E536D3950F501E748725AD
:1003600036F582E43414F583E0FF74402536F582D7
:10037000E434E7F583EFF0053680DBE490E68AF0BD
:10038000E50F0490E68BF090E6A0E04480F0C322F5
:1003900090E6BAE0547FF580A3E04480F5B23002E5
:1003A00060E5805424FFBF240D2006067512807579
:1003B0001300D206804BC206E4F512F5138042907A
:1003C000E740E5B1F0A3E580F0A3E50AF0E490E6AC
:1003D0008AF090E68B7403F090E6A0E04480F0C3CE
:1003E0002290E740E516F0A3E515F0E490E68AF0E8
:1003F00090E68B7402F090E6A0E04480F0C322C344
:1004000022E490E68AF090E68B04F090E6A0E044C7
:0304100080F0C3B6
:0104130022C6
:10122000C0E0C083C082D2015391EF90E65D7401AB
:08123000F0D082D083D0E0323F
:10125000C0E0C083C0825391EF90E65D7404F0D08B
:0612600082D083D0E032D1
:10126600C0E0C083C0825391EF90E65D7402F0D077
:0612760082D083D0E032BB
:1010B700C0E0C083C082852A26852B2785278285A5
:1010C7002683A37402F08522288523298529828512
:1010D7002883A37407F05391EF90E65D7410F0D066
:0610E70082D083D0E0324C
:10123800C0E0C083C082D2045391EF90E65D740889
:08124800F0D082D083D0E03227
:100FD200C0E0C083C08290E680E030E74B852226E5
:100FE200852327852782852683A37402F0852A28F4
:100FF200852B29852982852883A37407F075100221
:1010020075110000000090E6247402F000000090C8
:10101200E625E4F000000090E6267402F0000000ED
:1010220090E627E4F00000005391EF90E65D742013
:08103200F0D082D083D0E0323F
:0112D80032E3
:0112D90032E2
:0112DA0032E1
:0112DB0032E0
:0112DC0032DF
:0112DD0032DE
:0112DE0032DD
:0112DF0032DC
:0112E00032DB
:0112E10032DA
:0112E20032D9
:0112E30032D8
:0112E40032D7
:0112E50032D6
:0112E60032D5
:0112E70032D4
:0112E80032D3
:0112E90032D2
:0112EA0032D1
:0112EB0032D0
:0112EC0032CF
:0112ED0032CE
:0112EE0032CD
:0112EF0032CC
:0112F00032CB
:0112F10032CA
:0112F20032C9
:0112F30032C8
:0112F40032C7
:0112F50032C6
:0112F60032C5
:0112F70032C4
:0112F80032C3
:0112F90032C2
:0112FA0032C1
:1011CA00C0E0C083C08290E6F574FFF000000053CF
:0E11DA0091BFF5A2000000D082D083D0E03299
:10127C00C0E05391BFE5A04480F50AE5B14480F588
:04128C000DD0E0326F
:0A0BF60000010202030304040505D8
:020B6500C102CB
:100DB800E4F533F532F531F530C204C200C203C29E
:100DC80001120A6B75240C752500752C0C752D12F3
:100DD80075220C75231C752A0C752B4A752E0C75FB
:100DE8002F78D2E843D82090E668E04408F090E6EF
:100DF8005CE0443DF0D2AF90E680E020E105D20807
:100E080012111F90E680E054F7F0538EF8C204E503
:100E1800B154C0FFBFC002D2023001051206B1C2F0
:100E2800013004291212C45024C2041211A5200052
:100E38001690E682E030E704E020E1EF90E682E0F9
:100E480030E604E020E0E412114E1212C912041434
:020E580080C751
:010E5A002275
:1006B10090E6B9E0700302078D1470030208362436
:1006C100FE70030208CB24FB70030207871470033A
:1006D10002078114700302077514700302077B245B
:1006E100056003020937120CFE400302094390E63C
:1006F100BBE024FE602C14604724FD6016146031B9
:1007010024067066E52490E6B3F0E52590E6B4F0A2
:10071100020943E52C90E6B3F0E52D90E6B4F00232
:100721000943E52690E6B3F0E52790E6B4F0020927
:1007310043E52890E6B3F0E52990E6B4F0020943D9
:1007410090E6BAE0FF12117AAA06A9077B01EA49ED
:100751004B600DEE90E6B3F0EF90E6B4F002094382
:1007610090E6A0E04401F002094390E6A0E04401D4
:10077100F00209431212A20209431212B402094300
:10078100120CF60209431212900209431212D240CE
:100791000302094390E6B8E0247F602B14603C24F7
:1007A10002600302082CA200E433FF25E0FFA2034C
:1007B100E4334F90E740F0E4A3F090E68AF090E64E
:1007C1008B7402F0020943E490E740F0A3F090E655
:1007D1008AF090E68B7402F002094390E6BCE05483
:1007E1007EFF7E00E0D3948040067C007D01800482
:1007F1007C007D00EC4EFEED4F24F6F582740B3E3D
:10080100F583E493FF3395E0FEEF24A1FFEE34E698
:100811008F82F583E0540190E740F0E4A3F090E685
:100821008AF090E68B7402F002094390E6A0E0445E
:1008310001F00209431212D4400302094390E6B8C1
:10084100E024FE601D2402600302094390E6BAE041
:10085100B40105C20002094390E6A0E04401F002A0
:10086100094390E6BAE0705990E6BCE0547EFF7E01
:1008710000E0D3948040067C007D0180047C007DF3
:1008810000EC4EFEED4F24F6F582740B3EF583E449
:1008910093FF3395E0FEEF24A1FFEE34E68F82F55E
:1008A10083E054FEF090E6BCE05480FF1313135430
:1008B1001FFFE0540F2F90E683F0E04420F002097F
:1008C1004390E6A0E04401F080781212D650739074
:1008D100E6B8E024FE60202402706790E6BAE0B436
:1008E1000104D200805C90E6BAE06402605490E6B4
:1008F100A0E04401F0804B90E6BCE0547EFF7E0016
:10090100E0D3948040067C007D0180047C007D0062
:10091100EC4EFEED4F24F6F582740B3EF583E49325
:10092100FF3395E0FEEF24A1FFEE34E68F82F583DD
:10093100E04401F0800C120080500790E6A0E044F2
:0909410001F090E6A0E04480F012
:01094A00228A
:030033000212CEE8
:0412CE0053D8EF32D0
:100B67006080140003013801010101070002010040
:100B770000000000FAFAFBFBFBFBFBFB36092D2DFF
:100B87002D2D123F01013801010101070202070261
:100B970000000000F9FBFBFBFBFBFBFB09092D2D0C
:100BA700002D363F03013F0101010107000201004B
:100BB70000000000FAFAFBFBFBFBFBFB36092D2DBF
:100BC7002D2D123F19023F023F01010703020706BD
:100BD70001000000FBFFFBF9FBFBFBFB3F2D2D2D6D
:0E0BE7002D2D363F471480E00000FB06E41180
:100EE70090E60174C2F090E6F574FFF0901480E08C
:100EF70090E6F3F0901481E090E6C3F0901482E05E
:100F070090E6C1F0901483E090E6C2F0901485E07B
:100F170090E6C0F0901486E090E6F4F075AF0774A1
:100F270014F59A7400F59B759DE4E4F59EFF90E631
:100F37007BE090E67CF00FBF80F4E490E671F0F57B
:100F4700B490E672F0F5B600000090E6C4F0000039
:050F57000090E6C5F06A
:010F5C002272
:100C000012010002FF00FF403B0904A101000102A4
:100C100000010A06000200000040010009022E0047
:100C2000010100C0320904000004FF0000000705B4
:100C30000202000200070584020002000705860286
:100C40000002000705880200020009022E000101CF
:100C500000C0320904000004FF0000000705020282
:100C6000400000070584024000000705860240009E
:100C70000007058802400000040309041003500027
:100C80004C004500580054004F0052003003500003
:100C90006C006500780074006F0072002000430053
:100CA0006F006E007600650072007400580020002E
:0E0CB0005400560034003000320055000000A1
:03004300020D00AB
:0300530002127C1A
:100D00000212200002126600021250000212380085
:100D10000210B700020FD2000212D8000212D9004E
:100D20000212DA000212DB000212DC000212DD0005
:100D30000212DE000212DF000212E0000212E100E5
:100D40000212E2000212D9000212E3000212E400D1
:100D50000212E5000212E6000212E7000212E800A9
:100D60000212E9000212D9000212D9000212D900BF
:100D70000212EA000212EB000212EC000212ED0075
:100D80000212EE000212EF000212F0000212F10055
:100D90000212F2000212F3000212F4000212F50035
:100DA0000212F6000212F7000212F8000212F90015
:080DB0000212FA000211CA0050
:10114E0090E682E030E004E020E60B90E682E030AC
:10115E00E119E030E71590E680E04401F07F147E5F
:0C116E000012103A90E680E054FEF022DF
:1011A50090E682E044C0F090E681F04387010000BC
:0411B5000000002214
:10111F0030080990E680E0440AF0800790E680E00E
:10112F004408F07FDC7E0512103A90E65D74FFF004
:0F113F0090E65FF05391EF90E680E054F7F022D6
:0812BC00E4F51CD2E9D2AF22D7
:100CBE00AD0790E678E020E6F9C2E990E678E044E8
:100CCE0080F0ED25E090E679F090E678E030E0F9FE
:100CDE0090E678E04440F090E678E020E6F990E681
:080CEE0078E030E1D6D2E922E2
:1010ED00AC0790E678E020E6F9E51C702390E678F1
:1010FD00E04480F0EC25E090E679F08D17AF03A980
:10110D00077518018A19891AE4F51B751C01D3227C
:02111D00C322EB
:10108000AC0730050990E678E030E60680F7E51C0D
:1010900070FC90E678E04480F0EC25E0440190E6B6
:1010A00079F08D17AF03A9077518018A19891AE419
:0710B000F51B751C03D322A0
:03004B0002094B5C
:10094B00C0E0C083C082C085C084C086758600C0ED
:10095B00D075D000C000C001C002C003C006C007E4
:10096B0090E678E030E206751C06020A4D90E678B8
:10097B00E020E10CE51C64026006751C07020A4DC1
:10098B00E51C24FE607214604924FE7003020A39D0
:10099B0024FC7003020A45147003020A4A240960FE
:1009AB0003020A4DAB18AA19A91AAF1B051B8F829C
:1009BB00758300120F5D90E679F0E51BB5170830D3
:1009CB000505751C05807BE51B65177075751C0A85
:1009DB00807090E679E0AB18AA19A91AAE1B8E822B
:1009EB00758300120F8A751C02E517640170539012
:1009FB00E678E04420F0804AE51724FEB51B07900B
:100A0B00E678E04420F0E51714B51B0A90E678E091
:100A1B004440F0751C0090E679E0AB18AA19A91AAE
:100A2B00AE1B8E82758300120F8A051B801490E615
:100A3B0078E04440F0751C008008751C008003753D
:100A4B001C005391DFD007D006D003D002D001D0C9
:100A5B0000D0D0D086D084D085D082D083D0E03265
:02117A00A907C3
:10117C00AE2EAF2F8F828E83A3E064037017AD0168
:10118C0019ED7001228F828E83E07C002FFDEC3EE6
:08119C00FEAF0580DFE4FEFF59
:0111A4002228
:1011E800121080E51C24FA600E146006240770F3C0
:0C11F800D322E4F51CD322E4F51CD32222
:101204001210EDE51C24FA600E146006240770F336
:0C121400D322E4F51CD322E4F51CD32205
:10103A008E348F3590E600E054187012E53524019D
:10104A00FFE43534C313F534EF13F535801590E614
:10105A0000E05418FFBF100BE53525E0F535E534FF
:10106A0033F534E5351535AE34700215344E600566
:06107A001211B980EE2204
:1011B9007400F58690FDA57C05A3E582458370F949
:0111C9002203
:03000000020E5B92
:0C0E5B00787FE4F6D8FD758139020EA204
:100F5D00BB010CE58229F582E5833AF583E0225049
:100F6D0006E92582F8E622BBFE06E92582F8E22293
:0D0F7D00E58229F582E5833AF583E49322AD
:100F8A00F8BB010DE58229F582E5833AF583E8F09D
:100F9A00225006E92582C8F622BBFE05E92582C849
:020FAA00F22231
:100FAC00D083D082F8E4937012740193700DA3A3D4
:100FBC0093F8740193F5828883E4737402936860E8
:060FCC00EFA3A3A380DFE8
:100E6700020DB8E493A3F8E493A34003F68001F2DC
:100E770008DFF48029E493A3F85407240CC8C3338C
:100E8700C4540F4420C8834004F456800146F6DF5B
:100E9700E4800B0102040810204080900B49E47E97
:100EA700019360BCA3FF543F30E509541FFEE49350
:100EB700A360010ECF54C025E060A840B8E493A317
:100EC700FAE493A3F8E493A3C8C582C8CAC583CA42
:100ED700F0A3C8C582C8CAC583CADFE9DEE780BEFA
:010BF50000FF
:00000001FF
