:100BB800012C00012D05012900012A40C105C104AD
:0A0BC80002240000012100012200B8
:100A090090E6007410F0120E2490E60B7401F000C9
:100A1900000090E61274A2F000000090E61374E260
:100A2900F000000090E614F000000090E615F000D8
:100A3900000090E6047480F00000007402F00000E9
:100A4900007404F00000007406F00000007408F05F
:100A5900000000E4F000000090E6187411F00000B6
:100A69000090E6907480F000000090E691F000009C
:100A79000090E6197409F0000000E490E622F00005
:100A8900000090E6237404F000000090E61A74094F
:100A9900F0000000E490E624F000000090E62574E0
:100AA90040F000000090E61B7409F0000000E4909B
:100AB900E626F000000090E6277440F0000000539D
:100AC900807F43B280E4F5B6F5B490E668E054FC63
:0E0AD900F000000053E8FB00000012122B2278
:10068E0090E6F4E030E00AE5AA20E305751F01804C
:10069E003790E6F4E030E20AE5AC30E505751F026E
:1006AE008026300505751F20801E90E6F4E030E1AF
:1006BE000AE5AC30E105751F04800DE5AB20E105C0
:1006CE00751F088003751F10E51F24FE70030207B7
:1006DE007524FE70030207B824FC70030207F82489
:1006EE00E87003020881241F60030208E590E6F318
:1006FE00E0547FF000000090E6F074FFF090E6F119
:10070E0074ECF0E5BB30E7FB000000E490E6D0F0BF
:10071E0000000090E6D104F000000075BB0500005B
:10072E0000E5BB30E7FB00000090E6F3E0547FF0FD
:10073E0000000090E6F074FFF090E6F174EEF0E544
:10074E00BB30E7FB000000E490E6D0F00000009024
:10075E00E6D104F000000075BB05000000E5BB30DB
:10076E00E7030208E580F600000090E6F3E0547F10
:10077E00F000000090E6F074FFF090E6F174F2F0F5
:10078E00E5BB30E7FB00000090E6D0E529F0000065
:10079E000090E6D1E52AF000000075BB07000000CE
:1007AE00E5BB30E7030208E580F690E6F3E0547F00
:1007BE00F000000090E6F074FFF090E6F174E4F0C3
:1007CE00E5BB30E7FB00000090E6D0E529F0000025
:1007DE000090E6D1E52AF000000075BB060000008F
:1007EE00E5BB30E7030208E580F600000090E6491D
:1007FE007402F000000090E6F3E0547FF000000079
:10080E0090E6F074FFF090E6F174F4F0E5BB30E79B
:10081E00FB00000090E6F1E0F521E5BB30E7FB00C0
:10082E00000090E6F2E0FF90E6F0E0F51AEF30E11E
:10083E00030208E590E6F3E0547FF000000090E636
:10084E00F074FFF090E6F174EAF0E5BB30E7FB00E0
:10085E000000E490E6D0F000000090E6D17420F0A5
:10086E00000000E4F5BB000000E5BB30E7FB000034
:10087E00008064E4F51DF51E901487E0FFA3E0F5FB
:10088E001BA3E0FEC313F51CEF30E03930E104D2B8
:10089E00048002C204E51BD39401400DE51B14FD38
:1008AE007A147B8AAF1C1211797489251BF582E4A8
:1008BE003414F583E0F528D2047A147B88FDAF1C3E
:1008CE0012115D8010E4F528D2047A147B8AAD1BD8
:0A08DE00AF1C121179C205000000E2
:0108E80022ED
:050CFA00438080D322BD
:0512330053807FD3226F
:02123C00D322BB
:08121B0090E6BAE0F52BD322A6
:1011ED0090E740E52BF0E490E68AF090E68B04F072
:0211FD00D322FB
:0812230090E6BAE0F527D322A2
:1011FF0090E740E527F0E490E68AF090E68B04F064
:02120F00D322E8
:02123E00D322B9
:02124000D322B7
:02124200D322B5
:1000800090E6B9E0120EE900AC1000D212011C1487
:10009000016D20019D2101EB22027724033B250302
:1000A000C23003904003A041000003E00000009034
:1000B000E6047480F00000007404F0000000740690
:1000C000F00000007408F0000000E4F000000002FE
:1000D00003E290E6F3E0547FF000000090E6BDE01C
:1000E00090E6F0F090E6BCE090E6F1F0E5BB30E79A
:1000F000FB00000090E6F3E04480F000000090E692
:10010000BBE090E6F0F090E6BAE090E6F1F0000097
:1001100000E5BB30E7FB0000000203E290E6F3E0FD
:10012000547FF000000090E6BDE090E6F0F090E62D
:10013000BCE090E6F1F0E5BB30E7FB00000090E6A4
:10014000F1E0F522E5BB30E7FB90E6F2E090E74016
:10015000F090E6F0E090E741F0E490E68AF090E677
:100160008B7402F090E6A0E04480F0C32290E6BADF
:10017000E0F51A90E6BEE0F51BE490E68AF090E622
:100180008BF090E6A0E020E1F97AE77B40AD1BAF71
:100190001A12117990E6A0E04480F0C32290E6BAEA
:1001A000E0F51A90E6BEE0F51B90E6A0E020E1F94C
:1001B000E4F51CE51CC3951B50127440251CF58208
:1001C000E434E7F58374CDF0051C80E77AE77B40E3
:1001D000AD1BAF1A12115DE490E68AF090E68BE554
:1001E0001BF090E6A0E04480F0C32290E6BAE0F570
:1001F0001A90E6BEE0F51B90E6A0E020E1F9E4F5F8
:100200001CE51CC3951B50127440251CF582E43478
:10021000E7F58374CDF0051C80E7E4F51C90E6BBA0
:10022000E0601590E6BDE0FFAE1C051C74C72EF51E
:1002300082E43414F583EFF090E6BCE0FFAE1C05D9
:100240001C74C72EF582E43414F583EFF07A147B26
:10025000C7AD1CAF1A1211797AE77B40AD1BAF1AFC
:1002600012115DE490E68AF090E68BE51BF090E6D3
:10027000A0E04480F0C322E490E68AF090E68BF0A0
:1002800090E6A0E020E1F990E6BEE0F52890E74096
:10029000E030E02BE4F51CE51CC395284003020385
:1002A000307440251CF582E434E7F583E0FF748761
:1002B000251CF582E43414F583EFF0051C80D890FA
:1002C000E741E02402F51BE4F51CE51CC3951B5037
:1002D0001E7440251CF582E434E7F583E0FF748743
:1002E000251CF582E43414F583EFF0051C80DB74E3
:1002F00040251CF582E434E7F583E0FF90E741E018
:100300002F14901488F0E52814F51BE51CC3951BE9
:10031000501E7441251CF582E434E7F583E0FF7438
:1003200087251CF582E43414F583EFF0051C80DB8F
:10033000D20590E6A0E04480F0C322300510E4909E
:10034000E740F090E68AF090E68B04F0802D90E78D
:10035000407401F0F51CE51CD39528501E748725C8
:100360001CF582E43414F583E0FF7440251CF5820B
:10037000E434E7F583EFF0051C80DBE490E68AF0D7
:10038000E5280490E68BF090E6A0E04480F0C322DC
:1003900090E6BAE0547FF580A3E04480F5B2804255
:1003A00090E740E526F0A3E580F0A3E523F0E49094
:1003B000E68AF090E68B7403F090E6A0E04480F0CB
:1003C000C32290E740E52DF0A3E52CF0E490E68A07
:1003D000F090E68B7402F090E6A0E04480F0C32237
:1003E000C322E490E68AF090E68B04F090E6A0E069
:0403F0004480F0C392
:0103F40022E6
:100AE700C0E0C083C082D2015391EF90E65D7401EC
:080AF700F0D082D083D0E03280
:1011AD00C0E0C083C0825391EF90E65D7404F0D02F
:0611BD0082D083D0E03275
:1011C300C0E0C083C0825391EF90E65D7402F0D01B
:0611D30082D083D0E0325F
:10102C00C0E0C083C08285100C85110D850D8285B2
:10103C000C83A37402F085080E85090F850F828539
:10104C000E83A37407F05391EF90E65D7410F0D00B
:06105C0082D083D0E032D7
:10119500C0E0C083C082D2035391EF90E65D74082E
:0811A500F0D082D083D0E032CB
:100F0F00C0E0C083C08290E680E030E74B85080CDC
:100F1F0085090D850D82850C83A37402F085100E53
:100F2F0085110F850F82850E83A37407F075290233
:100F3F00752A0000000090E6247402F00000009073
:100F4F00E625E4F000000090E6267402F0000000B1
:100F5F0090E627E4F00000005391EF90E65D7420D7
:080F6F00F0D082D083D0E03203
:010AFF0032C4
:010CFF0032C2
:011244003277
:011245003276
:011246003275
:011247003274
:011248003273
:011249003272
:01124A003271
:01124B003270
:01124C00326F
:01124D00326E
:01124E00326D
:01124F00326C
:01125000326B
:01125100326A
:011252003269
:011253003268
:011254003267
:011255003266
:011256003265
:011257003264
:011258003263
:011259003262
:01125A003261
:01125B003260
:01125C00325F
:01125D00325E
:01125E00325D
:01125F00325C
:01126000325B
:01126100325A
:011262003259
:011263003258
:011264003257
:10113F00C0E0C083C08290E6F574FFF0000000535A
:0E114F0091BFF5A2000000D082D083D0E03224
:1011D900C0E05391BFE5A04480F523E5B14480F513
:0411E90026D0E032FA
:0A12110000010202030304040505B6
:100C6100E4F519F518F517F516C203C200C202C260
:100C710001120A09750A0D750B0075120D75131213
:100C810075080D75091C75100D75114A75140D75D2
:100C91001578D2E843D82090E668E04408F090E661
:100CA1005CE0443DF0D2AF90E680E020E105D20661
:100CB10012109490E680E054F7F0538EF8C203309E
:100CC10001051203F5C201300329120CFA5024C2A6
:100CD1000312111A20001690E682E030E704E020AA
:100CE100E1EF90E682E030E604E020E0E41210C398
:080CF10012123312068E80C7B7
:010CF90022D8
:1003F50090E6B9E070030204D01470030205792475
:10040500FE700302060E24FB70030204CA14700377
:100415000204C41470030204B81470030204BE2459
:1004250005600302067A12123C400302068690E636
:10043500BBE024FE602C14604724FD601614603177
:1004450024067065E50A90E6B3F0E50B90E6B4F096
:10045500020686E51290E6B3F0E51390E6B4F002E5
:100465000686E50C90E6B3F0E50D90E6B4F00206DD
:1004750086E50E90E6B3F0E50F90E6B4F002068649
:1004850090E6BAE0FF1210EFAA06A9077B01EA4938
:10049500600DEE90E6B3F0EF90E6B4F002068690BC
:1004A500E6A0E04401F002068690E6A0E04401F0F3
:1004B5000206861211FF0206861212230206861212
:1004C500121B0206861211ED02068612123E400329
:1004D50002068690E6B8E0247F602B14603C240277
:1004E500600302056FA200E433FF25E0FFA202E4EA
:1004F500334F90E740F0E4A3F090E68AF090E68B66
:100505007402F0020686E490E740F0A3F090E68AD4
:10051500F090E68B7402F002068690E6BCE0547E0D
:10052500FF7E00E0D3948040067C007D0180047C42
:10053500007D00EC4EFEED4F2411F58274123EF560
:1005450083E493FF3395E0FEEF24A1FFEE34E68FBD
:1005550082F583E0540190E740F0E4A3F090E68A49
:10056500F090E68B7402F002068690E6A0E0440166
:10057500F0020686121240400302068690E6B8E0B5
:1005850024FE601D2402600302068690E6BAE0B4EC
:100595000105C20002068690E6A0E04401F00206CD
:1005A5008690E6BAE0705990E6BCE0547EFF7E0086
:1005B500E0D3948040067C007D0180047C007D00B2
:1005C500EC4EFEED4F2411F58274123EF583E49353
:1005D500FF3395E0FEEF24A1FFEE34E68F82F5832D
:1005E500E054FEF090E6BCE05480FF131313541F53
:1005F500FFE0540F2F90E683F0E04420F0020686DA
:1006050090E6A0E04401F08078121242507390E623
:10061500B8E024FE60202402706790E6BAE0B401D9
:1006250004D200805C90E6BAE06402605490E6A0D3
:10063500E04401F0804B90E6BCE0547EFF7E00E094
:10064500D3948040067C007D0180047C007D00EC15
:100655004EFEED4F2411F58274123EF583E493FFAF
:100665003395E0FEEF24A1FFEE34E68F82F583E0BB
:100675004401F0800C120080500790E6A0E0440190
:08068500F090E6A0E04480F0D3
:01068D00224A
:030033000212387E
:0412380053D8EF3266
:100BD20060801400030138010101010700020100D5
:100BE20000000000FAFAFBFBFBFBFBFB36092D2D94
:100BF2002D2D123F010138010101010702020702F6
:100C020000000000F9FBFBFBFBFBFBFB09092D2DA0
:100C1200002D363F03013F010101010700020100DF
:100C220000000000FAFAFBFBFBFBFBFB36092D2D53
:100C32002D2D123F19023F023F0101070302070651
:100C420001000000FBFFFBF9FBFBFBFB3F2D2D2D01
:0E0C52002D2D363F471480E00000FB06E41114
:100E240090E60174C2F090E6F574FFF0901480E04F
:100E340090E6F3F0901481E090E6C3F0901482E021
:100E440090E6C1F0901483E090E6C2F0901485E03F
:100E540090E6C0F0901486E090E6F4F075AF077465
:100E640014F59A7400F59B759DE4E4F59EFF90E6F5
:100E74007BE090E67CF00FBF80F4E490E671F0F53F
:100E8400B490E672F0F5B600000090E6C4F00000FD
:050E94000090E6C5F02E
:010E99002236
:100D000012010002FF00FF40B10E0770080201024D
:100D100000010A06000200000040010009022E0046
:100D200001010080FA0904000004FF00000007052B
:100D30000202000200070584020002000705860285
:100D40000002000705880200020009022E000101CE
:100D50000080FA0904000004FF00000007050202F9
:100D6000400000070584024000000705860240009D
:100D70000007058802400000040309040803570027
:100D8000490053001203540056002000540055003F
:080D90004E0045005200000076
:03004300020B00AD
:030053000211D9BE
:100B0000020AE7000211C3000211AD0002119500B4
:100B100002102C00020F0F00020AFF00020CFF005F
:100B2000021244000212450002124600021247005F
:100B3000021248000212490002124A0002124B003F
:100B400002124C00020CFF0002124D0002124E0075
:100B500002124F0002125000021251000212520003
:100B600002125300020CFF00020CFF00020CFF00F7
:100B700002125400021255000212560002125700CF
:100B8000021258000212590002125A0002125B00AF
:100B900002125C0002125D0002125E0002125F008F
:100BA000021260000212610002126200021263006F
:080BB0000212640002113F0073
:1010C30090E682E030E004E020E60B90E682E03038
:1010D300E119E030E71590E680E04401F07F147EEB
:0C10E30000120F7790E680E054FEF0222F
:10111A0090E682E044C0F090E681F0438701000047
:04112A00000000229F
:1010940030060990E680E0440AF0800790E680E09C
:1010A4004408F07FDC7E05120F7790E65D74FFF054
:0F10B40090E65FF05391EF90E680E054F7F02262
:08122B00E4F533D2E9D2AF2251
:100FBD00AD0790E678E020E6F9C2E990E678E044E6
:100FCD0080F0ED25E090E679F090E678E030E0F9FC
:100FDD0090E678E04440F090E678E020E6F990E67F
:080FED0078E030E1D6D2E922E0
:10106200AC0790E678E020E6F9E533702390E67865
:10107200E04480F0EC25E090E679F08D2EAF03A9F4
:1010820007752F018A308931E4F532753301D32295
:02109200C32277
:100FF500AC0730040990E678E030E60680F7E53383
:1010050070FC90E678E04480F0EC25E0440190E641
:1010150079F08D2EAF03A907752F018A308931E448
:07102500F532753303D322FD
:03004B000208E9BF
:1008E900C0E0C083C082C085C084C086758600C050
:1008F900D075D000C000C001C002C003C006C00747
:1009090090E678E030E2067533060209EB90E67866
:10091900E020E10CE533640260067533070209EB58
:10092900E53324FE607214604924FE70030209D77E
:1009390024FC70030209E31470030209E824096026
:10094900030209EBAB2FAA30A931AF3205328F82EE
:10095900758300120E9A90E679F0E532B52E0830CB
:100969000405753305807BE532652E707575330A8C
:10097900807090E679E0AB2FAA30A931AE328E8231
:10098900758300120EC7753302E52E64017053900A
:10099900E678E04420F0804AE52E24FEB53207903F
:1009A900E678E04420F0E52E14B5320A90E678E0C6
:1009B9004440F075330090E679E0AB2FAA30A931B5
:1009C900AE328E82758300120EC70532801490E60E
:1009D90078E04440F0753300800875330080037572
:1009E90033005391DFD007D006D003D002D001D015
:1009F90000D0D0D086D084D085D082D083D0E032C8
:0210EF00A9074F
:1010F100AE14AF158F828E83A3E064037017AD0128
:1011010019ED7001228F828E83E07C002FFDEC3E71
:08111100FEAF0580DFE4FEFFE4
:0111190022B3
:10115D00120FF5E53324FA600E146006240770F3C0
:0C116D00D322E4F533D322E4F533D3227F
:10117900121062E53324FA600E146006240770F336
:0C118900D322E4F533D322E4F533D32263
:100F77008E1A8F1B90E600E054187012E51B2401AF
:100F8700FFE4351AC313F51AEF13F51B801590E626
:100F970000E05418FFBF100BE51B25E0F51BE51A11
:100FA70033F51AE51B151BAE1A7002151A4E6005AC
:060FB70012112E80EE2253
:10112E007400F58690FDA57C05A3E582458370F9D4
:01113E00228E
:03000000020D9856
:0C0D9800787FE4F6D8FD758133020DDF92
:100E9A00BB010CE58229F582E5833AF583E022500D
:100EAA0006E92582F8E622BBFE06E92582F8E22257
:0D0EBA00E58229F582E5833AF583E4932271
:100EC700F8BB010DE58229F582E5833AF583E8F061
:100ED700225006E92582C8F622BBFE05E92582C80D
:020EE700F222F5
:100EE900D083D082F8E4937012740193700DA3A398
:100EF90093F8740193F5828883E4737402936860AC
:060F0900EFA3A3A380DFAB
:100DA400020C61E493A3F8E493A34003F68001F2F8
:100DB40008DFF48029E493A3F85407240CC8C33350
:100DC400C4540F4420C8834004F456800146F6DF1F
:100DD400E4800B0102040810204080900BB8E47EEC
:100DE400019360BCA3FF543F30E509541FFEE49314
:100DF400A360010ECF54C025E060A840B8E493A3DB
:100E0400FAE493A3F8E493A3C8C582C8CAC583CA05
:100E1400F0A3C8C582C8CAC583CADFE9DEE780BEBD
:010C60000093
:00000001FF
