:020000040800F2
:100000000004002011020008E1020008E1020008DB
:10001000E1020008E1020008E1020008E102000834
:10002000E1020008E1020008E10200080103000803
:10003000E1020008E1020008E1020008D103000823
:10004000E1020008E1020008E1020008E102000804
:10005000E1020008E1020008E1020008E1020008F4
:10006000E1020008E1020008E1020008E1020008E4
:10007000E1020008E1020008E1020008E1020008D4
:10008000E1020008E1020008E1020008E1020008C4
:10009000E1020008E1020008E1020008E1020008B4
:1000A000E1020008E1020008E1020008E1020008A4
:1000B000E1020008E1020008E1020008E102000894
:1000C000E1020008E1020008E1020008E102000884
:1000D000E1020008E1020008E1020008E102000874
:1000E000E1020008E1020008E1020008E102000864
:1000F000E1020008E1020008E1020008E102000854
:10010000E1020008E1020008E1020008E102000843
:1001100091100008E1020008E1020008E102000875
:10012000E1020008E1020008E1020008E102000823
:10013000E1020008E1020008E1020008E102000813
:10014000E1020008E1020008E1020008E102000803
:100150002DE9F04387B000F0FBFD00F0A9F91E483F
:100160001E4900F075FE00271D484FF4987140228B
:100170001C4B009700F0B4FB03AC4FF001084FF0AC
:100180000809122634254FF0560E27608DF810E02E
:1001900003AC4FF0780E8DF811E021464FF00D0EB4
:1001A0000A224FF0FF331048ADF814708DF80C8020
:1001B0008DF80D908DF80E608DF80F508DF812604F
:1001C0008DF813508DF814E000F032FD41F28830C4
:1001D00000F09EFBD7E700BF60090020D0130008A5
:1001E000D80900208112000890090020AFF3008098
:1001F000704700BFAFF30080AFF30080AFF3008023
:10020000FEE700BFAFF30080AFF30080AFF30080E4
:1002100072B6244A82F30988022383F31488BFF359
:100220006F8F214B21498B4205D24FF0553043F857
:10023000040B8B42FBD31E4B934205D24FF055313A
:1002400043F8041B9342FBD301F00AF8194B1A48F8
:10025000834206D2194A52F8041F43F8041B834212
:10026000F9D3174B174A934204D2002143F8041BD9
:100270009342FBD3144D154CFFF7BAFFAC4204D2A6
:1002800054F8043B9847AC42FAD3114D114CFFF798
:100290005FFFAC4204D254F8043B9847AC42FAD317
:1002A000FFF7AEBF0008002000000020000400207F
:1002B000000400200008002000080020DC130008D3
:1002C00000080020080B0020500100085001000821
:1002D0005001000850010008AFF30080AFF3008028
:1002E000FEE700BFAFF30080AFF30080AFF3008004
:1002F00000F086FA00DF00BFAFF30080AFF30080AC
:10030000EFF30983203383F30988002383F31188F3
:10031000704700BFAFF30080AFF30080AFF3008001
:1003200008B54FF440724FF46D43CEF20003C0F2B3
:10033000FA520021996007201021DA6000F090F84D
:100340000A204FF4007100F08BF80B208021BDE8EB
:10035000084000F085B800BFAFF30080AFF3008025
:10036000202383F311884FF46D43CEF200035B68C2
:1003700013F4006319D0EFF30983A3F1200282F391
:10038000098810494FF080708A6943F8040CD07FC7
:1003900009689268896858B1914294BF002201228D
:1003A00062B1094A43F8082C704783F311887047FB
:1003B000914234BF00220122002AF2D1034A43F8BD
:1003C000082C704718090020F1020008F402000808
:1003D00008B5202383F3118800F0A2F8002383F3EB
:1003E0001188BDE80840FFF7BBBF00BFAFF3008036
:1003F0002DE9F04FC1F80CD0D0F80CD0BDE8F08F4B
:10040000002383F311882846A04700F0B9FA70470B
:1004100000F00303DB00FF229A40F0B4994001256D
:1004200000F01F039D4086084FF46144CEF20004A3
:10043000C03654F82630400923EA02030B4300F18A
:10044000600744F8263044F8275044F82050F0BCA8
:10045000704700BFAFF30080AFF30080AFF30080C0
:1004600000F00303DB00FF229A40994010B480089B
:100470004FF46D44CEF20004063054F8203023EAE5
:1004800002030B4344F8203010BC7047AFF30080E8
:10049000024B034A9B699A61FEE700BF18090020DE
:1004A00020130008AFF30080AFF30080AFF30080AB
:1004B00010B582B0FFF734FF00F0DAF800F060F812
:1004C00000F0FEFB00F034FC40F600004021C2F2D8
:1004D000000000F0A5F940F61811C2F20001886191
:1004E00001220277002383F3118862B689691C46D2
:1004F00041F23033C0F600038B6140F6480040F211
:100500009143C021C0F60003C2F20000009400F045
:10051000E7F902B010BD00BFAFF30080AFF3008079
:1005200038B5134B9B69DA7F0AB1013ADA771A6A58
:10053000104C01321A62E36821680133A142E36082
:1005400014D08D68013D8D6085B90B68CA685C6008
:100550002360CD60002383F311880869904720232E
:1005600083F3118821688B68002BEED038BD00BF63
:100570001809002008090020AFF30080AFF30080C5
:1005800040F60813C2F200034FF0FF329A600022D7
:100590005B601B60DA607047AFF30080AFF30080F0
:1005A00070B40D4C03612568C260AE68B14204D9D5
:1005B0002D68891BAE688E42FAD36B688160A542B4
:1005C00043600560186018BFAB6868601CBFC1EB72
:1005D0000301A96070BC704708090020AFF30080D8
:1005E0000368074A93421FBF996882688A189A6015
:1005F0004268002113600368C1605A60704700BF01
:1006000008090020AFF30080AFF30080AFF3008053
:10061000202383F31188037F0D2B11D8DFE803F02B
:1006200020101007100B101010101010100B436A40
:100630009A6801329A6090E80C001A600268536070
:100640004FF0FF32426281680022074B02771B683D
:100650009A688A42FBD25A68036042601060586010
:10066000002383F31188704718090020AFF300803E
:1006700040F61813C2F2000300225B601B609A6010
:100680005B611B61704700BFAFF30080AFF3008078
:1006900000228168054B02771B689A688A42FBD268
:1006A0005A68036042601060586070471809002063
:1006B00040F61813C2F2000310B499691A6808775B
:1006C00014201468C87701201077104663601C60FE
:1006D0009A6110BCFFF78CBEAFF30080AFF30080CF
:1006E00030B54B1C87B0054611D00B4C0B4AA369A3
:1006F00001A8FFF755FF2846FFF7DAFF049B13B167
:1007000001A8FFF76DFFA369586A07B030BDFFF776
:10071000CFFF014CF7E700BF1809002011060008C1
:1007200030B4144C0346A2698568906859628542CA
:100730000CD800221A772468A2689542FBD9626817
:100740001C605A601360636030BC704700211177F1
:10075000214609688D68A842FBD94868116050603D
:100760004A6001210260197718461146A36130BC26
:10077000FFF73EBE18090020AFF30080AFF3008002
:100780000E4B30B41868996902688C6853601A601F
:10079000986114230125CB77002305770B77034657
:1007A00000E01B689A68A242FBD25A680B604A605C
:1007B0001160596030BCFFF71BBE00BF1809002054
:1007C0000D4B30B41868996902688C685360012534
:1007D0001A609861002305770B77034600E01B68D9
:1007E0009A68A242FBD85A680B604A60116059604F
:1007F00030BCFFF7FDBD00BF18090020AFF300803B
:10080000034B9B69DB7F0BB1FFF7DABFFFF7B8BF84
:1008100018090020AFF30080AFF30080AFF3008031
:10082000F0B440F61814C2F20004656900220461B5
:1008300000F12C06816000F1280745614FF0020CA1
:10084000606101641424012180F81CC04277C477E0
:10085000C263826302628177826128618762066374
:10086000C662F0BC704700BFAFF30080AFF30080FA
:100870002DE9F003A1F1240C40F61815C2F2000591
:1008800000EB0C016E69C16040F80C30069B00273C
:100890004B6040F20143C0F600030B620223037772
:1008A0001423904600F1280900F12C02C37701239C
:1008B0000561C0F808804661044668614777C0F862
:1008C0004080C76387630762837787613061C0F8C0
:1008D00028900263C262BDE8F0037047AFF3008066
:1008E00010B51C4682B0202383F311882346049C54
:1008F0000094FFF7BDFF00210446FFF711FF00231E
:1009000083F31188204602B010BD00BFAFF3008012
:1009100008B50146202383F311880620FFF7E0FE87
:10092000002383F3118808BDAFF30080AFF300808C
:1009300038B50F4B9C69254655F8283F6062AB429D
:1009400007D01A681846A262FFF7A2FEA36AAB425C
:10095000F7D1637F9B0701BF226963691A6122692E
:1009600008BF53610E20BDE83840FFF7A1BE00BFAD
:1009700018090020AFF30080AFF30080AFF30080D0
:10098000202383F31188FFF7D3BF00BFAFF30080AC
:100990000023406000608360704700BFAFF30080B9
:1009A00008B5826B037F0A43082B82630BD0092BA7
:1009B00000D008BD436A1A409342FAD1FFF768FE9F
:1009C0000023436208BD436A1A42F7D108BD00BF45
:1009D00070B504680546A0420E4609D0E368606819
:1009E0003343E360A168FFF7DBFF2468A542F5D13C
:1009F00070BD00BFAFF30080AFF30080AFF30080A5
:100A000010B4024659B1084B0D209B695A625468D4
:100A100083E814005360236010BCFFF761BE4FF001
:100A2000FF3010BC704700BF18090020AFF30080F2
:100A300010B4C361019B8A18002440600060846088
:100A400041618161C1600261036210BC704700BFF7
:100A5000426908B503468069824298681AD001301D
:100A6000986002F8011B19695A618A420BD2186812
:100A700098420DD002681A605360FFF709FE002308
:100A80004362184608BD1868DA6898425A61F1D185
:100A9000002008BD0028E2D06FF0030008BD00BFB1
:100AA00070B5202304460D4683F31188C36903B152
:100AB0009847A668204629463EB9FFF7A1FF0028BF
:100AC000F7DA334683F3118870BDA369013EA6604F
:100AD00013F8010B2269A361934224BFE368A36169
:100AE000002383F3118870BDAFF30080AFF3008063
:100AF0002DE9F0471D4604460E469146D0F81C806D
:100B0000202383F311880027B8F1000F01D020467D
:100B1000C047D4F808A020462946BAF1000F09D1F1
:100B2000FFF76EFF0028F4D0534683F31188384650
:100B3000BDE8F087A3690AF1FF32A26013F8012B28
:100B4000F2552269A361934224BFE368A3610023A5
:100B500083F311880137B945E9D0202383F3118845
:100B6000D2E700BFAFF30080AFF30080AFF30080A7
:100B700010B4C361019B8C184060006082604161C9
:100B80008161C1600461036210BC7047AFF30080F3
:100B9000F8B504460D461646202383F31188A7684E
:100BA000204631463FB9FFF72BFF0028F7DA3B46D6
:100BB00083F31188F8BD6369013FA76003F8015B07
:100BC00022696361934224BFE3686361E3690BB107
:100BD00020469847002383F311881846F8BD00BFCC
:100BE0004169826910B591420346816816D001318E
:100BF000996012F8014B19699A618A420BD2186800
:100C0000984206D002681A605360FFF741FD002346
:100C10004362204610BDDA689A61F0E70029E6D009
:100C20006FF0020010BD00BFAFF30080AFF3008093
:100C30002DE9F0471E4604460D461746D0F81C9095
:100C4000202383F311884FF00008D4F808A0204631
:100C50000AF1FF33BAF1000F21D0A3602A7863694B
:100C600003F8012B22696361934224BFE368636147
:100C7000B9F1000F00D0C847002383F31188013F6A
:100C800008F1010814D00135202383F31188D4F82A
:100C900008A020460AF1FF33BAF1000FDDD120464B
:100CA0003146FFF7ADFE0028CFD0534683F31188BD
:100CB0004046BDE8F08700BFAFF30080AFF300808F
:100CC00040F20001084840F6381240F63413C2F2F0
:100CD0000101C2F2000220F00700C2F2000321F07D
:100CE00007011060196070470F0B0020AFF3008000
:100CF000202383F31188094B09491A6809680730D2
:100D000020F00700891A88429ABF10181860002244
:100D1000002383F311881046704700BF3809002074
:100D200034090020AFF30080AFF30080AFF3008000
:100D300040F64013C2F2000340F6F1410022C0F633
:100D4000000103F1100019609A60DA60FFF720BE1D
:100D500008B500F0ADF841F28030C0F6000000F0B8
:100D600047F900F045F8BDE8084000F081BA00BF3F
:100D70000C30FFF7BDBE00BFAFF30080AFF30080C3
:100D80000C304FF0FF33FFF7B3BE00BFAFF300806E
:100D90003030FFF74DBF00BFAFF30080AFF30080EE
:100DA00030304FF0FF33FFF743BF00BFAFF3008099
:100DB0000C30FFF775BE00BFAFF30080AFF30080CB
:100DC0000C304FF0FF31FFF76BBE00BFAFF3008078
:100DD0003030FFF7DDBE00BFAFF30080AFF300801F
:100DE00030304FF0FF32FFF7D3BE00BFAFF30080CB
:100DF00000F0D6B9AFF30080AFF30080AFF300800E
:100E000070B50B4641F250310646C0F6000104466B
:100E100046F8041B6660012682B0154604F15401B1
:100E20001022267200F10C000094FFF701FE04F17D
:100E3000300004F1640110222B460094FFF798FE65
:100E400002B070BDAFF30080AFF30080AFF300805D
:100E500010B52023044683F3118800F0B9F902236A
:100E60002372002383F3118810BD00BFAFF300800D
:100E700038B5436904460D463BB104F10C002946E0
:100E8000FFF7E6FD00280BDB38BD04300421FFF737
:100E90009FFD04F10C002946FFF7DAFD0028F3DA84
:100EA000201D8021BDE83840FFF792BDAFF30080E0
:100EB0004FF4805330B4C4F2020300214FF0FF34EA
:100EC00018694EF210021C611961DD68CEF2000251
:100ED000DC6004F5E154D9604EF6F0505460916046
:100EE00007211160CEF20000C2684FF4805142F039
:100EF0008072C260CEF2000108684FF4E04240F018
:100F000001000860D969C4F2000241F08051D96142
:100F1000D96941F00061D961136843F480731360AB
:100F200030BC7047AFF30080AFF30080AFF30080B8
:100F30004FF48053C4F202031A68194642F00102CA
:100F40001A600A684FF480539007C4F20203F8D580
:100F500000225A601A68194602F0F9021A604A68BB
:100F60004FF4805312F00C0FC4F20203F7D11A6849
:100F7000194642F480321A600A684FF48053920393
:100F8000C4F20203F8D54EF63062DA621A681946E6
:100F900042F080621A600A684FF480531001C4F274
:100FA0000203F8D55A68194642F488125A601A6842
:100FB00042F080721A600A684FF480539201C4F2C2
:100FC0000203F8D54FF40441C0F211014FF400526E
:100FD0005960C4F202021221116059681A4641F0A8
:100FE00002015960536803F00C03082BFAD17047D3
:100FF0004FF48053C4F202039A6910B442F07D02A8
:101000009A6103684FF40062C4F20102D360816800
:101010004FF4406351604168C4F201031160C2683B
:101020004FF48051DA604269C4F201015A600469E8
:101030004FF4A0521C608369C4F20102CB60046AC1
:101040004FF4C0534C60C469C4F201030C60416AA0
:10105000D160C16A5160816A1160026BDA60826B93
:101060005A60426B1A6010BC704700BFAFF300803B
:101070004FF49843C4F200039A8992B242F080027E
:101080009A817047AFF30080AFF30080AFF3008028
:10109000F8B53D4B5D6FAE892C88AF88A4B22207AE
:1010A000B6B2BFB218D014F0080118BF8021E30710
:1010B00048BF41F02001A00748BF41F0400162074E
:1010C00048BF41F48071202383F311882F48FFF734
:1010D0007FFC002383F31188E3052AD4A0061DD4E6
:1010E000310601D5220636D4630613D5202383F3B7
:1010F000118826481021FFF76BFC002383F3118829
:101100004FF6BF733340AB812B8823F040031B04A1
:101110001B0C2B80BDE8F840FFF722B9202383F396
:1011200011881948F9B2FFF7A3FE002383F3118851
:10113000D6E7202383F3118814484FF40071FFF79A
:1011400047FC002383F311882B8823F480731B044E
:101150001B0C2B80C2E7202383F311880C48FFF778
:101160003FFD0028A4BF80B2A88003DB002383F3E7
:101170001188B9E705480821FFF72AFC26F0C003CB
:1011800043F04003AB81F1E76009002064090020CF
:1011900090090020AFF30080AFF30080AFF3008030
:1011A00010B540F66014C2F2000441F2710220460C
:1011B0000021C0F60002FFF723FE4FF49843C4F26B
:1011C0000003636710BD00BFAFF30080AFF3008082
:1011D00038B5037A204C0546002918BF0C46012B70
:1011E00029D06B6F4FF46052C4F201029342216820
:1011F0000BBF4FF422424FF4A242C0F24A42C0F267
:101200002522B2FBF1F292B21A81A288E0882189EC
:1012100042F4045240F0400041F0010142F02C023F
:1012200092B280B289B2188299829A8100221A8081
:101230001A889B8838BD094B9842D2D14FF480530D
:10124000C4F20203DA69342042F40022DA61C021D8
:10125000FFF7DEF8C5E700BF701300086009002043
:10126000FFF766BEAFF30080AFF30080AFF30080FE
:101270000023C4F201035A6842F080725A6070473A
:10128000254B264A9B692DE9F0474FF480544FF4D3
:1012900000494FF440684FF400679A61C4F20104BA
:1012A000CA46C4F20108C4F20107C4F814A04FF4FE
:1012B000FA70FFF72DFB20260120C4F81090FFF7ED
:1012C00027FB66614FF4FA70FFF722FB04252661C5
:1012D0000120FFF71DFB65614FF4FA70FFF718FB63
:1012E000102625610120FFF713FBC8F814604FF4A6
:1012F000FA70FFF70DFB4FF480750120C8F81060FD
:10130000FFF706FB7D614FF4FA70FFF701FB3D61CB
:101310000120FFF7FDFAC8E718090020C0130008F4
:1013200069646C650000000000000000000000001F
:101330006D61696E00168111040448080C101418C0
:10134000001C1D1E1F200000000000000000000007
:10135000A10D0008810D0008E10D0008C10D000875
:10136000D10D0008B10D0008910D0008710D0008A5
:101370000096000000000040000000000000000097
:10138000FFFFFFFFBB4BBBB447444444FFFFFFFFDD
:10139000444447777477BBB4FFFFFFFF000770BB7F
:1013A000BB4BBB74FFFFFFFF8884888888888888D0
:1013B000FFFFFFFF888888888888888800000000F1
:1013C000626C696E6B657200000000000000000036
:0C13D0001055220000000040000000004A
:0400000508000211DC
:00000001FF
