:020000040800F2
:1000000000040020E1020008B1030008B103000869
:10001000B1030008B1030008B1030008B1030008F0
:10002000B1030008B1030008B1030008E1030008B0
:10003000B1030008B1030008B1030008B1040008CF
:10004000B1030008B1030008B1030008B1030008C0
:10005000B1030008B1030008B1030008B1030008B0
:10006000B1030008B1030008B1030008E15D000816
:10007000115E0008415E0008715E0008A15E000884
:10008000D15E0008015F0008D1650008B1030008D7
:10009000B1030008B1030008B1030008B103000870
:1000A000B1030008B1030008B1030008B103000860
:1000B000B1030008B1030008E16A0008B1030008B9
:1000C000B1030008B1030008B1030008B103000840
:1000D000B1030008B1030008F16C0008B103000887
:1000E000B1030008B1030008B1030008B103000820
:1000F000B1030008B1030008B1030008315F000834
:10010000B1030008B1030008B1030008B1030008FF
:10011000B1030008B1030008B1030008B1030008EF
:10012000615F0008915F0008C15F0008F15F00088F
:1001300021600008B1030008B1030008B103000802
:10014000B1030008B1030008B1030008B1030008BF
:100150005160000881600008B1600008B103000828
:10016000B1030008B1030008B1030008B10300089F
:10017000B1030008B1030008B1030008B10300088F
:08018000B1030008B1030008FF
:1001900030B5002483B005F0F3FCC4F2020400F093
:1001A000F7F900213B4805F0CBFD042140F28232F3
:1001B000204606F035FB082140F28232204606F048
:1001C0002FFB2369DA0761D44FF48064C4F2020480
:1001D0004FF480553048314905F0F2FD204629465C
:1001E0001922258306F01CFB20464FF4005140F2F3
:1001F0009A2206F015FB20464FF4804140F28222FD
:1002000006F00EFB40F29A2220464FF4004106F021
:1002100007FB2348002105F0E3FC06F019FA4FF430
:1002200000600322C4F20200022106F0F9FA1D4820
:100230001D4905F005FD4FF44060C4F20200294657
:100240004FF4817206F0ECFA4FF44060C4F2020001
:100250004FF400414FF4817206F0E2FA002200925E
:100260001248134B4FF498714022002400F0D8FB41
:10027000C4F2020403E040F2262000F021FC2369CE
:10028000DB07F8D5034801F0ABFFF4E7014801F0C4
:10029000A7FF99E75C12002014120020707E00086E
:1002A000DC11002048120020B8080020D8120020DD
:1002B000F16E0008AFF30080AFF30080AFF3008071
:1002C000704700BFAFF30080AFF30080AFF3008052
:1002D000FEE700BFAFF30080AFF30080AFF3008014
:1002E00072B6244A82F30988022383F31488BFF389
:1002F0006F8F214B21498B4205D24FF0553043F887
:10030000040B8B42FBD31E4B934205D24FF0553169
:1003100043F8041B9342FBD306F0DAFD194B1A484D
:10032000834206D2194A52F8041F43F8041B834241
:10033000F9D3174B174A934204D2002143F8041B08
:100340009342FBD3144D154CFFF7BAFFAC4204D2D5
:1003500054F8043B9847AC42FAD3114D114CFFF7C7
:1003600017FFAC4204D254F8043B9847AC42FAD38E
:10037000FFF7AEBF000800200000002000040020AE
:100380000004002000080020EC080020B47E0008D3
:10039000F0080020181400208801000888010008D7
:1003A0008801000888010008AFF30080AFF30080E7
:1003B000FEE700BFAFF30080AFF30080AFF3008033
:1003C00072B6FEE7AFF30080AFF30080AFF30080BA
:1003D00000F0B6FA00DF00BFAFF30080AFF300809B
:1003E000EFF30983203383F30988002383F3118813
:1003F000704700BFAFF30080AFF30080AFF3008021
:1004000008B54FF46D43CEF200034FF44072C0F2D2
:10041000FA520021996007201021DA6000F090F86C
:100420000A204FF4007100F08BF80B208021BDE80A
:10043000084000F085B800BFAFF30080AFF3008044
:10044000202383F311884FF46D43CEF200035B68E1
:1004500013F4006319D0EFF30983A3F1200282F3B0
:10046000098810494FF080708A6943F8040CD07FE6
:1004700009689268896858B1914294BF00220122AC
:1004800062B1094A43F8082C704783F3118870471A
:10049000914234BF00220122002AF2D1034A43F8DC
:1004A000082C7047080A0020D1030008D403000874
:1004B00008B5202383F3118800F0A2F8002383F30A
:1004C0001188BDE80840FFF7BBBF00BFAFF3008055
:1004D0002DE9F04FC1F80CD0D0F80CD0BDE8F08F6A
:1004E000002383F311882846A04700F049FB70479A
:1004F000F0B44FF461438408CEF20003C03400F03E
:10050000030553F82470ED00FF264209AE4027EAA8
:10051000060611FA05F500F01F0002F1600701213F
:1005200011FA00F02E4343F8246043F8270043F803
:100530002200F0BC704700BFAFF30080AFF3008033
:1005400082084FF46D43CEF20003063200F0030040
:1005500030B4C00053F82250FF24844025EA04043C
:1005600011FA00F0044343F8224030BC704700BF4A
:10057000024B034A9B699A61FEE700BF080A00200C
:1005800010700008AFF30080AFF30080AFF300807D
:1005900010B582B0FFF734FF00F0FAF800F060F811
:1005A00001F036FB01F07CFB40F6F0004021C2F286
:1005B000000000F0D5F940F60821C2F20001012246
:1005C00088610277002383F3118862B689691C462B
:1005D00047F22003C0F600038B6140F6381040F26A
:1005E0007153C021C0F60003C2F20000009400F075
:1005F00017FA02B010BD00BFAFF30080AFF3008068
:1006000038B5134B9B69DA7F0AB1013ADA771A6A77
:10061000104C01321A62E36821680133A142E360A1
:1006200014D08D68013D8D6085B90B68CA685C6027
:100630002360CD60002383F311880869904720234D
:1006400083F3118821688B68002BEED038BD00BF82
:10065000080A0020F8090020AFF30080AFF3008003
:1006600040F6F813C2F200034FF0FF329A60002206
:100670005B601B60DA607047AFF30080AFF300800F
:1006800070B40D4D03612C68C260A668B14204D9F4
:100690002468891BA6688E42FAD363688160AC42E5
:1006A00043600460186018BFA36860601CBFC1EBA2
:1006B0000301A16070BC7047F8090020AFF300800F
:1006C0000368074A93421FBF996882688A189A6034
:1006D0004268136003685A600023C360704700BF1C
:1006E000F8090020AFF30080AFF30080AFF3008083
:1006F0000B4A81420346D26809D8824234BF0023A4
:1007000001238A422CBF184643F0010070478A42F9
:100710002CBF002001209A4238BF0020704700BF44
:10072000F8090020AFF30080AFF30080AFF3008042
:10073000202383F31188037F0D2B11D8DFE803F00A
:1007400020101007100B101010101010100B436A1F
:100750009A6801329A6090E80C001A60026853604F
:100760004FF0FF3242628168074B002202771B681C
:100770009A688A42FBD25A680360426010605860EF
:10078000002383F311887047080A0020AFF300802C
:1007900040F60823C2F2000300225B601B609A60EF
:1007A0005B611B61704700BFAFF30080AFF3008057
:1007B00000228168054B02771B689A688A42FBD247
:1007C0005A6803604260106058607047080A002051
:1007D00040F60823C2F2000310B499691A6808773A
:1007E00014201468C87701201077104663601C60DD
:1007F0009A6110BCFFF76CBEAFF30080AFF30080CE
:1008000030B54B1C87B0054611D00B4C0B4AA36981
:1008100001A8FFF735FF2846FFF7DAFF049B13B165
:1008200001A8FFF74DFFA369586A07B030BDFFF775
:10083000CFFF014CF7E700BF080A0020310700088E
:1008400030B4144C8568A2690346906859628542A9
:100850000CD800221A772468A2689542FBD96268F6
:100860001C605A601360636030BC704700211177D0
:10087000214609688D68A842FBD94868116050601C
:100880004A6001210260197718461146A36130BC05
:10089000FFF71EBE080A0020AFF30080AFF3008010
:1008A0000E4B18689969026830B453608C681A60FE
:1008B000986114230125CB77002305770B77034636
:1008C00000E01B689A68A242FBD25A680B604A603B
:1008D0001160596030BCFFF7FBBD00BF080A002063
:1008E0000D4B18689969026830B453608C681A60BF
:1008F00001259861002305770B77034600E01B680C
:100900009A68A242FBD85A680B604A60116059602D
:1009100030BCFFF7DDBD00BF080A0020AFF3008048
:10092000044B1A689B6992689B689A4200D870478A
:10093000FFF7D6BF080A0020AFF30080AFF30080B6
:10094000034B9B69DB7F0BB1FFF7CABFFFF7A8BF63
:10095000080A0020AFF30080AFF30080AFF30080FF
:10096000F0B440F60824C2F2000400226569016474
:10097000046100F12C06816000F1280745614FF009
:10098000020C60610121142480F81CC04277C477F6
:10099000C263826302628177826128618762066333
:1009A000C662F0BC704700BFAFF30080AFF30080B9
:1009B0002DE9F00340F60825C2F20005A1F1240C50
:1009C00000EB0C076969C76040F80C30069B7B6040
:1009D00040F2E143C0F600033B6202230377142395
:1009E0000026904600F1280900F12C02C37701236C
:1009F0000561C0F808804161044668614677C0F827
:100A00004080C66386630662837786610861C0F8AA
:100A100028900263C262BDE8F0037047AFF3008024
:100A200010B51C4682B0202383F311882346049C12
:100A30000094FFF7BDFF00210446FFF701FF0023EC
:100A400083F31188204602B010BD00BFAFF30080D1
:100A500010B5202383F31188084B9B691C6C9A689E
:100A6000944201D0824200D298601864FFF758FF88
:100A7000002383F31188204610BD00BF080A002020
:100A800010B52023044683F311880021FFF7D8FE18
:100A9000002383F31188204610BD00BFAFF3008010
:100AA000202383F31188437F43F00403437700231B
:100AB00083F31188704700BFAFF30080AFF300806D
:100AC00008B50146202383F311880620FFF798FE1E
:100AD000002383F3118808BDAFF30080AFF30080DB
:100AE00008B5202383F31188054BD968411A02D039
:100AF0000620FFF785FE002383F3118808BD00BFA1
:100B0000F8090020AFF30080AFF30080AFF300805E
:100B100008B5202383F31188064B1A689B699268F5
:100B20009B689A4201D3FFF7BBFE002383F3118831
:100B300008BD00BF080A0020AFF30080AFF30080BB
:100B400038B50E4B9C692546606255F8280FA842BF
:100B500006D00368A362FFF72BFEA06AA842F8D173
:100B6000637F9B0701BF226963691A61226908BF1D
:100B700053610E20BDE83840FFF72ABE080A002066
:100B8000202383F31188FFF7DBBF00BFAFF30080A2
:100B900038B50446202383F31188037F0E2B07D03A
:100BA000084B826A9B6907201A60A362FFF710FE58
:100BB000656A002383F31188204600F019F828465F
:100BC00038BD00BF080A0020AFF30080AFF30080FB
:100BD000202383F31188837F01338377002383F3FA
:100BE00011887047AFF30080AFF30080AFF300804F
:100BF0000146202383F31188827F013AD2B28277A3
:100C0000002383F3118812B9037F0E2B00D07047A5
:100C1000437F03F00303012B09D0022BF7D1436973
:100C20000269406C1A610A69536101F049B943696C
:100C300002691A610269536101F09AB8AFF300804A
:100C400070B582B00C4615461E4601F049F8A8B1B1
:100C5000202383F311882146069C33462A460094BC
:100C6000FFF7A6FE0123437700210446FFF7E8FDC6
:100C7000002383F31188204602B070BD0446FAE7D2
:100C8000F0B583B004460D4616461F4601F000F944
:100C9000A8B1202383F31188616800972A46334660
:100CA000FFF786FE02234377446400210546FFF7E1
:100CB000C7FD002383F31188284603B0F0BD054625
:100CC000FAE700BFAFF30080AFF30080AFF300801E
:100CD000202383F3118840F60822C2F20002002389
:100CE0001069827F0132827783F31188704700BFD9
:100CF00010B5202383F31188074B04699C4209D067
:100D0000A37F0133A377002383F31188FFF770FFDC
:100D1000204610BD0024F6E7080A0020AFF300804B
:100D20004060006081607047AFF30080AFF30080E7
:100D300070B5856881600135002D04460BDC6FF0CD
:100D400001066068436863601C60FFF731FD013590
:100D5000012D4662F5D170BDAFF30080AFF3008086
:100D600008B5202383F31188FFF7E2FFFFF7D8FDD2
:100D7000002383F3118808BDAFF30080AFF3008038
:100D80008268013A002A10B50346826001DB002028
:100D900010BD074CA2695062416810605160032089
:100DA0005A600A60FFF714FDA369586A10BD00BFBE
:100DB000080A0020AFF30080AFF30080AFF300809B
:100DC00008B5202383F31188FFF7DAFF002383F3AC
:100DD000118808BDAFF30080AFF30080AFF300804F
:100DE00003468068421E002A10B40C469A6002DB5B
:100DF000002010BC704759B1074A926953625C6881
:100E0000032082E818005A60226010BCFFF7F8BC8B
:100E100098604FF0FF30ECE7080A0020AFF3008045
:100E200008B5202383F31188FFF7DAFF002383F34B
:100E3000118808BDAFF30080AFF30080AFF30080EE
:100E400008B50246202383F3118883680133002B01
:100E5000836003DD002383F3118808BD0068036805
:100E6000002113605A60FFF7EBFCF3E7AFF300805B
:100E700082680132002A0346826000DD7047026802
:100E8000116801604B60104600235362FFF790BC6D
:100E900070B50D1E044611DD002601E0013D0DD0A8
:100EA000A3680133002BA360F8DC2068036823608B
:100EB0005C60FFF77DFC013D4662F1D170BD00BF73
:100EC00010B5024682B0202383F311888368013372
:100ED000002B836019DD8B68013B002B8B6007DBE7
:100EE000FFF71EFD0020002383F3118802B010BD20
:100EF0000B4A4B689469032084E80A004C601C602C
:100F00006162FFF765FC606AEDE7006803681360E3
:100F10005A600191FFF74CFC002343620199DAE724
:100F2000080A0020AFF30080AFF30080AFF3008029
:100F30000023406000608360704700BFAFF3008013
:100F4000F8B505462E4B80689C69002850D0A268F1
:100F500083689A4206D9037F8260042B30D0052B28
:100F60001BD093B12B461B689D4203D09968A268A1
:100F70009142F8D25A6823600420626014605C6079
:100F80006562BDE8F840FFF723BC90E80C001A60EA
:100F900002685360FFF70CFCE4E741680368466AA7
:100FA0000B600768334679601B689E4202D09968DF
:100FB0009142F9D25A680360426010605860D1E7EC
:100FC00041680368466A0B600768334679601B68AE
:100FD0009E4212D099689142F9D25A6803604260E9
:100FE00010605860B068A26883689342B3D3B9E7D1
:100FF000E36BAC60EB60E563F8BD3346EDE700BF43
:10100000080A0020AFF30080AFF30080AFF3008048
:1010100008B5202383F31188FFF792FF002383F3A1
:10102000118808BDAFF30080AFF30080AFF30080FC
:101030000246202383F31188836800201BB100231C
:1010400083F311887047044B9B69D96B9360D1601F
:101050000120DA63F3E700BF080A0020AFF3008045
:10106000154AF8B59269202383F31188D46B23685D
:10107000E168A342D1631CD0176C49B1086888426B
:1010800003D08068874238BF0746C9680029F5D178
:101090001D68DE6B97601846256000216C60A360B8
:1010A000E660DC63FFF7CCFB002383F31188204666
:1010B000F8BD0023A360F7E7080A0020AFF3008023
:1010C000124B996970B5CC6B2368E268A342CA637E
:1010D00018D00E6C4AB11068904203D080688642E6
:1010E00038BF0646D268002AF5D11A68DD6B8E60DB
:1010F000184622605460A360E560DC63FFF758FB8C
:10110000204670BD0023A360204670BD080A002061
:10111000124A70B52023946983F31188E36BC3B13D
:1011200000251A68D9689A42E16308BF9D6009D01A
:101130001168D66B196010464B609A60DE60D3630D
:10114000FFF736FBE36B002BEBD1236CA360FFF7BB
:10115000E7FB002383F3118870BD00BF080A00205D
:1011600040600060704700BFAFF30080AFF30080C5
:1011700008B50246202383F311880068904205D009
:101180000368002113605A60FFF75AFB002383F3C2
:10119000118808BDAFF30080AFF30080AFF300808B
:1011A00008B503460068984206D002681A6053608A
:1011B000FFF7FEFA0023436208BD00BFAFF30080D3
:1011C00038B504460068A0420AD06FF001050368F4
:1011D00023605C60FFF7ECFA45622068A042F6D11C
:1011E00038BD00BFAFF30080AFF30080AFF30080E5
:1011F00008B5202383F31188FFF7E2FFFFF790FB88
:10120000002383F3118808BDAFF30080AFF30080A3
:10121000104B70B505469C69FFF752FF65620646A4
:101220002B462A4603E09068A168884210D31268D2
:101230009542F8D15A682360626014605C600520B2
:10124000FFF7C6FA646A3046FFF77AFE204670BDA3
:101250001346EFE7080A0020AFF30080AFF30080E9
:1012600008B5202383F31188FFF7D2FF002383F30F
:10127000118808BDAFF30080AFF30080AFF30080AA
:10128000F8B504460E46FFF71BFF104B054698695C
:1012900027464462234603E099688268914213D34B
:1012A0001B689C42F8D17B680760436018607860D7
:1012B00031460520FFF7A4FA431C044602D0284615
:1012C000FFF73EFE2046F8BD1F46ECE7080A002067
:1012D00008B5202383F31188FFF7D2FF002383F39F
:1012E000118808BDAFF30080AFF30080AFF300803A
:1012F00030B4202383F3118840F60823C2F20003A0
:1013000004689D690C600024016023464D608A607A
:10131000CC6083F3118830BC704700BFAFF300800E
:10132000202383F31188024602E0994207D01A462F
:1013300013688342F9D1002383F3118870470B6847
:101340001360F8E7AFF30080AFF30080AFF30080E5
:1013500010B4202383F3118840F60822C2F2000261
:10136000002391698A6B22EA00048C6383F311885D
:10137000104010BC704700BFAFF30080AFF3008097
:10138000202383F3118840F60822C2F200020023D2
:101390009269916B0843906383F31188704700BF93
:1013A00008B5826B037F0A43082B82630BD0092B9D
:1013B00000D008BD436A1A409342FAD1FFF7F8F90A
:1013C0000023436208BD436A1A42F7D108BD00BF3B
:1013D00008B5202383F31188FFF7E2FFFFF7A0FA97
:1013E000002383F3118808BDAFF30080AFF30080C2
:1013F00070B50468A04205460E4608D0201D0BC8F3
:101400003343E360FFF7CCFF2468A542F6D170BDFB
:1014100008B5202383F31188FFF7EAFFFFF780FA6E
:10142000002383F3118808BDAFF30080AFF3008081
:10143000F8B50D46074689B10024012601E00134C4
:1014400065B116FA04F32B42F9D057F82420204650
:1014500025EA030501349047002DF2D1F8BD00BF05
:1014600038B50D4B05469C69202383F31188A36B87
:1014700010EA030206D160620820FFF7A9F9A36B06
:1014800005EA03025042104023EA0003A36300234D
:1014900083F3118838BD00BF080A0020AFF3008035
:1014A00038B50B4B05469C69202383F31188A36B49
:1014B000184006D108206562FFF78AF9A36B05EA98
:1014C000030023EA0003A363002383F3118838BDDC
:1014D000080A0020AFF30080AFF30080AFF3008074
:1014E00038B50C4B04469D69202383F31188AB6B00
:1014F00000EA0302824204D068620920FFF768F91B
:10150000AB6B23EA0403AB63002383F3118820460B
:1015100038BD00BF080A0020AFF30080AFF30080A1
:10152000114B70B59E690546202383F31188B36B78
:1015300010EA03040ED121B9234683F31188204613
:1015400070BD70620820FFF75BF90028F4DBB36B15
:1015500005EA03046242144023EA0403B363002350
:1015600083F31188204670BD080A0020AFF3008085
:10157000104B70B59E690446202383F31188B36B2A
:1015800010EA03050ED121B92B4683F311882846B2
:1015900070BD70620820FFF733F90028F4DBB36BED
:1015A00004EA030523EA0503B363002383F31188E8
:1015B000284670BD080A0020AFF30080AFF300801A
:1015C00038B5134B04469D69202383F31188AB6B18
:1015D0001840A0420ED029B90B4683F311880C465F
:1015E000204638BD09206C62FFF70AF90028A8BF21
:1015F000AB6B07DB23EA0403AB63002383F311889F
:10160000204638BD002383F311881C46F8E700BF4D
:10161000080A0020AFF30080AFF30080AFF3008032
:1016200070B50E4B9C69202383F3118800F12C05C3
:101630006562067F036B25600C2E61636360046343
:101640001C6007D00A20FFF7C3F8606A002383F309
:10165000118870BDFFF7ACF8F4E700BF080A00205E
:1016600010B5202383F311880B4CA3691A4652F856
:101670002C0F904208D00168D9624A600B22027791
:10168000002383F3118810BD0C20FFF7A1F8A36994
:101690001A4652F82C0FEEE7080A0020AFF300803C
:1016A00008B5202383F31188FFF7CAF8002383F3DA
:1016B000118808BDAFF30080AFF30080AFF3008066
:1016C00038B504460B4601EB820500F11C001146BB
:1016D000E360A36084E82800FFF722FB04F1100018
:1016E0000021BDE83840FFF71BBB00BFAFF300800F
:1016F00010B52023044683F3118803684168C36052
:10170000C91AA360891000F11C00FFF711FB04F156
:1017100010000021FFF70CFBFFF702F9002383F311
:10172000118810BDAFF30080AFF30080AFF30080ED
:1017300070B504460D4600F11C001146FFF750FB42
:10174000064678B9A368626843F8045B9342A360D5
:1017500028BF236804F1100028BFA360FFF788FBAF
:10176000FFF7DEF8304670BDAFF30080AFF30080C6
:1017700008B5202383F31188FFF7DAFF002383F3F2
:10178000118808BDAFF30080AFF30080AFF3008095
:10179000436A002B10B510DD82684468013B436248
:1017A00042F8041BA24228BF0368826028BF8360FE
:1017B0001030FFF75DFB002010BD4FF0FF3010BD73
:1017C00070B504460D4600F11C001146FFF708FBFA
:1017D000064660B9E3682268043B9342E36008D39D
:1017E00004F110001D60FFF743FBFFF799F8304646
:1017F00070BD6368043BE360F2E700BFAFF30080B5
:1018000008B5202383F31188FFF7DAFF002383F361
:10181000118808BDAFF30080AFF30080AFF3008004
:10182000436A002B10B510DDC2680468043A013B1E
:10183000A2424362C26002D24268043AC2601030DF
:101840001160FFF715FB002010BD4FF0FF3010BDF9
:1018500070B504460D4600F110001146FFF7C0FABE
:10186000064680B9E368626853F8041B9342296016
:10187000E36028BF236804F11C0028BFE360FFF782
:10188000F7FAFFF74DF8304670BD00BFAFF30080A8
:1018900008B5202383F31188FFF7DAFF002383F3D1
:1018A000118808BDAFF30080AFF30080AFF3008074
:1018B0008369002B10B511DDC2684468013B836168
:1018C00052F8043BA2420B6028BF0368C26028BFE5
:1018D000C3601C30FFF7CCFA002010BD4FF0FF3082
:1018E00010BD00BFAFF30080AFF30080AFF3008006
:1018F00010B4024659B1084B9B69586244680D20E8
:1019000083E814005360236010BCFEF779BF4FF0EA
:10191000FF3010BC704700BF080A0020AFF3008002
:1019200010B4C361019B40608A1800240060846089
:1019300041618161C1600261036210BC704700BFF8
:1019400038B50446C36800686361A3610023A04200
:10195000A3600AD06FF00105036823605C60FEF7A6
:1019600027FF456220688442F6D138BDAFF300807E
:10197000426908B503468069824298681AD00130EE
:10198000986002F8011B19695A618A420BD21868E3
:1019900098420DD002681A605360FEF709FF0023D9
:1019A0004362184608BD1868DA6898425A61F1D156
:1019B000002008BD0028E2D06FF0030008BD00BF82
:1019C00070B5202304460D4683F31188C36903B123
:1019D0009847A668204629463EB9FFF789FF0028A8
:1019E000F7DA334683F3118870BDA3692269013E9B
:1019F000A66013F8010B9342A36124BFE368A361BF
:101A0000002383F3118870BDAFF30080AFF3008033
:101A10002DE9F0471D4604460E469146D0F81C803D
:101A2000202383F311880027B8F1000F01D020464E
:101A3000C047D4F808A020462946BAF1000F09D1C2
:101A4000FFF756FF0028F4D0534683F31188384639
:101A5000BDE8F087A3690AF1FF32A26013F8012BF9
:101A6000F2552269A361934224BFE368A361002376
:101A700083F311880137B945E9D0202383F3118816
:101A8000D2E700BFAFF30080AFF30080AFF3008078
:101A900010B4C361019B40608C180060826041619A
:101AA0008161C1600461036210BC7047AFF30080C4
:101AB00038B50269C368044600686361D21AA0425F
:101AC000A361A2600AD06FF00105036823605C6027
:101AD000FEF76EFE456220688442F6D138BD00BF35
:101AE000F8B504460D461646202383F31188A768EF
:101AF000204631463FB9FFF7FBFE0028F7DA3B46A8
:101B000083F31188F8BD6369013FA76003F8015BA7
:101B100022696361934224BFE3686361E3690BB1A7
:101B200020469847002383F311881846F8BD00BF6C
:101B300041698269914210B50346816816D001312E
:101B4000996012F8014B19699A618A420BD21868A0
:101B5000984206D002681A605360FEF729FE0023FF
:101B60004362204610BDDA689A61F0E70029E6D0AA
:101B70006FF0020010BD00BFAFF30080AFF3008034
:101B80002DE9F0471E4604460D461746D0F81C9036
:101B9000202383F311884FF00008D4F808A02046D2
:101BA0000AF1FF33BAF1000F21D0A3602A786369EC
:101BB00003F8012B22696361934224BFE3686361E8
:101BC000B9F1000F00D0C847002383F31188013F0B
:101BD00008F1010814D00135202383F31188D4F8CB
:101BE00008A020460AF1FF33BAF1000FDDD12046EC
:101BF0003146FFF77DFE0028CFD0534683F311888E
:101C00004046BDE8F08700BFAFF30080AFF300802F
:101C100040F6282240F624234CF200010648C2F286
:101C20000002C2F20003C2F2010120F0070021F01D
:101C300007011060196070471F140020AFF3008087
:101C4000202383F31188094B09491A680968073072
:101C500020F00700891A88429ABF101818600022E5
:101C6000002383F311881046704700BF280A002024
:101C7000240A0020AFF30080AFF30080AFF30080B0
:101C800040F6242240F62823C2F20002C2F20003EA
:101C900010681B68C01A7047AFF30080AFF3008074
:101CA00040F63023C2F2000341F641410022C0F663
:101CB000000103F1100019609A60DA60FFF738B98B
:101CC000002303608160C360083A10300B604A60F3
:101CD000FFF72EB9AFF30080AFF30080AFF30080C1
:101CE000F8B5204C002818BF0446073104F1100055
:101CF00021F0070604F10805FFF78AF900E01D4608
:101D00002B68F3B15A689642F9D806F108018A4265
:101D100014D34FF6F870CFF6FF705F18D3F800E0D9
:101D2000801B821843F801E07A602F605E601D46D8
:101D300045F8084BFFF794F92846F8BD1A682A6061
:101D4000F5E7FFF78DF92568002DF5D006F10800BD
:101D5000A84705460028EFD0083580E850002846FF
:101D6000F8BD00BF300A0020AFF30080AFF3008061
:101D700070B50646A0F1080450F8080C00F10805FB
:101D80001030FFF745F92B46591B4A4242EB01023E
:101D90009C4288BF42F001022AB11A682AB19442DB
:101DA00003D31346F0E71B68EEE756F8041C46F829
:101DB000082C1C6001F1080256F8085CA018A84223
:101DC00009D05A6802F1080159188C4211D0BDE8B7
:101DD0007040FFF745B94068A2580918083146F825
:101DE000041C46F8082C5A6802F1080159188C4264
:101DF000EDD156F8040C56F8081C1218083283E886
:101E00000600E4E7AFF30080AFF30080AFF300809B
:101E100038B50D4C002818BF044604F110000D46DB
:101E2000FFF7F6F8A3681A461C463BB10022144699
:101E300059681B6852180134002BF9D105B12A608A
:101E4000FFF70EF9204638BD300A0020AFF30080BE
:101E50000023036041608260704700BFAFF30080E1
:101E600010B462B1202383F31188046800230C604E
:101E7000016083F311884368013A1944F2D110BC20
:101E8000704700BFAFF30080AFF30080AFF3008076
:101E900008B50246202383F31188006828B103683F
:101EA0001360002383F3118808BD9368002BF8D0DA
:101EB00050689847F5E700BFAFF30080AFF30080AC
:101EC000202383F31188026800230A60016083F3F2
:101ED00011887047AFF30080AFF30080AFF300804C
:101EE00041F24503C2F2000301221A70704700BF9D
:101EF00038B5084D4C24286803682D219B68984705
:101F0000013CF8D1034B04491868036802221B689E
:101F1000984738BD7810002060700008AFF300804B
:101F200070B584B0002823D04CF6CD426D466C4687
:101F3000CCF6CC42A2FB0013DB0803EB8301A0EB41
:101F400041013031C9B2184604F8011B002BF1D110
:101F5000AC420BD90A4E013502E014F8021C013CD8
:101F6000306803689B689847AC42F6D104B070BDF6
:101F7000034B1868036830219B689847F6E700BF59
:101F800078100020AFF30080AFF30080AFF3008043
:101F900038B5017849B1054D0446286803689B6847
:101FA000984714F8011F0029F7D138BD7810002098
:101FB00008B5FFF7EDFF41F27803C2F2000347F2E4
:101FC000600118680368C0F600011B680222984788
:101FD00008BD00BFAFF30080AFF30080AFF3008017
:101FE000202383F3118841F24802C2F20002002349
:101FF000116801F8010B116083F31188704700BF6D
:1020000041B9054A01231370044A1370044A106051
:102010001846704700207047441000204C100020E4
:1020200040100020AFF30080AFF30080AFF30080DA
:10203000F0B40F4A0F4C1368254604E011F8017BF9
:102040003678BE4209D1AB422E4605F10105F5D8DE
:102050000B7813B91460184607E0074A0123137080
:10206000064A1370064A10601846F0BC704700BF5D
:10207000481000207C100020441000204C1000204C
:1020800040100020AFF30080AFF30080AFF300807A
:1020900010B5044608461146FEF72AFB38B9054B31
:1020A00001201870044B1870044B1C6010BD0020F8
:1020B00010BD00BF441000204C1000204010002034
:1020C00038B5064C04F1140554F8043F18460BB11A
:1020D000FEF7E6FCAC42F7D138BD00BF601000202F
:1020E00070B5074C002604F1140554F8043B18465B
:1020F0001BB1FEF74DFD44F8046CAC42F5D170BD48
:1021000064100020AFF30080AFF30080AFF30080D5
:10211000154B9A694FF47A7130B401FB00F0136AE1
:1021200044F6D3540138C1F262045D1CA4FB0010D4
:1021300005EB90108342116A0AD281422CBF002421
:102140000124994238BF0024002CF3D130BC7047E1
:10215000994234BF00240124814238BF44F0010475
:10216000002CE7D1F2E700BF080A0020AFF300809F
:1021700008B50120FEF7A4FC40F6F813C2F20003F4
:10218000D86808BDAFF30080AFF30080AFF30080E4
:1021900041F24503C2F2000310B500241C70202355
:1021A00083F311884FF47A7101FB00F144F6D353A5
:1021B0000139C1F26203A3FB0121890941F25000F8
:1021C00041F6E1622346C2F200000131C0F600028E
:1021D000FEF756FA234683F3118810BDAFF3008053
:1021E0002DE9F04F694EDFF838B2306083B06848AF
:1021F000684DDFF81492684FFFF7DAFE6748FFF783
:10220000D7FE6748FFF7D4FE6648FFF7C1FE664871
:10221000FFF7CEFE6548FFF7BBFE6548FFF7C8FE37
:102220006448FFF7B5FE6448FFF7C2FE6348FFF756
:10223000AFFE6348FFF7BCFE6248FFF7A9FE6248A5
:10224000FFF7B6FE6148FFF7A3FE6148FFF7B0FE57
:102250006048FFF79DFE6048FFF7AAFE5F48FFF762
:1022600097FE5F48FFF7A4FE4948FFF7A1FE41F241
:102270004C02C2F200024FF0000A82F800A00AF1FC
:10228000010A4FF0000857F8043B002B59D0FFF724
:102290002FFE5448544CFFF77BFE5046FFF740FE9C
:1022A00008F101085148FFF773FE4046FFF738FE7A
:1022B0004F48FFF76DFE57F8043C1868FFF768FEBB
:1022C0004C48FFF775FEC820FEF7FAFB4A4A57F85C
:1022D000043CC5F800900021116051609160D1600C
:1022E00011615A68217012B101939047019BDA681D
:1022F00001939047019B9B6803B19847FFF7F0FE5D
:102300002378002B3AD03D48FFF742FE3C4B18683B
:10231000FFF706FE3B48FFF73BFE2B684B4509D90C
:10232000394C306814F8011B03689B6898472B6888
:10233000A342F6D83548FFF73BFE57F8043B002B85
:10234000A5D15BF8047F002F99D1FFF7D1FD10488C
:10235000FFF72EFE2E48FFF71BFE41F24C02C2F2A1
:102360000002137873B92B48FFF722FE41F24C03A9
:10237000C2F20003187803B0BDE8F08F2648FFF7DB
:1023800017FE80E72548FFF713FEEFE778100020DF
:10239000587A000848100020B072000864700008E5
:1023A000807000088470000898700008A070000811
:1023B000B4700008CC700008E070000800710008DC
:1023C0001471000820710008347100084071000881
:1023D000547100086C710008807100089C7100083D
:1023E000B0710008D871000844100020E87100089E
:1023F000EC710008F071000864100020F47100080E
:10240000401000200C7200087C10002010720008A0
:102410002872000820720008147200083872000840
:1024200040720008AFF30080AFF30080AFF300808C
:10243000F8B5504EB3699C68651C2846FEF708FB4A
:10244000021B514241EB020107460120FFF7D8FD74
:1024500000B1F8BDB36999686B1A0220594241EB8B
:102460000301FFF7CDFD0028F3D13846FEF7F0FA5F
:10247000C0EB050CDCF1000141EB0C010320FFF780
:10248000BFFD0028E5D1B3699968C4EB010E0420B3
:10249000DEF1000141EB0E01FFF7B2FD0028D8D1BB
:1024A000202383F31188B3699A6802329A60034645
:1024B00083F31188B3699968A71CCA1B0520514290
:1024C00041EB0201FFF79CFD0028C2D12846FEF730
:1024D000BFFA031B594241EB03010620FFF790FDB1
:1024E0000028B6D1B3699968C1EB070C0720DCF16D
:1024F000000141EB0C01FFF783FD0028A9D1B3696E
:10250000196CC1EB050E0820DEF1000141EB0E0154
:10251000FFF776FD00289CD1E71C3846FEF798FAB5
:10252000281A414241EB00010920FFF769FD00280C
:102530008FD1B36999687A1A0A20514241EB02019E
:10254000FFF75EFD002884D1B369196C7B1A0B205C
:10255000594241EB0301FFF753FD00287FF479AFA7
:10256000202383F31188B26903469460146483F3D3
:1025700011886EE7080A0020AFF30080AFF30080F7
:10258000F0B540F60827C2F2000747F24006BB69E3
:10259000C0F600069A68706842F2617583B0C0F6B2
:1025A000000547F2D024043A2B464FF49871C0F648
:1025B00000040094FEF734FABB6931689A6841F26E
:1025C0006404C2F2000447F2E42E6060053A2B4630
:1025D000C0F6000E08464FF49871CDF800E0FEF703
:1025E0001FFABB6931699A68206047F2D42E013A1C
:1025F0002B46C0F6000E08464FF49871CDF800E067
:10260000FEF70EFABB69F1689A68206147F2D82E8E
:102610002B46C0F6000E0846023A4FF49871CDF8EA
:1026200000E0FEF7FDF92023E06083F31188BB6929
:10263000B0689A682B4647F2DC254FF49871033A4C
:10264000C0F600050095FEF7B3F9A060002383F300
:102650001188A068FEF714FAFFF742FD47F2E02167
:102660000120C0F6000103B0BDE8F040FFF7E0BC78
:10267000F0B540F60827C2F2000747F24006BB69F2
:10268000C0F600069A68306842F2617583B0C0F601
:10269000000547F2E424053A2B464FF49871C0F642
:1026A00000040094FEF7BCF941F26404BB69D6F85B
:1026B00004E09A68C2F20004043A2060704647F2CF
:1026C000D02E2B46C0F6000E4FF49871CDF800E0E6
:1026D000FEF7A6F9BB69D6F808E09A686060704614
:1026E00047F2DC2E033A2B46C0F6000E4FF49871E9
:1026F000CDF800E0FEF794F9BB69D6F80CE09A68D3
:10270000A060704647F2D82EC0F6000E023A2B4663
:102710004FF49871CDF800E0FEF782F9BB69366995
:102720009A68E0602B4647F2D4254FF49871013A3D
:102730003046C0F600050095FEF772F92061FFF7FC
:10274000CFFC47F2E0210120C0F6000103B0BDE854
:10275000F040FFF76DBC00BFAFF30080AFF3008027
:1027600008B50078FFF73CFC002008BDAFF30080FF
:1027700038B51C4CFFF7FCFCE5686420FEF7A0F9B7
:10278000012005F1640105F16502FFF781FC00B14C
:1027900038BDE5686420FEF793F9022005F1640175
:1027A00005F16502FFF774FC0028F1D1E5684FF4EC
:1027B0007A70FEF785F9032005F57A7105F2E932A2
:1027C000FFF766FC0028E3D1E46804F164052846BD
:1027D000FEF786F90420294604F16502BDE8384079
:1027E000FFF756BCF8090020AFF30080AFF300807C
:1027F00040F60000C2F200000021FEF791BA00BFCF
:1028000040F60000C2F200000021FEF789BA00BFC6
:1028100040F60000C2F200000021FEF781BA00BFBE
:1028200000B587B0002103A8FEF77AFA002103A8BB
:10283000FEF796FA059901200029CCBF002101215D
:10284000FFF7DEFB08B107B000BD314B31489B6993
:1028500000689A68304B03A9013A00914FF49871CF
:10286000FEF7DEF82D4B186003A8FEF7A9FA0599CC
:1028700002200029CCBF00210121FFF7C1FB002865
:10288000E1D1202383F31188059B002B3CDDFEF76B
:1028900047F8002383F31188059903209942D4BF98
:1028A00000210121FFF7ACFB0028CCD10599A1F153
:1028B00001020420514241EB0201FFF7A1FB002875
:1028C000C1D1202383F31188059B002B18DDFEF76F
:1028D00027F8002383F31188059903209942D4BF78
:1028E00000210121FFF78CFB0028ACD10599A1F153
:1028F00001030520594241EB0301FFF781FBA2E7E9
:1029000003A8FEF7B5FAE2E703A8FEF7B1FABEE7BF
:10291000080A0020407000082129000864100020E7
:1029200008B5202383F311888368002B06DDFDF7AB
:10293000F7FF002383F31188184608BDFEF798FAC5
:10294000F5E700BFAFF30080AFF30080AFF3008086
:1029500010B540F60004C2F200042046FEF730FA3B
:102960002046FEF76DFA002010BD00BFAFF30080D7
:1029700010B5044640F60000C2F20000FEF720FA4F
:102980002078FFF72DFB002010BD00BFAFF30080C3
:1029900008B53220FEF794F8202383F3118840F61F
:1029A0000000C2F20000FEF763FAFDF7B9FF002352
:1029B00083F31188184608BDAFF30080AFF30080A1
:1029C0002DE9F043434E444CB369D4F800909A6823
:1029D000424F434B434D83B04FF498710532484604
:1029E0000097FEF71DF8B369D4F804E09A682860F0
:1029F0003D483B4B00904FF4987101327046FEF712
:102A00000FF8B369D4F808E09A6868603748344B27
:102A100000904FF4987103327046FEF701F8B369E5
:102A2000D4F80CE09A68A86031482D4B00904FF420
:102A3000987170460432FDF7F3FFB36924699A6810
:102A4000E86020462B4C264B00944FF498710232DC
:102A5000FDF7E6FF284C28612046FEF7F1F92046F5
:102A6000FEF7EEF92046FEF7EBF92046FEF7E8F90F
:102A70002046FEF7E5F9FFF733FB01201F49FFF77A
:102A8000D7FA804610B103B0BDE8F083B269144BA9
:102A90009268009748464FF498710532FDF7C0FFE1
:102AA0002023286083F3118802212046FEF7F0F9E5
:102AB000434683F31188FFF713FBA168A1F1010ED0
:102AC0000220DEF1000141EB0E0103B0BDE8F0434E
:102AD000FFF796BA080A002040700008D472000878
:102AE0007129000864100020D8720008DC72000808
:102AF000D0720008E472000800080020E0720008AC
:102B000030B5234B23489B6900689A68224B234CBD
:102B100083B001324FF4987100250095FDF780FFD6
:102B20001F4B214618602046FEF7CAF92168C4EB06
:102B3000010E0120DEF1000141EB0E01FFF760FA0A
:102B400008B103B030BDA1684A1B0220514241EBDD
:102B50000201FFF755FA0028F3D121462046FEF77F
:102B6000AFF921680B1B0320594241EB0301FFF72A
:102B700047FA0028E5D1A168C5EB010C0420DCF17F
:102B8000000141EB0C0103B0BDE83040FFF738BA5B
:102B9000080A0020407000085129000800080020A1
:102BA00064100020AFF30080AFF30080AFF300802B
:102BB00070B54E4C002182B02046FEF731F9A0F1ED
:102BC000FF3CDCF1000141EB0C010120FFF718FA9A
:102BD00008B102B070BD2168C4EB010E0220DEF125
:102BE000000141EB0E01FFF70BFA0028F1D1A168BB
:102BF0000320D1F1010138BF0021FFF701FA0028BD
:102C0000E7D13B4B9B699A6800903A483A4B006881
:102C1000013A4FF49871FDF703FF384B4FF4FA7106
:102C200018602046FEF7FCF80546FFF759FA042025
:102C3000D5F1010138BF0021FFF7E2F90028C8D122
:102C400021680A1B0520514241EB0201FFF7D8F928
:102C50000028BED1A1680620D1F1010138BF0021B2
:102C6000FFF7CEF90028B4D1FFF782FA244BDE68D3
:102C700041252846FFF7B4F94FF4FA711B48FEF7D7
:102C8000CFF8A0F1FF33594241EB03010720FFF7D2
:102C9000B7F900289DD12168C4EB010C0820DCF1B4
:102CA000000141EB0C01FFF7ABF9002891D1A168BD
:102CB0000920D1F1010138BF0021FFF7A1F9013549
:102CC000EDB2002885D1462DD3D10A200D49FFF75A
:102CD000AFF900287FF47DAF0B2006F6C41106F68D
:102CE000C91202B0BDE87040FFF7D2B90008002059
:102CF000080A002040700008912900086410002094
:102D0000F8090020E0720008AFF30080AFF3008004
:102D100040F60823F0B5C2F2000347F240059B6974
:102D2000C0F600059E68286883B042F6316347F21A
:102D3000D424721C4FF49871C0F60003C0F600044E
:102D40000094FDF76DFE41F26404C2F200046F6866
:102D5000206042F60163384647F2DC27B21C4FF48C
:102D60009871C0F60003C0F600070097FDF758FE03
:102D7000AD68606042F6C153284647F2D8254FF44B
:102D80009871F21CC0F60003C0F600050095FDF72F
:102D900047FE40F62C05C2F20005A0602846FEF76B
:102DA000E7F92846FEF7E4F9FFF79AF947F26041A0
:102DB0000120C0F6000103B0BDE8F040FFF738B9CC
:102DC00010B5044640F61C00C2F20000FEF720F9E0
:102DD0002078FFF705F9FEF743F9002010BD00BF8A
:102DE00010B5044640F60C00C2F20000FEF710F9E0
:102DF0002078FFF7F5F8FEF733F9002010BD00BF8B
:102E000010B5044640F60C00C2F20000FEF700F9CF
:102E100040F62C00C2F20000FEF722FA2078FFF7FD
:102E2000DFF8FEF71DF9002010BD00BFAFF30080F2
:102E300010B5044640F61C00C2F20000FEF7E8F8A8
:102E400040F60C00C2F20000FEF7E2F840F62C005B
:102E50004FF0FF31C2F20000FEF73AFA2078FFF798
:102E6000BFF8FEF7FDF8FEF7FBF8002010BD00BF2D
:102E700040F62C0008B5C2F20000FEF771F940F6EA
:102E80000C00C2F20000FEF753F840F61C00C2F23C
:102E90000000BDE80840FEF74BB800BFAFF300806C
:102EA00008B540F62C00C2F20000FEF759F940F6D2
:102EB0000C00C2F20000BDE80840FEF739B800BFC0
:102EC00008B540F62C00C2F20000FEF749F940F6C2
:102ED0000C00C2F20000BDE80840FEF729B800BFB0
:102EE00040F60C00C2F20000FEF722B8AFF30080FB
:102EF00008B540F60C00C2F20000FEF719F840F6E3
:102F00001C00C2F20000BDE80840FEF711B800BF87
:102F100008B540F60C00C2F20000FEF709F840F6D2
:102F20001C00C2F20000BDE80840FEF701B800BF77
:102F300040F60C00C2F20000FDF7FABFAFF30080CC
:102F400040F60C00C2F20000FDF7F2BFAFF30080C4
:102F500040F60823F0B5C2F2000347F240069B6931
:102F6000C0F600069F68306842F6016583B0C0F67F
:102F7000000547F2E4247A1C2B464FF49871C0F602
:102F800000040094FDF74CFD41F26404C2F2000419
:102F9000D6F804E02060704647F2D02EBA1C2B46CB
:102FA000C0F6000E4FF49871CDF800E0FDF738FD43
:102FB000D6F808E06060704647F2DC2EFA1C2B461B
:102FC000C0F6000E4FF49871CDF800E0FDF728FD33
:102FD000D6F80CE0A060704647F2D82EC0F6000E7E
:102FE0003A1D2B464FF49871CDF800E0FDF718FD1F
:102FF0003669E0602B4647F2D4254FF498717A1D6C
:103000003046C0F600050095FDF70AFD206140F648
:103010002C00C2F20000FEF7EBF8FFF761F847F270
:10302000E0210120C0F6000103B0BDE8F040FEF74A
:10303000FFBF00BFAFF30080AFF30080AFF30080AD
:1030400040F60823F0B5C2F2000347F240069B6940
:10305000C0F600069F68306842F6016583B0C0F68E
:10306000000547F2E4247A1C2B464FF49871C0F611
:1030700000040094FDF7D4FC41F26404C2F20004A1
:103080007168206047F2D02EBA1C2B46C0F6000EA5
:1030900008464FF49871CDF800E0FDF7C1FCB16827
:1030A000606047F2DC2EFA1C2B46C0F6000E084684
:1030B0004FF49871CDF800E0FDF7B2FCF168A06024
:1030C00047F2D82EC0F6000E3A1D2B4608464FF4A4
:1030D0009871CDF800E0FDF7A3FC3269E0602B4663
:1030E00047F2D42510464FF498717A1DC0F60005BA
:1030F0000095FDF795FC2023206183F3118840F6AD
:103100002C04C2F200042046FEF74AF82046FEF7DF
:1031100047F82046FEF744F82046FEF741F82046DF
:10312000FEF73EF8FDF7FCFB002383F31188FEF762
:10313000D7FF47F2E0210120C0F6000103B0BDE84F
:10314000F040FEF775BF00BFAFF30080AFF3008023
:10315000F0B52C4F2C48BB692C4E9C682C4D83B08D
:10316000FDF756FF2B4A30682B4B00924FF49871B5
:10317000621CFDF755FCD6F804E028602748264B72
:103180000090A21C4FF498717046FDF749FCD6F8E8
:1031900008E068602248204B0090E21C4FF49871D0
:1031A0007046FDF73DFCD6F80CE0A8601D481A4BB0
:1031B0000090221D70464FF49871FDF731FC36697E
:1031C000E8603046184E144B00964FF49871621D1B
:1031D000FDF726FC2861FDF743FFFEF781FFBB6981
:1031E00099680B1B0120594241EB0301FEF708FFD0
:1031F00008B103B0F0BD0D49022003B0BDE8F040B6
:10320000FEF716BF080A00200C08002040700008D6
:1032100064100020E4720008E12D0008D07200085C
:10322000DC720008D8720008D4720008E07200084E
:10323000F8B52F4D2F4CAB6920469E68FDF7F8FE80
:1032400001460120FEF7DCFE00B1F8BD2046FDF787
:10325000EFFED0F1010138BF00210220FEF7D0FEC1
:1032600007460028F1D1202383F31188FDF728FFBA
:103270003B4683F311882168C4EB010C0320DCF189
:10328000000141EB0C01FEF7BBFE0028DDD1A16877
:103290000420D1F1010138BF0021FEF7B1FE002862
:1032A000D3D1AB699968C6EB010E0520DEF10001B0
:1032B00041EB0E01FEF7A4FE0028C6D12046FDF723
:1032C000A7FEFDF725FF21680A1B0620514241EBAE
:1032D0000201FEF795FE0028B7D1A1680720D1F1C1
:1032E000010138BF0021BDE8F840FEF789BE00BFEC
:1032F000080A00200C080020AFF30080AFF3008024
:103300002DE9F0478E4D8F4FAB69D7F800A09C6830
:103310008D4A8E4B8E4E82B004F1010800924FF41C
:10332000987142465046FDF77BFBD7F80490306019
:103330008848894B0090A71C4FF498713A4648463C
:10334000FDF76EFB70608548FDF762FEAB6999681A
:103350000A1B0120514241EB0201FEF751FE10B160
:1033600002B0BDE8F0876420FDF7AAFBAB6999685D
:10337000C8EB01030220594241EB0301FEF740FE76
:103380000028EDD17648FDF743FEAB699968C8EB9C
:10339000010C0320DCF1000141EB0C01FEF730FED3
:1033A0000028DDD16420FDF78BFBAB699968C7EB82
:1033B000010E0420DEF1000141EB0E01FEF720FEBC
:1033C0000028CDD1FDF74CFEAB699968C8EB01022E
:1033D0000520514241EB0201FEF712FE0028BFD149
:1033E0006420FDF76DFBAB699968C8EB010306200B
:1033F000594241EB0301FEF703FE0028B0D1FDF76F
:1034000087FEAB699968C4EB010C0720DCF1000171
:1034100041EB0C01FEF7F4FD0028A1D1FEF760FEA0
:10342000504A4A4B00924FF4987142465046FDF77D
:10343000F7FA30604C48484B00904FF498713A4688
:103440004846FDF7EDFA70604448FDF7E1FDAB69D1
:103450009968C4EB010E0820DEF1000141EB0E017A
:10346000FEF7CEFD00287FF47BAF6420FDF728FB3C
:10347000AB699968C8EB01020920514241EB020196
:10348000FEF7BEFD00287FF46BAF3548FDF7C0FDA9
:10349000AB699968C8EB01030A20594241EB03016B
:1034A000FEF7AEFD00287FF45BAF6420FDF708FB5C
:1034B000AB699968C7EB010C0B20DCF1000141EB13
:1034C0000C01FEF79DFD064600287FF449AF20233E
:1034D00083F31188FDF7F4FD334683F31188AB695C
:1034E0009968C8EB010E0C20DEF1000141EB0E01E2
:1034F000FEF786FD00287FF433AF6420FDF7E0FA85
:10350000AB699968C8EB01020D20514241EB020101
:10351000FEF776FD00287FF423AFFDF7F9FDAB69D8
:1035200099680B1B0E20594241EB0301FEF768FD21
:1035300000287FF415AF02B0BDE8F047FEF7D0BD1C
:10354000080A002040700008D87200089135000871
:1035500064100020D4720008713500081C08002097
:103560000C080020D0720008DC720008AFF3008065
:1035700008B59620FDF7A4FA40F60C00C2F2000050
:10358000FDF746FDFDF76CFD002008BDAFF30080A0
:1035900008B53220FDF794FA40F61C00C2F2000094
:1035A000FDF736FDFDF75CFD002008BDAFF30080A0
:1035B0002DE9F0412D4F2E4E2E4C82B0FEF7D8FD56
:1035C000BB692D499A68D1F80C8030682B4B0025D7
:1035D0004FF49871053A0095FDF722FABB69D6F8C9
:1035E00004E09A6820604FF49871043A244B0095E7
:1035F0007046FDF715FABB69D6F808E09A68606076
:103600004FF49871033A1F4B00957046FDF708FA86
:10361000BB69D6F80CE09A68A0604FF498717046C8
:10362000023A194B0095FDF7FBF9BB6936699A68B8
:10363000E0604FF49871013A144B00953046FDF765
:10364000EFF92061FEF74CFD01201149FEF7F0FC77
:1036500010B102B0BDE8F081022008F16E0108F15E
:10366000730202B0BDE8F041FEF712BD080A002067
:103670004070000864100020F8090020213800087C
:10368000D1370008A13700088137000851370008FA
:10369000E0720008AFF30080AFF30080AFF300806A
:1036A0002DE9F041204F214E214C82B0FEF760FD04
:1036B000BB6920499A68D1F80C8030681E4B002500
:1036C0004FF49871013A0095FDF7AAF9BB69D6F855
:1036D00004E09A6820604FF498717046023A174BE4
:1036E0000095FDF79DF9BB69B6689A6860604FF474
:1036F0009871033A124B00953046FDF791F9A0609E
:10370000FEF7EEFC01200F49FEF792FC10B102B06B
:10371000BDE8F081022008F1640108F1690202B0FD
:10372000BDE8F041FEF7B4BC080A00204070000874
:1037300064100020F8090020A13800088138000832
:103740005138000860740008AFF30080AFF30080C8
:1037500008B53220FDF7B4F940F61C00C2F20000B3
:10376000FDF756FC0A20FEF7D3FCFDF779FC41205B
:10377000FEF736FC002008BDAFF30080AFF30080F9
:1037800008B52820FDF79CF91420FEF7C1FC422063
:10379000FEF726FC002008BDAFF30080AFF30080E9
:1037A00008B51420FDF78CF940F61C00C2F20000A9
:1037B000FDF72EFC0A20FEF7ABFCFDF751FC432081
:1037C000FEF70EFC002008BDAFF30080AFF30080D1
:1037D00008B50A20FDF774F940F61C00C2F200009B
:1037E000FDF716FC1420FEF793FC40F60C00C2F225
:1037F0000000FDF70DFC0A20FEF78AFCFDF730FC07
:103800000A20FEF785FCFDF72BFC4420FEF7E8FBC1
:10381000002008BDAFF30080AFF30080AFF300805D
:1038200040F60C0008B5C2F20000FDF7F1FB1E20C7
:10383000FEF76EFCFDF714FC4520FEF7D1FB0020DF
:1038400008BD00BFAFF30080AFF30080AFF300808E
:1038500040F60C0008B5C2F20000FDF7D9FB2820A5
:10386000FEF756FCFDF7FCFB0A20FEF751FC432057
:10387000FEF7B6FB002008BDAFF30080AFF3008079
:1038800008B51420FDF71CF92820FEF741FC422062
:10389000FEF7A6FB002008BDAFF30080AFF3008069
:1038A00008B52820FDF70CF940F60C00C2F2000024
:1038B000FDF7AEFB0A20FEF72BFCFDF7D1FB412004
:1038C000FEF78EFB002008BDAFF30080AFF3008051
:1038D00010B540F60822C2F2000247F24003916997
:1038E000C0F6000382B08A681868009143F661133D
:1038F00001324FF49871C0F60003FDF791F841F2E0
:103900006403C2F200031860FDF7AAFE446B21466F
:10391000FDF7C6FEE0B2FEF763FBFDF7A1FE446BC8
:103920002146FDF7BDFEE0B2FEF75AFBFDF798FE1B
:10393000446B2146FDF7B4FEE0B2FEF751FB47F2BF
:1039400060410120C0F6000102B0BDE81040FEF762
:103950006FBB00BFAFF30080AFF30080AFF3008018
:1039600010B541210446FDF75BFE42212046FDF7DC
:1039700057FE20464321FDF753FE002010BD00BF37
:1039800040F6340040F65021C2F20000C2F20001BD
:103990000522FDF795BE00BFAFF30080AFF30080B6
:1039A000F0B5B84D696AA1F105030120594241EB18
:1039B000030183B0FEF724FB00BB4226B14C314625
:1039C00020464FF0FF32FDF7D3FED0F1010138BFA2
:1039D000002102200136FEF713FB78B9462EEDD107
:1039E000412120464FF0FF32FDF70AFFD0F10101DF
:1039F00038BF00210320FEF703FB08B103B0F0BD80
:103A0000012258212046FDF7B3FEA0F1FF3CDCF176
:103A1000000141EB0C010420FEF7F2FA06460028F3
:103A2000ECD1202383F3118858212046FDF7B0FE06
:103A30003346014683F31188A1F1FF3E0520DEF1F4
:103A4000000141EB0E01FEF7DBFA0028D6D101227E
:103A500058212046FDF7D4FEA0F1FF32514241EB40
:103A600002010620FEF7CCFA06460028C6D1202324
:103A700083F3118858212046FDF7D2FE33460146D4
:103A800083F31188A1F1FF330720594241EB030171
:103A9000FEF7B6FA06460028B0D1202383F311883A
:103AA000616A0820D1F1010138BF0021FEF7A8FAB0
:103AB000074618B1334683F311889FE7034683F323
:103AC0001188202383F31188A169A1F1050C092035
:103AD000DCF1000141EB0C01FEF792FA034618B14C
:103AE0003B4683F3118889E783F31188202383F30E
:103AF0001188E168A368C3EB010E0A20DEF1000122
:103B000041EB0E01FEF77CFA002383F311880028B5
:103B10007FF474AF05265B4C01A94FF0FF322046BD
:103B2000FDF7B6FED0F1010138BF00210B20FEF7F2
:103B300067FA00287FF462AF9DF80400FEF750FAA0
:103B4000013EE8D10C205049FEF772FA00287FF4BC
:103B500055AF472120464FF0FF32FDF709FED0F167
:103B6000010138BF00210D20FEF74AFA00287FF43A
:103B700045AF01A920464FF0FF32FDF789FED0F195
:103B8000010138BF00210E20FEF73AFA00287FF429
:103B900035AF2168A368CA1A0F20514241EB0201D8
:103BA000FEF72EFA00287FF429AF2168E368CB1ACC
:103BB0001020594241EB0301FEF722FA00287FF45E
:103BC0001DAF01A901222046FDF762FEA0F1FF3CD6
:103BD000DCF1000141EB0C011120FEF711FA002885
:103BE0007FF40CAF202383F3118801A92046FDF751
:103BF0005FFE3346014683F31188A1F1FF3E122098
:103C0000DEF1000141EB0E01FEF7FAF900287FF426
:103C1000F5AE202383F31188616AA1F10502132018
:103C2000514241EB0201FEF7EBF9002383F31188C7
:103C300000287FF4E3AE202383F31188A969114C97
:103C40001420D1F1010138BF0021FEF7D9F9054652
:103C500018B1002383F31188D0E6034683F311885B
:103C6000202383F31188E168A368CB1A15205942F9
:103C700041EB0301FEF7C4F9034638B12B4683F349
:103C80001188BBE634080020E072000883F3118835
:103C9000202383F3118841212046FDF779FDD0F1DF
:103CA000010138BF00211620FEF7AAF900287FF491
:103CB000A5AE42212046FDF76BFDD0F1010138BFD2
:103CC00000211720FEF79CF900287FF497AE4321CE
:103CD0002046FDF75DFDD0F1010138BF002118201D
:103CE000FEF78EF900287FF489AE44212046FDF7C7
:103CF0004FFDD0F1010138BF00211920FEF780F9F6
:103D0000054600287FF47AAE45212046FDF740FDA8
:103D10002B46014683F311881A20D1F1010138BFE7
:103D20000021FEF76DF900287FF468AEE168A36812
:103D3000C3EB010C1B20DCF1000141EB0C01FEF791
:103D40005FF900287FF45AAE0525202383F31188FC
:103D5000A44C01A92046FDF7ABFD0023014683F3E7
:103D60001188C3EB010E1C20DEF1000141EB0E01B6
:103D7000FEF746F900287FF441AE9DF80400FEF7F7
:103D80002FF9013DE1D11D209749FEF751F9002897
:103D90007FF434AE202383F31188616AA1F1050218
:103DA0001E20514241EB0201FEF72AF92B4683F314
:103DB000118800287FF422AE202383F31188A169A3
:103DC0001F20D1F1010138BF0021FEF719F92B4660
:103DD00083F3118800287FF411AEE168A368CB1A41
:103DE0002020594241EB0301FEF70AF900287FF435
:103DF00005AE202383F3118845212046FDF710FDF1
:103E0000D0F1010138BF00212120FEF7F9F8002888
:103E10007FF4F4AD44212046FDF702FDD0F101010D
:103E200038BF00212220FEF7EBF800287FF4E6AD32
:103E300043212046FDF7F4FCD0F1010138BF0021F9
:103E40002320FEF7DDF800287FF4D8AD422120467C
:103E5000FDF7E6FCD0F1010138BF00212420FEF778
:103E6000CFF800287FF4CAAD5E4C41212046FDF713
:103E7000D7FC0023014683F31188C3EB010C2520F6
:103E8000DCF1000141EB0C01FEF7BAF800287FF4E9
:103E9000B5ADE168A368C3EB010E2620DEF1000199
:103EA00041EB0E01FEF7ACF800287FF4A7AD052426
:103EB000202383F311884B4D01A92846FDF7F8FC18
:103EC0000023014683F31188CA1A2720514241EB8F
:103ED0000201FEF795F800287FF490AD9DF80400EC
:103EE000FEF77EF8013CE3D128203F49FEF7A0F819
:103EF00000287FF483AD202383F31188696AA1F140
:103F000005032920594241EB0301FEF779F82346C6
:103F100083F3118800287FF471AD202383F3118887
:103F2000A9692A20D1F1010138BF0021FEF768F804
:103F3000234683F3118800287FF460ADE968AB68FD
:103F4000C3EB010C2B20DCF1000141EB0C01FEF76F
:103F500057F800287FF452AD2846FDF7C9FB20230F
:103F600083F31188696AA1F1050E2C20DEF10001AE
:103F700041EB0E01FEF744F8234683F31188002835
:103F80007FF43CAD202383F31188A9692D20D1F162
:103F9000010138BF0021FEF733F8234683F311886F
:103FA00000287FF42BAD202383F311882968AB68A8
:103FB000CA1A2E20514241EB0201FEF721F8234696
:103FC00083F3118800287FF419AD202383F311882F
:103FD0002968EB68CB1A2F20594241EB0301FEF709
:103FE0000FF836E634080020E0720008AFF30080D6
:103FF0004FF0FF30FDF7ACB9AFF30080AFF30080B6
:104000004FF0FF30FDF7A4B9AFF30080AFF30080AD
:104010004FF0FF30FDF79CB9AFF30080AFF30080A5
:1040200040F65C0008B50021C2F20000FDF7F0F98F
:104030003220FCF745FD40F66000C2F2000000218E
:10404000FDF7E6F9002008BDAFF30080AFF3008074
:1040500010B504463220FCF733FD20460121FDF760
:10406000B7F9002010BD00BFAFF30080AFF30080B0
:1040700010B51D4C88B00122204669462460FDF72A
:1040800037F9204604A90222FDF732F92168012000
:10409000091B18BF0121FDF7B3FF08B108B010BD1F
:1040A00020466946FDF73CF921680220091B18BF2C
:1040B0000121FDF7A5FF0028F0D1204604A9FDF756
:1040C0002FF921680B1B0320594241EB0301FDF737
:1040D00097FF0028E2D107210448FDF7A9F9042041
:1040E0000349FDF7A5FFD9E75C080020C07600086A
:1040F00060740008AFF30080AFF30080AFF300807E
:104100004320FDF76DBF00BFAFF30080AFF3008029
:104110004220FDF765BF00BFAFF30080AFF3008022
:104120004120FDF75DBF00BFAFF30080AFF300801B
:10413000002108B54FF0FF30FDF7F2F9D0F1010191
:1041400038BF00210120FDF75BFF00B108BD01462B
:104150004FF0FF30FDF70CFAD0F1010138BF00211C
:104160000220FDF74DFF0028F0D101464FF0FF304F
:10417000FDF726FAD0F1010138BF00210320FDF739
:104180003FFF0028E2D10A214FF0FF30FDF7C8F9C8
:10419000D0F1010138BF00210420FDF731FF0028D4
:1041A000D4D10A214FF0FF30FDF7E2F9D0F101013F
:1041B00038BF00210520FDF723FF0028C6D10A21C2
:1041C0004FF0FF30FDF7FCF9D0F1010138BF0021BD
:1041D0000620BDE80840FDF713BF00BFAFF3008025
:1041E0002DE9F04305208BB0FDF7CAF84FF0FF3002
:1041F000FDF736F9A0F1010EDEF1000141EB0E01F1
:104200000120FDF7FDFE10B10BB0BDE8F0834FF0CB
:10421000FF30FDF725F9A0F10400414241EB000118
:104220000220FDF7EDFE0028EED14FF0FF30FDF744
:104230008FF8D0F1010138BF00210320FDF7E0FE27
:104240000028E1D1764F774E774DFDF791FFB969A0
:10425000764B8A68D3F80080F468754B0091013A78
:104260004FF498714046FCF7DBFB28604FF0FF30BD
:10427000FDF7F6F804F13201814604F1370204201B
:10428000FDF706FF0028BFD1A9F101020520514228
:1042900041EB0201FDF7B4FE0028B5D14FF0FF302D
:1042A000FDF756F8D0F1010138BF00210620FDF7D7
:1042B000A7FE0028A8D1FDF713FF0520FDF760F841
:1042C0004FF0FF30FDF7ECF8A0F10503594241EB48
:1042D00003010720FDF794FE002895D14FF0FF3031
:1042E000FDF736F8D0F1010138BF00210820FDF7B5
:1042F00087FE002888D1FDF73BFFB969F4688A681A
:104300004B4B0091013A4FF498714046FCF788FB03
:1043100028604FF0FF30FDF7C3F804F13201814609
:1043200004F137020920FDF7B3FE00287FF46CAFDB
:10433000A9F1010C0A20DCF1000141EB0C01FDF7B1
:104340005FFE00287FF460AF4FF0FF30FDF700F80C
:10435000D0F1010138BF00210B20FDF751FE0028EC
:104360007FF452AF334CDFF8D890FDF7B9FE20460A
:1043700002A901222460C9F80090FCF7B9FF06A940
:1043800004224846FCF7B4FFFDF7F2FEBB692A4958
:104390009A68F668294B0091013A4FF498714046AB
:1043A000FCF73EFB28600520FDF79AF80C2006F18B
:1043B000320106F13702FDF76BFE00287FF424AFCF
:1043C0004FF0FF30FCF7C4FFD0F1010138BF0021EE
:1043D0000D20FDF715FE00287FF416AFFDF780FED7
:1043E000204602A9FCF79CFF484606A9FCF798FF67
:1043F0002168C4EB010E0E20DEF1000141EB0E013D
:10440000FDF7FEFD00287FF4FFAED9F80010C9EBE0
:1044100001020F20514241EB0201FDF7F1FDF3E6ED
:10442000080A0020F80900206410002040700008ED
:10443000514000085C080020D472000821400008A8
:1044400060080020AFF30080AFF30080AFF300807E
:1044500070B582B0FDF714FC01A90020FDF7D8FC6F
:1044600010210020FDF73CFC011C18BF012104466F
:104470000120FDF7C5FD054608B102B070BD20461C
:10448000FDF776FC6FF0FF012846FDF729FCD0F11F
:10449000010138BF00210220FDF7B2FD0028ECD158
:1044A00001A98148FDF7B4FC10217F48FDF718FCF5
:1044B000102105467C48FDF713FC102104467A487C
:1044C000FDF70EFC06462846FDF752FC2046FDF798
:1044D0004FFC3046FDF74CFC69467348FDF798FCED
:1044E000A0F1010EDEF1000141EB0E010320FDF70A
:1044F00087FD0028C1D110216B48FDF7F1FB102189
:1045000004466948FDF7ECFB102105466648FDF7B7
:10451000E7FBFDF72DFC2846FDF72AFC2046FDF7BA
:1045200027FC69466048FDF773FCA0F10100414299
:1045300041EB00010420FDF763FD00289DD111210E
:104540005948FDF7CDFB102104465748FDF7C8FB3D
:1045500005462046FDF70CFC69465348FDF758FC1C
:10456000A0F10202514241EB02010520FDF748FD96
:10457000002882D110214C48FDF7B2FB6946044661
:104580004948FDF745FC012808BF014608D06946A7
:104590004548FDF73DFCA0F10203594241EB030100
:1045A0000620FDF72DFD00287FF467AF2846FDF7B4
:1045B000DFFB2046FDF7DCFB69463B48FDF728FCA6
:1045C000A0F1010CDCF1000141EB0C010720FDF72B
:1045D00017FD00287FF451AF10213348FDF780FB11
:1045E000102105463048FDF77BFB04462846FDF7C1
:1045F000BFFB69462C48FDF70BFCA0F1020EDEF173
:10460000000141EB0E010820FDF7FAFC00287FF4C1
:1046100034AF20212448FDF763FBFDF7A9FB2046BA
:10462000FDF7A6FB69462048FDF7F2FBA0F101006B
:10463000414241EB00010920FDF7E2FC00287FF434
:104640001CAF69461848FDF7E3FB00991648FDF7D3
:1046500047FB694604461448FDF7DAFBD0F1010137
:1046600038BF00210A20FDF7CBFC00287FF405AFFE
:104670002046FDF77DFB69460B48FDF7C9FBA0F11D
:104680000102514241EB02010B20FDF7B9FC002869
:104690007FF4F3AE9DE80A00CB1A0C20594241EB9F
:1046A0000301FDF7ADFCE8E690100020AFF30080B9
:1046B00041F2900040F65021C2F20000C2F2000127
:1046C0004FF4BE62FDF7FCBAAFF30080AFF3008099
:1046D00000207047AFF30080AFF30080AFF300809D
:1046E00040F66400C2F200004FF498710022FDF71A
:1046F000AFBB00BFAFF30080AFF30080AFF300802B
:104700002D4B2E4870B51C6805222146FDF7A8FBED
:1047100005252A48FDF7BCFB011C18BF012101201B
:10472000FDF76EFC002835D1013DF2D12348FDF79D
:10473000AFFBD0F1010138BF00210220FDF760FC82
:1047400040BB1D4D1D4805F110062146FDF7B8FB85
:10475000B54207D055F8044F18482146FDF7B0FB85
:10476000B542F7D105241548FDF792FB011C18BF8F
:1047700001210320FDF744FC60B9013CF3D10F484F
:10478000FDF786FBD0F1010138BF00210420FDF7C1
:1047900037FC00B170BD1021094A0848FDF758FBED
:1047A0000648FDF775FBD0F1010138BF0021052057
:1047B000BDE87040FDF724BC40700008640800208C
:1047C000D1460008AFF30080AFF30080AFF3008064
:1047D00038B50546FCF77CFA002403461846AB4280
:1047E00008BF44F00104FCF783FA03460028F5D122
:1047F000204638BDAFF30080AFF30080AFF30080F8
:1048000010B54B4B4B499B694B489A684B4B82B058
:10481000013A00914FF49871FCF712FA0446012016
:10482000A17FC0EB010CDCF1000141EB0C01FDF7B5
:10483000E7FB08B102B010BD2046FCF7C9F9A17F23
:104840000220C0EB010EDEF1000141EB0E01FDF78D
:10485000D7FB0028EED12046FCF7CAF9A17FA1F1D1
:1048600001020320514241EB0201FDF7C9FB002880
:10487000E0D12046FFF7ACFF01460420FDF7C0FB66
:104880000028D7D12046FFF7A3FF01460520FDF7FA
:10489000B7FB0028CED12046FCF7AAF9A17F06205D
:1048A000D1F1010138BF0021FDF7AAFB0028C1D1D9
:1048B000217F0720D1F1010138BF0021FDF7A0FBC6
:1048C0000028B7D12046FFF783FF01460820FDF7F7
:1048D00097FB0028AED12046FFF77AFF014609205A
:1048E000FDF78EFB0028A5D13220FCF7E9F8217FE7
:1048F000A1F10E030A20594241EB0301FDF780FBB1
:10490000002897D12046FFF763FF01460B20FDF7F3
:1049100077FB00288ED12046FFF75AFFD0F1010126
:1049200038BF00210C2002B0BDE81040FDF768BB85
:10493000080A0020D4720008C01000204149000875
:1049400008B50078FDF74CFB002008BDAFF30080F0
:1049500041F2C00040F65021C2F20000C2F2000154
:104960004FF4BE62FDF7ACB9AFF30080AFF3008047
:1049700041F2C00040F65021C2F20000C2F2000134
:104980004FF4BE62FDF79CB9AFF30080AFF3008037
:10499000324B9B6970B5324C9D6804F1100654F897
:1049A000041B3048FDF78CFAB442F8D1691E2E4A38
:1049B0002E4B2C482E4CFCF763F9A91E20602A4A86
:1049C0002C4B2848FCF75CF9E91E6060264A2A4B0C
:1049D0002448FCF755F9291FA060234A274B21489A
:1049E000FCF74EF9691FE0601F4A1E48244BFCF794
:1049F00047F92168206149B1616839B1A16829B1DD
:104A0000E16819B1D0F1010138BF00210120FDF7A3
:104A1000F7FA00B170BDFDF763FB02201949FDF7FD
:104A200007FB0028F6D104240E48FDF731FA011CDB
:104A300018BF01210320FDF7E3FA0028EAD1013C69
:104A4000F2D10848FDF724FAD0F1010138BF002166
:104A50000420BDE87040FDF7D3BA00BF080A00206B
:104A600040700008B010002041490008D4720008CE
:104A700064100020D8720008DC720008D0720008B0
:104A8000E4720008A0770008AFF30080AFF3008065
:104A900041F2B000C2F200004FF498710022FDF71D
:104AA000D7B900BFAFF30080AFF30080AFF3008051
:104AB00070B5354B35489B69354C9D68354E84B093
:104AC00003A9FDF7A5F9344A344B00924FF49871CD
:104AD0006A1E2E48FCF7B4F8304B2060AA1E4FF433
:104AE00098712A480096FCF7ABF802A96060274845
:104AF000FDF78EF902992548FDF7F2F8284A274B71
:104B000000924FF498710646EA1E2048FCF798F888
:104B1000A0603046FDF72CF9216829B1616819B110
:104B2000A168002926D000210120FDF769FA08B10B
:104B300004B070BDFDF7D4FA02201A49FDF778FAE7
:104B40000028F5D102A91148FDF762F9A0F1010290
:104B5000514241EB02010320FDF752FA0028E7D150
:104B60000299039BCB1A0420594241EB0301FDF744
:104B700047FADDE7E368002BD6D12169D1F10101C5
:104B800038BF0021D0E700BF080A0020C010002075
:104B900064100020D8720008D4720008414900084F
:104BA000DC720008A8770008AFF30080AFF3008044
:104BB000704700BFAFF30080AFF30080AFF3008019
:104BC00040F6700008B50021C822C2F20000FCF7D0
:104BD00087FF002008BD00BFAFF30080AFF3008067
:104BE00010B547F24003C0F6000382B0196840F6E2
:104BF000700044F6B1330024C2F200000422C0F673
:104C000000030094FCF744FF02B010BDAFF3008036
:104C100040F6940008B5C821C2F20000FCF7D0FEAF
:104C2000002008BDAFF30080AFF30080AFF3008039
:104C300010B547F24003C0F6000382B0196840F691
:104C4000940044F6B1330024C2F200000422C0F6FE
:104C500000030094FCF764FE02B010BDAFF30080C7
:104C60002DE9F041202382B083F31188944B5969D8
:104C70009A69914263D000210120FDF7C1F9002813
:104C80003AD1034683F3118841258D4C29460135DD
:104C900020464FF0FF32EDB2FCF722FF452DF4D154
:104CA000202383F31188A1680220D1F1010138BFCC
:104CB0000021FDF7A5F9F8B9034683F31188042410
:104CC000202383F311887E4D2846FCF731FF002313
:104CD00083F31188C0B2FDF783F9013CF0D12023A2
:104CE00083F311886A69AB699A4218BF21462BD0B9
:104CF0000320FDF785F928B1002383F3118802B062
:104D0000BDE8F081034683F3118804206D49FDF767
:104D10008FF905460028F2D1202383F31188684CCF
:104D20002046FCF705FF033014BF002101210520B8
:104D3000FDF766F968B12B4683F31188DFE79968C0
:104D4000003118BF012197E7A968003118BF012180
:104D5000CEE7034683F311885B4E75680822294627
:104D60002046FCF70DFFA0F10408D8F1000141EB4B
:104D700008010620FDF744F980460028BFD1202312
:104D800083F31188A1680720D1F1010138BF002108
:104D9000FDF736F9074618B1434683F31188AEE7AD
:104DA000034683F31188494B30689A69484B9268EF
:104DB000009701324FF49871FBF732FE454A2023E9
:104DC000106083F311882169E268A368891AC91AFF
:104DD000A1F1040C0820DCF1000141EB0C01FDF70E
:104DE0000FF9064618B13B4683F3118887E703465F
:104DF00083F31188FDF774F9202383F3118820468B
:104E0000FCF756FE334683F31188202383F3118881
:104E10002169E268A368891AC3EB010E0920DEF15B
:104E2000000141EB0E01FDF7EBF8034618B13346E4
:104E300083F3118863E783F3118802222946204611
:104E4000FCF79EFEA0F10200414241EB00010A2066
:104E5000FDF7D6F8034600287FF451AF0222294619
:104E60002046FCF78DFEA0F10202514241EB020107
:104E70000B20FDF7C5F800287FF441AF202383F312
:104E80001188A1680C20D1F1010138BF0021FDF784
:104E9000B7F8002383F3118800287FF430AF194658
:104EA0000A220748FCF71CFEA0F1FF33594241EBF0
:104EB00003010D2002B0BDE8F041FDF7A1B800BF2D
:104EC00070080020A077000840700008080A002041
:104ED000C14B000864100020AFF30080AFF30080E6
:104EE00070B5202382B083F311889D4B996801200F
:104EF000D1F1010138BF0021FDF782F800BB034664
:104F000083F31188202383F311884125944C29468B
:104F100001352046EDB2FCF72BFD452DF6D10023DF
:104F200083F31188202383F311886269A369002128
:104F30009A4200F0BC800220FDF762F8044620B1DE
:104F4000002383F3118802B070BD034683F31188F8
:104F5000202383F3118882482146FCF709FD0430A1
:104F600014BF002101210320FDF74AF8002840F07A
:104F70009A80034683F311880424794D4FF0FF3162
:104F80002846FCF71DFDC0B2FDF72AF8013CF4D11C
:104F9000202383F31188A9680420D1F1010138BFCF
:104FA0000021FDF72DF8234683F311880028CAD18C
:104FB00005206C49FDF73CF80028C4D1202383F379
:104FC00011884125664C294601352046EDB2FCF793
:104FD000CFFC452DF6D1002383F31188624D0822C2
:104FE00069682046FCF714FDA0F10406714241EB0C
:104FF00006010620FDF704F806460028A3D1202369
:1050000083F31188A1680720D1F1010138BF002185
:10501000FCF7F6FF00284FD1034683F311882023C5
:1050200083F3118841264E4C314601362046F6B2B4
:10503000FCF79EFC452EF6D1002383F311886D68A2
:10504000022229462046FCF7E3FCA0F1020041427F
:1050500041EB00010820FCF7D3FF00287FF473AF79
:105060002946022203462046FCF7D2FCA0F10202A8
:10507000514241EB02010920FCF7C2FF054600281E
:105080007FF461AF202383F31188A1680A20D1F156
:10509000010138BF0021FCF7B3FF064680B12B4663
:1050A00083F311884FE7234683F311884BE7A16808
:1050B000003118BF01213EE7334683F3118842E7F0
:1050C000034683F31188202383F311880146204689
:1050D000FCF74EFC2046FCF733FC334683F3118883
:1050E000202383F31188A1680B20D1F1010138BF7F
:1050F0000021FCF785FF05460028DDD1034683F338
:105100001188194B1868194B9A69194B92680095C8
:1051100001324FF49871FBF783FC164A202310608C
:1051200083F31188A1680C20D1F1010138BF00215F
:10513000FCF766FF03460028B1D183F31188FCF722
:10514000CFFF20460A21FCF73BFCA0F1FF33594278
:1051500041EB03010D2002B0BDE87040FCF750BFE9
:1051600094080020A077000840700008080A00207A
:10517000114C000864100020AFF30080AFF30080F2
:10518000704700BFAFF30080AFF30080AFF3008043
:10519000704700BFAFF30080AFF30080AFF3008033
:1051A00047F6401010B5C0F6000047F65014C0F6A0
:1051B0000004FCF7EDFE4FF4CA70FCF7B1FE204688
:1051C000FCF7F6FE47F65810C0F60000FCF7E0FECC
:1051D0004820FCF7A5FE2046FCF7EAFE47F66810DB
:1051E000C0F60000FCF7D4FE1420FCF799FE204620
:1051F000FCF7DEFE47F67810C0F60000FCF7C8FEAC
:105200000C20FCF78DFE2046FCF7D2FE47F68810F6
:10521000C0F60000FCF7BCFE0420FCF781FE20462F
:10522000FCF7C6FE47F69810C0F60000FCF7B0FE8B
:105230001020FCF775FE2046FCF7BAFE47F6A810D2
:10524000C0F60000FCF7A4FE1020FCF769FE204623
:10525000FCF7AEFE47F6B810C0F60000FCF798FE6B
:105260000820FCF75DFE2046FCF7A2FE47F6C810BA
:10527000C0F60000FCF78CFE2420FCF751FE20460F
:10528000FCF796FE47F6D810C0F60000FCF780FE4B
:105290002820FCF745FE2046BDE81040FCF788BEFC
:1052A00038B5FCF765FF4FF47A70FCF771FF124DCB
:1052B00000241248FBF7ACFEFBF7D2FE0F48FBF7C9
:1052C000A7FEFBF7CDFE0D48FBF7A2FEFBF7C8FEDD
:1052D0000A48FBF79DFEFBF7C3FE2B780134002B39
:1052E000E7D00748FCF754FEA000FCF719FE05487C
:1052F000BDE83840FCF75CBE45100020F0100020EF
:10530000E8790008F8790008AFF30080AFF3008077
:1053100041F2F000C2F20000FBF70ABEAFF30080DA
:1053200010B5074CA3695B7F5A0706D40548FBF705
:1053300047FDA3695B7F5B07F8D5002010BD00BF68
:10534000080A002028110020AFF30080AFF300808E
:1053500038B5FCF70DFF4FF47A70FCF719FF144DC8
:1053600000241448FBF72CFD1248FBF769FD114897
:10537000FBF726FD0F48FBF763FD0E48FBF720FD0A
:105380000C48FBF75DFD0B48FBF71AFD0948FBF7DE
:1053900057FD2B780134002BE3D00748FCF7F8FDCC
:1053A000A000FCF7BDFD0548BDE83840FCF700BE95
:1053B0004510002028110020E8790008087A00082C
:1053C00041F22810C2F200000121FBF7A9BC00BF86
:1053D00041F22810C2F200000021FBF7A1BC00BF7F
:1053E00038B5FCF7C5FE4FF47A70FCF7D1FE154DC9
:1053F0000024202383F31188012100231248134A3B
:10540000FBF73EF9002342F21071104A1048FBF7F7
:1054100037F90D48FBF754F90D48FBF751F9002314
:1054200083F311882B780134002BE2D00948FCF774
:10543000AFFD6000FCF774FD0748BDE83840FCF79D
:10544000B7BD00BF45100020141100209151000885
:1054500000110020E8790008187A0008AFF30080F6
:1054600030B5002483B024492448009410222346F8
:10547000FCF756FAFCF77CFE4FF47A70FCF788FED6
:105480001F4D202383F3118800211C48FCF770FA7C
:1054900001211A48FCF76CFA02211848FCF768FA57
:1054A00003211648FCF764FA002383F311884FF0B8
:1054B000FF311248FCF784FA4FF0FF310F48FCF738
:1054C0007FFA4FF0FF310D48FCF77AFA0B484FF0A6
:1054D000FF31FCF775FA2B780134002BD1D0094845
:1054E000FCF756FDA000FCF71BFD074803B0BDE824
:1054F0003040FCF75DBD00BFE010002034110020FB
:1055000045100020E8790008247A0008AFF30080F5
:105510002DE9F041144B154A9B69D2F800809E6832
:10552000134F82B0FCF724FE4FF47A70FCF730FE84
:105530000024013625460F4B009540464FF49871E4
:105540003246FBF76DFA3B780134002BF3D00A4862
:10555000FCF71EFD2046FCF7E3FC084802B0BDE85E
:10556000F041FCF725BD00BF080A0020407000088C
:105570004510002081510008E8790008307A0008C1
:105580002DE9F04140F6082784B004ACC2F20007D0
:10559000002344F8043DFCF7EBFDBB6947F24006ED
:1055A000C0F600069A683068009445F27165C0F64E
:1055B0000005013A2B464FF49871FBF731FABB69AD
:1055C000D6F804E09A68009441F26408C2F2000838
:1055D000013AC8F800002B464FF498717046FBF76B
:1055E0001FFABB69D6F808E09A68C8F80400013AC7
:1055F0002B464FF4987170460094FBF711FABB6983
:10560000D6F80CE09A68C8F80800013A70462B46B4
:105610004FF498710094FBF703FABB6936699A68F6
:10562000C8F80C004FF49871013A2B4630460094AC
:10563000FBF7F6F9C8F810004FF47A70FBF740FA60
:10564000FCF73EFDFCF74CFD47F6E810C0F6000005
:10565000FCF79EFC0398FCF763FC47F63C20C0F681
:105660000000FCF7A5FC04B0BDE8F081AFF30080BA
:1056700038B5094C0546FBF74BFAFBF749FAFBF73F
:1056800047FAFBF745FA2A68A36904322A605B7F70
:105690005907F0D5002038BD080A0020AFF300807C
:1056A0002DE9F041394F3A4EBB6930689A68394B61
:1056B000DFF8F880384C82B000254FF4987105323D
:1056C0000095FBF7ADF9BB69D6F804E09A68C8F815
:1056D00000004FF4987104322E4B00957046FBF792
:1056E0009FF9BB69D6F808E09A68C8F804004FF43F
:1056F00098710332274B00957046FBF791F9BB690F
:10570000D6F80CE09A68C8F808004FF49871704613
:105710000232204B0095FBF783F9BB6936699A6822
:105720001C4BC8F80C004FF49871013230460095BC
:10573000FBF776F9C8F81000FCF71AFD4FF47A7001
:10574000FCF726FD15480021FBF70AFB23780135FD
:10575000002BF7D0FCF7B4FC00211048FBF700FB4E
:10576000FCF7BEFC0E48FCF713FC2846FCF7D8FB00
:1057700005EB45050B48FCF70BFC6800FCF7D0FB7C
:10578000094802B0BDE8F041FCF712BC080A00204D
:105790004070000821530008451000202811002007
:1057A000E8790008487A00083C7A00086410002074
:1057B0002DE9F041154B164A9B69D2F800809E688E
:1057C000144F82B0FCF7D4FC4FF47A70FCF7E0FC85
:1057D0000024013E2546104B00954FF49871324647
:1057E0004046FBF71DF9FBF7D3F93B780134002B5A
:1057F000F1D00A48FCF7CCFB2046FCF791FB0848A7
:1058000002B0BDE8F041FCF7D3BB00BF080A00209E
:10581000407000084510002081510008E879000818
:10582000307A0008AFF30080AFF30080AFF3008060
:1058300070B5254B25489B6900689A68244B254C18
:1058400082B04FF49871013200250095FBF7E8F81B
:10585000214B18600646FCF78BFC4FF47A70FCF77E
:1058600097FC202383F3118800213046FAF7E8FFE4
:1058700030460021FAF7E4FF30460021FAF7E0FF56
:1058800030460021FAF7DCFF002383F311882378E8
:105890000435002BE5D0202383F311884FF0FF312E
:1058A0003046FAF7CDFF002383F31188FCF718FC8C
:1058B0000A48FCF76DFB6800FCF732FB084802B0B1
:1058C000BDE87040FCF774BB080A00204070000877
:1058D000515B00084510002064100020E8790008A2
:1058E0003C7A0008AFF30080AFF30080AFF3008094
:1058F00070B50546FCF73CFC4FF47A70FCF748FCA9
:10590000074E002428460121FBF78AFE3378013434
:10591000002BF7D028460021FBF782FE204670BD01
:1059200045100020AFF30080AFF30080AFF300809C
:105930002DE9F04140F60826C2F2000647F2400584
:10594000B369C0F600059A68286882B045F631331D
:105950004FF0000801324FF49871C0F60003CDF803
:105960000080FBF75DF8B369D5F804E09A68CDF8DC
:10597000008041F26404C2F2000445F28117C0F6CF
:1059800000072060023A3B464FF498717046FBF7DF
:1059900047F8B369D5F808E09A686060033A3B4677
:1059A0004FF498717046CDF80080FBF739F8B36971
:1059B000D5F80CE09A68A060043A70463B464FF474
:1059C0009871CDF80080FBF72BF8B3692D699A68C0
:1059D000E0604FF49871053A3B462846CDF80080C8
:1059E000FBF71EF820612068FFF782FF0446FCF7F2
:1059F00077FB47F6E810C0F60000FCF7C9FA20462E
:105A0000FCF78EFA47F65C20C0F60000FCF7C0FAFF
:105A10006000FCF785FA47F63C20C0F6000002B0B3
:105A2000BDE8F041FCF7C4BAAFF30080AFF30080EB
:105A300040F6082210B5C2F2000247F24003926914
:105A4000C0F600039268186882B045F631334FF40F
:105A5000987101320024C0F600030094FAF7E0FFC9
:105A600041F26403C2F200031860FFF741FF0446ED
:105A7000FCF736FB47F6E810C0F60000FCF788FAA2
:105A80002046FCF74DFA47F65C20C0F60000FCF714
:105A90007FFA6000FCF744FA47F63C20C0F60000AD
:105AA00002B0BDE81040FCF783BA00BFAFF300803E
:105AB00040F6082210B5C2F2000247F24003926994
:105AC000C0F600039268186882B045F631334FF48F
:105AD0009871013A0024C0F600030094FAF7A0FF81
