:020000040800F2
:1000000000040020D1010008A1020008A10200089C
:10001000A1020008A1020008A1020008A102000834
:10002000A1020008A1020008A1020008C102000804
:10003000A1020008A1020008A10200089103000823
:10004000A1020008A1020008A1020008A102000804
:10005000A1020008A1020008A1020008A1020008F4
:10006000A1020008A1020008A1020008A1020008E4
:10007000A1020008A1020008A1020008A1020008D4
:10008000A1020008A1020008A1020008A1020008C4
:10009000A1020008A1020008A1020008A1020008B4
:1000A000A1020008A1020008A1020008A1020008A4
:1000B000A1020008A1020008A1020008A102000894
:1000C000A1020008A1020008A1020008A102000884
:1000D000A1020008A1020008A1020008015E0008B8
:1000E000A1020008A1020008A1020008A102000864
:1000F000A1020008A1020008A1020008A102000854
:10010000A1020008A1020008A1020008A102000843
:10011000A1020008A1020008A1020008A102000833
:10012000A1020008A1020008A1020008A102000823
:10013000A1020008A1020008A1020008A102000813
:10014000A1020008A1020008A1020008A102000803
:1001500010B582B005F0A4FC002400F089F90E4827
:10016000002105F01DFD00940C484FF498714022C9
:100170000B4B4FF4805400F0C3FBC4F2010403E0C6
:100180004FF4FA7000F00CFCA3689B04F8D402480A
:1001900001F0A6FFF4E700BF201100209811002015
:1001A000F15F0008AFF30080AFF30080AFF3008091
:1001B000704700BFAFF30080AFF30080AFF3008063
:1001C000FEE700BFAFF30080AFF30080AFF3008025
:1001D00072B6244A82F30988022383F31488BFF39A
:1001E0006F8F214B21498B4205D24FF0553043F898
:1001F000040B8B42FBD31E4B934205D24FF055317B
:1002000043F8041B9342FBD305F0DAFE194B1A485E
:10021000834206D2194A52F8041F43F8041B834252
:10022000F9D3174B174A934204D2002143F8041B19
:100230009342FBD3144D154CFFF7BAFFAC4204D2E6
:1002400054F8043B9847AC42FAD3114D114CFFF7D8
:100250007FFFAC4204D254F8043B9847AC42FAD337
:10026000FFF7AEBF000800200000002000040020BF
:100270000004002000080020B8080020046D0008D9
:10028000B8080020C81200205001000850010008E2
:100290005001000850010008AFF30080AFF3008068
:1002A000FEE700BFAFF30080AFF30080AFF3008044
:1002B00000F0B6FA00DF00BFAFF30080AFF30080BC
:1002C000EFF30983203383F30988002383F3118834
:1002D000704700BFAFF30080AFF30080AFF3008042
:1002E00008B54FF440724FF46D43CEF20003C0F2F4
:1002F000FA520021996007201021DA6000F090F88E
:100300000A204FF4007100F08BF80B208021BDE82B
:10031000084000F085B800BFAFF30080AFF3008065
:10032000202383F311884FF46D43CEF200035B6802
:1003300013F4006319D0EFF30983A3F1200282F3D1
:10034000098810494FF080708A6943F8040CD07F07
:1003500009689268896858B1914294BF00220122CD
:1003600062B1094A43F8082C704783F3118870473B
:10037000914234BF00220122002AF2D1034A43F8FD
:10038000082C7047D0090020B1020008B402000810
:1003900008B5202383F3118800F0A2F8002383F32B
:1003A0001188BDE80840FFF7BBBF00BFAFF3008076
:1003B0002DE9F04FC1F80CD0D0F80CD0BDE8F08F8B
:1003C000002383F311882846A04700F051FB7047B3
:1003D00000F00303DB00FF229A40F0B499400125AE
:1003E00000F01F039D4086084FF46144CEF20004E4
:1003F000C03654F82630400923EA02030B4300F1CB
:10040000600744F8263044F8275044F82050F0BCE8
:10041000704700BFAFF30080AFF30080AFF3008000
:1004200000F00303DB00FF229A40994010B48008DB
:100430004FF46D44CEF20004063054F8203023EA25
:1004400002030B4344F8203010BC7047AFF3008028
:10045000024B034A9B699A61FEE700BFD009002066
:1004600030600008AFF30080AFF30080AFF300808E
:1004700010B582B0FFF734FF00F0FAF800F060F832
:1004800001F046FB01F08CFB40F6B8004021C2F2BF
:10049000000000F0D5F940F6D011C2F200018861E9
:1004A00001220277002383F3118862B689691C4612
:1004B00046F24003C0F600038B6140F6001040F2A4
:1004C0005143C021C0F60003C2F20000009400F0C6
:1004D00017FA02B010BD00BFAFF30080AFF3008089
:1004E00038B5134B9B69DA7F0AB1013ADA771A6A99
:1004F000104C01321A62E36821680133A142E360C3
:1005000014D08D68013D8D6085B90B68CA685C6048
:100510002360CD60002383F311880869904720236E
:1005200083F3118821688B68002BEED038BD00BFA3
:10053000D0090020C0090020AFF30080AFF3008095
:1005400040F6C013C2F200034FF0FF329A6000225F
:100550005B601B60DA607047AFF30080AFF3008030
:1005600070B40D4C03612568C260AE68B14204D915
:100570002D68891BAE688E42FAD36B688160A542F4
:1005800043600560186018BFAB6868601CBFC1EBB2
:100590000301A96070BC7047C0090020AFF3008060
:1005A0000368074A93421FBF996882688A189A6055
:1005B0004268002113600368C1605A60704700BF41
:1005C000C0090020AFF30080AFF30080AFF30080DC
:1005D0000B4A81420346D26809D8824234BF0023C5
:1005E00001238A422CBF184643F0010070478A421B
:1005F0002CBF002001209A4238BF0020704700BF66
:10060000C0090020AFF30080AFF30080AFF300809B
:10061000202383F31188037F0D2B11D8DFE803F02B
:1006200020101007100B101010101010100B436A40
:100630009A6801329A6090E80C001A600268536070
:100640004FF0FF32426281680022074B02771B683D
:100650009A688A42FBD25A68036042601060586010
:10066000002383F311887047D0090020AFF3008086
:1006700040F6D013C2F2000300225B601B609A6058
:100680005B611B61704700BFAFF30080AFF3008078
:1006900000228168054B02771B689A688A42FBD268
:1006A0005A6803604260106058607047D0090020AB
:1006B00040F6D013C2F2000310B499691A680877A3
:1006C00014201468C87701201077104663601C60FE
:1006D0009A6110BCFFF76CBEAFF30080AFF30080EF
:1006E00030B54B1C87B0054611D00B4C0B4AA369A3
:1006F00001A8FFF735FF2846FFF7DAFF049B13B187
:1007000001A8FFF74DFFA369586A07B030BDFFF796
:10071000CFFF014CF7E700BFD00900201106000809
:1007200030B4144C0346A2698568906859628542CA
:100730000CD800221A772468A2689542FBD9626817
:100740001C605A601360636030BC704700211177F1
:10075000214609688D68A842FBD94868116050603D
:100760004A6001210260197718461146A36130BC26
:10077000FFF71EBED0090020AFF30080AFF300806A
:100780000E4B30B41868996902688C6853601A601F
:10079000986114230125CB77002305770B77034657
:1007A00000E01B689A68A242FBD25A680B604A605C
:1007B0001160596030BCFFF7FBBD00BFD0090020BD
:1007C0000D4B30B41868996902688C685360012534
:1007D0001A609861002305770B77034600E01B68D9
:1007E0009A68A242FBD85A680B604A60116059604F
:1007F00030BCFFF7DDBD00BFD0090020AFF30080A3
:10080000044B1A689B6992689B689A4200D87047AB
:10081000FFF7D6BFD0090020AFF30080AFF3008010
:10082000034B9B69DB7F0BB1FFF7CABFFFF7A8BF84
:10083000D0090020AFF30080AFF30080AFF3008059
:10084000F0B440F6D014C2F20004656900220461DD
:1008500000F12C06816000F1280745614FF0020C81
:10086000606101641424012180F81CC04277C477C0
:10087000C263826302628177826128618762066354
:10088000C662F0BC704700BFAFF30080AFF30080DA
:100890002DE9F003A1F1240C40F6D015C2F20005B9
:1008A00000EB0C016E69C16040F80C30069B00271C
:1008B0004B6040F2C133C0F600030B6202230377A2
:1008C0001423904600F1280900F12C02C37701237C
:1008D0000561C0F808804661044668614777C0F842
:1008E0004080C76387630762837787613061C0F8A0
:1008F00028900263C262BDE8F0037047AFF3008046
:1009000010B51C4682B0202383F311882346049C33
:100910000094FFF7BDFF00210446FFF701FF00230D
:1009200083F31188204602B010BD00BFAFF30080F2
:1009300010B5202383F31188084B9B691C6C9A68BF
:10094000944201D0824200D298601864FFF758FFA9
:10095000002383F31188204610BD00BFD00900207A
:1009600010B52023044683F311880021FFF7D8FE39
:10097000002383F31188204610BD00BFAFF3008031
:10098000202383F31188427F002342F00402427740
:1009900083F31188704700BFAFF30080AFF300808E
:1009A00008B50146202383F311880620FFF798FE3F
:1009B000002383F3118808BDAFF30080AFF30080FC
:1009C00008B5202383F31188054BD968411A02D05A
:1009D0000620FFF785FE002383F3118808BD00BFC2
:1009E000C0090020AFF30080AFF30080AFF30080B8
:1009F00008B5202383F31188064B1A689B69926817
:100A00009B689A4201D3FFF7BBFE002383F3118852
:100A100008BD00BFD0090020AFF30080AFF3008015
:100A200038B50F4B9C69254655F8283F6062AB42AC
:100A300007D01A681846A262FFF72AFEA36AAB42E3
:100A4000F7D1637F9B0701BF226963691A6122693D
:100A500008BF53610E20BDE83840FFF729BE00BF34
:100A6000D0090020AFF30080AFF30080AFF3008027
:100A7000202383F31188FFF7D3BF00BFAFF30080BB
:100A800038B50446202383F31188037F0E2B07D04B
:100A9000084B826A9B6907201A60A362FFF708FE71
:100AA000656A002383F31188204600F019F8284670
:100AB00038BD00BFD0090020AFF30080AFF3008045
:100AC000202383F31188817F00230131817783F311
:100AD00011887047AFF30080AFF30080AFF3008060
:100AE0000146202383F31188827F0023013AD2B28A
:100AF000827783F3118812B9037F0E2B00D07047E1
:100B0000437F03F00303012B09D0022BF7D1436984
:100B10000269406C1A610A69536101F051B9436975
:100B200002691A610269536101F0A2B8AFF3008053
:100B300070B582B00C4615461E4601F051F8A8B1BA
:100B4000202383F311882146069C33462A460094CD
:100B5000FFF79EFE0123437700210446FFF7E0FDE7
:100B6000002383F31188204602B070BD0446FAE7E3
:100B7000F0B583B004460E4617461D4601F008F94D
:100B8000A8B1202383F3118861683B463246009563
:100B9000FFF77EFE02234377446400210546FFF7FA
:100BA000BFFD002383F31188284603B0F0BD05463E
:100BB000FAE700BFAFF30080AFF30080AFF300802F
:100BC000202383F3118840F6D013C2F20003186982
:100BD0000023827F0132827783F31188704700BF40
:100BE00010B5202383F31188074B04699C4209D078
:100BF000A37F0133A377002383F31188FFF770FFEE
:100C0000204610BD0024F6E7D0090020AFF3008095
:100C10004060006081607047AFF30080AFF30080F8
:100C200070B5856804460135002D81600BDC6FF0DE
:100C3000010660680135436863601C60FFF728FDAA
:100C4000012D4662F5D170BDAFF30080AFF3008097
:100C500008B5202383F31188FFF7E2FFFFF7D0FDEB
:100C6000002383F3118808BDAFF30080AFF3008049
:100C7000826810B5013A002A0346826001DB002039
:100C800010BD074C0320A26953625968136051607C
:100C90005A600A60FFF70CFDA369586A10BD00BFD7
:100CA000D0090020AFF30080AFF30080AFF30080E5
:100CB00008B5202383F31188FFF7DAFF002383F3BD
:100CC000118808BDAFF30080AFF30080AFF3008060
:100CD0000346806810B4421E002A0C469A6002DB6C
:100CE000002010BC704759B1074A03209269536233
:100CF0005C6882E818005A60226010BCFFF7F0BC04
:100D000098604FF0FF30ECE7D0090020AFF300808F
:100D100008B5202383F31188FFF7DAFF002383F35C
:100D2000118808BDAFF30080AFF30080AFF30080FF
:100D300008B50246202383F3118883680133002B12
:100D4000836003DD002383F3118808BD0068002160
:100D5000036813605A60FFF7E3FCF3E7AFF300802A
:100D6000826803460132002A826000DD7047026813
:100D70001168104619604B6000235362FFF788BC6E
:100D800070B50D1E044611DD002601E0013D0DD0B9
:100D9000A3680133002BA360F8DC2068036823609C
:100DA0005C60FFF775FC013D4662F1D170BD00BF8C
:100DB00010B5024682B0202383F311888368013383
:100DC000002B836019DD8B68013B002B8B6007DBF8
:100DD000FFF716FD0020002383F3118802B010BD39
:100DE0000B4A4B689469032084E80A004C601C603D
:100DF0006162FFF75DFC606AEDE7006803681360FD
:100E00005A600191FFF744FC002343620199DAE73D
:100E1000D0090020AFF30080AFF30080AFF3008073
:100E20000023406000608360704700BFAFF3008024
:100E3000F8B52F4A836805469469002B51D0A16804
:100E40009A68914206D91A7F9960042A31D0052AFE
:100E50001CD092B12B461B689D4203D09968A268B2
:100E60009142F8D25A6804202360626014605C608A
:100E70006562BDE8F840FFF71BBC93E8060011600F
:100E800018461B685A60FFF703FCE3E758681A68C6
:100E90005E6A02601F68324678601268964202D02D
:100EA00090688842F9D251681A6059600B605360AB
:100EB000D0E758681A685E6A02601F683246786038
:100EC0001268964212D090688842F9D251681A602E
:100ED00059600B605360B368A1689A688A42B2D3C4
:100EE000B8E7E36B8460C360E063F8BD3246EDE7CA
:100EF000D0090020AFF30080AFF30080AFF3008093
:100F000008B5202383F31188FFF792FF002383F3B2
:100F1000118808BDAFF30080AFF30080AFF300800D
:100F20000246202383F31188836800201BB100232D
:100F300083F311887047044B01209B69D96B936040
:100F4000D160DA63F3E700BFD0090020AFF300807F
:100F5000154AF8B59269202383F31188D46B23686E
:100F6000E168A342D1631CD0176C49B1086888427C
:100F700003D08068874238BF0746C9680029F5D189
:100F80001D68DE6B97601846256000216C60A360C9
:100F9000E660DC63FFF7C4FB002383F3118820467F
:100FA000F8BD0023A360F7E7D0090020AFF300806D
:100FB000124B70B59969CC6B2368E268A342CA638F
:100FC00018D00E6C4AB11068904203D080688642F7
:100FD00038BF0646D268002AF5D11A68DD6B8E60EC
:100FE000184622605460A360E560DC63FFF750FBA5
:100FF000204670BD0023A360204670BDD0090020AC
:10100000124A70B52023946983F31188E36BC3B14E
:1010100000251A68D9689A42E163104608BF9D60AE
:1010200008D01168D66B19604B609A60DE60D3639C
:10103000FFF72EFBE36B002BEBD1236CA360FFF7D4
:10104000DFFB002383F3118870BD00BFD0090020AF
:1010500040600060704700BFAFF30080AFF30080D6
:1010600008B50246202383F311880068904205D01A
:101070000368002113605A60FFF752FB002383F3DB
:10108000118808BDAFF30080AFF30080AFF300809C
:1010900008B503460068984206D002681A6053609B
:1010A000FFF7F6FA0023436208BD00BFAFF30080EC
:1010B00038B504460068A0420AD06FF00105036805
:1010C00023605C60FFF7E4FA45622068A042F6D135
:1010D00038BD00BFAFF30080AFF30080AFF30080F6
:1010E00008B5202383F31188FFF7E2FFFFF788FBA1
:1010F000002383F3118808BDAFF30080AFF30080B5
:10110000104B70B505469C69FFF752FF65620646B5
:101110002B462A4603E09068A168884210D31268E3
:101120009542F8D15A682360626014605C600520C3
:10113000FFF7BEFA646A3046FFF77AFE204670BDBC
:101140001346EFE7D0090020AFF30080AFF3008033
:1011500008B5202383F31188FFF7D2FF002383F320
:10116000118808BDAFF30080AFF30080AFF30080BB
:10117000F8B504460E46FFF71BFF104B054698696D
:1011800027462346446203E099688268914213D35C
:101190001B689C42F8D17B680760436018607860E8
:1011A00031460520FFF79CFA431C044602D028462E
:1011B000FFF73EFE2046F8BD1F46ECE7D0090020B1
:1011C00008B5202383F31188FFF7D2FF002383F3B0
:1011D000118808BDAFF30080AFF30080AFF300804B
:1011E00070B4202383F3118840F6D013C2F20003B9
:1011F0009D69066800240E60234601604D608A6088
:10120000CC6083F3118870BC704700BFAFF30080DF
:10121000202383F31188024602E0994207D01A4640
:1012200013688342F9D1002383F3118870470B6858
:101230001360F8E7AFF30080AFF30080AFF30080F6
:1012400010B4202383F3118840F6D013C2F20003B8
:10125000996900238A6B22EA00048C6383F3118866
:10126000104010BC704700BFAFF30080AFF30080A8
:10127000202383F3118840F6D013C2F200039A6949
:101280000023916B0843906383F31188704700BF7C
:1012900008B5826B037F0A43082B82630BD0092BAE
:1012A00000D008BD436A1A409342FAD1FFF7F0F923
:1012B0000023436208BD436A1A42F7D108BD00BF4C
:1012C00008B5202383F31188FFF7E2FFFFF798FAB0
:1012D000002383F3118808BDAFF30080AFF30080D3
:1012E00070B504680546A0420E4609D0E368606800
:1012F0003343E360A168FFF7CBFF2468A542F5D133
:1013000070BD00BFAFF30080AFF30080AFF300808B
:1013100008B5202383F31188FFF7E2FFFFF770FA87
:10132000002383F3118808BDAFF30080AFF3008082
:10133000F8B50D46074689B10024012601E00134C5
:1013400065B116FA04F32B42F9D057F82420204651
:1013500025EA030501349047002DF2D1F8BD00BF06
:1013600038B50D4B05469C69202383F31188A36B88
:1013700010EA030206D160620820FFF799F9A36B17
:1013800005EA03025042104023EA0003A36300234E
:1013900083F3118838BD00BFD0090020AFF300806F
:1013A00038B50B4B05469C69202383F31188A36B4A
:1013B000184006D108206562FFF77AF9A36B05EAA9
:1013C000030023EA0003A363002383F3118838BDDD
:1013D000D0090020AFF30080AFF30080AFF30080AE
:1013E00038B50C4B04469D69202383F31188AB6B01
:1013F00000EA0302824204D068620920FFF758F92C
:10140000AB6B23EA0403AB63002383F3118820460C
:1014100038BD00BFD0090020AFF30080AFF30080DB
:10142000114B70B59E690546202383F31188B36B79
:1014300010EA03040ED121B9234683F31188204614
:1014400070BD70620820FFF74BF90028F4DBB36B26
:1014500005EA03046242144023EA0403B363002351
:1014600083F31188204670BDD0090020AFF30080BF
:10147000104B70B59E690446202383F31188B36B2B
:1014800010EA03050ED121B92B4683F311882846B3
:1014900070BD70620820FFF723F90028F4DBB36BFE
:1014A00004EA030523EA0503B363002383F31188E9
:1014B000284670BDD0090020AFF30080AFF3008054
:1014C00038B5134B04469D69202383F31188AB6B19
:1014D0001840A0420ED029B90B4683F311880C4660
:1014E000204638BD09206C62FFF7FAF80028A8BF33
:1014F000AB6B07DB23EA0403AB63002383F31188A0
:10150000204638BD002383F311881C46F8E700BF4E
:10151000D0090020AFF30080AFF30080AFF300806C
:1015200070B50E4B9C69202383F3118800F12C05C4
:101530006562067F036B0C2E256061636360046344
:101540001C6007D00A20FFF7B3F8606A002383F31A
:10155000118870BDFFF79CF8F4E700BFD0090020A8
:1015600010B5202383F311880B4CA3691A4652F857
:101570002C0F904208D00168D9624A600B22027792
:10158000002383F3118810BD0C20FFF791F8A369A5
:101590001A4652F82C0FEEE7D0090020AFF3008076
:1015A00008B5202383F31188FFF7BAF8002383F3EB
:1015B000118808BDAFF30080AFF30080AFF3008067
:1015C00038B50B46044601EB820500F11C001146BC
:1015D000E360A36084E82800FFF71AFB04F1100021
:1015E0000021BDE83840FFF713BB00BFAFF3008018
:1015F00010B52023044683F3118803684168E36033
:10160000C91AA360891000F11C00FFF709FB04F15F
:1016100010000021FFF704FBFFF7F2F8002383F32B
:10162000118810BDAFF30080AFF30080AFF30080EE
:1016300070B504460D4600F11C001146FFF748FB4B
:10164000064678B9A368626843F8045B9342A360D6
:1016500028BF236804F1100028BFA360FFF780FBB8
:10166000FFF7CEF8304670BDAFF30080AFF30080D7
:1016700008B5202383F31188FFF7DAFF002383F3F3
:10168000118808BDAFF30080AFF30080AFF3008096
:10169000436A10B5002B10DD8268013B4468436249
:1016A00042F8041BA24228BF0368826028BF8360FF
:1016B0001030FFF755FB002010BD4FF0FF3010BD7C
:1016C00070B504460D4600F11C001146FFF700FB03
:1016D000064660B9E3682268043B9342E36008D39E
:1016E00004F110001D60FFF73BFBFFF789F830465F
:1016F00070BD6368043BE360F2E700BFAFF30080B6
:1017000008B5202383F31188FFF7DAFF002383F362
:10171000118808BDAFF30080AFF30080AFF3008005
:10172000436A10B5002B10DDC2680468043A013B1F
:10173000A2424362C26002D24268043AC2601030E0
:101740001160FFF70DFB002010BD4FF0FF3010BD02
:1017500070B504460D4600F110001146FFF7B8FAC7
:10176000064678B9E368626853F8041B04F11C006C
:1017700093422960E36024BF2368E360FFF7F0FA37
:10178000FFF73EF8304670BDAFF30080AFF3008046
:1017900008B5202383F31188FFF7DAFF002383F3D2
:1017A000118808BDAFF30080AFF30080AFF3008075
:1017B000836910B5002B11DDC268013B836152F8CB
:1017C000044B43680C609A4228BF0368C26028BF7C
:1017D000C3601C30FFF7C4FA002010BD4FF0FF308B
:1017E00010BD00BFAFF30080AFF30080AFF3008007
:1017F00010B4024659B1084B0D209B695A625468D7
:1018000083E814005360236010BCFEF769BF4FF0FB
:10181000FF3010BC704700BFD0090020AFF300803C
:1018200010B4C361019B8A1800244060006084608A
:1018300041618161C1600261036210BC704700BFF9
:1018400038B50446C36800686361A3610023A04201
:10185000A3600AD06FF00105036823605C60FEF7A7
:1018600017FF456220688442F6D138BDAFF300808F
:10187000426908B503468069824298681AD00130EF
:10188000986002F8011B19695A618A420BD21868E4
:1018900098420DD002681A605360FEF7F9FE0023EB
:1018A0004362184608BD1868DA6898425A61F1D157
:1018B000002008BD0028E2D06FF0030008BD00BF83
:1018C00070B5202304460D4683F31188C36903B124
:1018D0009847A668204629463EB9FFF789FF0028A9
:1018E000F7DA334683F3118870BDA369013EA66021
:1018F00013F8010B2269A361934224BFE368A3613B
:10190000002383F3118870BDAFF30080AFF3008034
:101910002DE9F0471D4604460E469146D0F81C803E
:10192000202383F311880027B8F1000F01D020464F
:10193000C047D4F808A020462946BAF1000F09D1C3
:10194000FFF756FF0028F4D0534683F3118838463A
:10195000BDE8F087A3690AF1FF32A26013F8012BFA
:10196000F2552269A361934224BFE368A361002377
:1019700083F311880137B945E9D0202383F3118817
:10198000D2E700BFAFF30080AFF30080AFF3008079
:1019900010B4C361019B8C1840600060826041619B
:1019A0008161C1600461036210BC7047AFF30080C5
:1019B00038B502690446C3680068D21AA042636160
:1019C000A361A2600AD06FF00105036823605C6028
:1019D000FEF75EFE456220688442F6D138BD00BF46
:1019E000F8B504460D461646202383F31188A768F0
:1019F000204631463FB9FFF7FBFE0028F7DA3B46A9
:101A000083F31188F8BD6369013FA76003F8015BA8
:101A100022696361934224BFE3686361E3690BB1A8
:101A200020469847002383F311881846F8BD00BF6D
:101A30004169826910B591420346816816D001312F
:101A4000996012F8014B19699A618A420BD21868A1
:101A5000984206D002681A605360FEF719FE002310
:101A60004362204610BDDA689A61F0E70029E6D0AB
:101A70006FF0020010BD00BFAFF30080AFF3008035
:101A80002DE9F0471E4604460D461746D0F81C9037
:101A9000202383F311884FF00008D4F808A02046D3
:101AA0000AF1FF33BAF1000F21D0A3602A786369ED
:101AB00003F8012B22696361934224BFE3686361E9
:101AC000B9F1000F00D0C847002383F31188013F0C
:101AD00008F1010814D00135202383F31188D4F8CC
:101AE00008A020460AF1FF33BAF1000FDDD12046ED
:101AF0003146FFF77DFE0028CFD0534683F311888F
:101B00004046BDE8F08700BFAFF30080AFF3008030
:101B100040F20001084840F6F01240F6EC13C2F221
:101B20000101C2F2000220F00700C2F2000321F01E
:101B30000701106019607047CF120020AFF30080DA
:101B4000202383F31188094B09491A680968073073
:101B500020F00700891A88429ABF101818600022E6
:101B6000002383F311881046704700BFF00900205E
:101B7000EC090020AFF30080AFF30080AFF30080EA
:101B800040F6EC1240F6F013C2F20002C2F200037B
:101B900010681B68C01A7047AFF30080AFF3008075
:101BA00040F6F813C2F2000341F641310022C0F6BC
:101BB000000103F1100019609A60DA60FFF730B994
:101BC000002303608160C360083A10300B604A60F4
:101BD000FFF726B9AFF30080AFF30080AFF30080CA
:101BE000F8B5204E0731002818BF064606F1100050
:101BF00021F0070506F10804FFF782F900E01C4612
:101C00002368F3B15A689542F9D805F108018A4270
:101C100014D34FF6F870CFF6FF70D3F800E0401BF6
:101C20005F18821843F801E07A6027605D601C4607
:101C300044F8086BFFF78CF92046F8BD1A6822605B
:101C4000F5E7FFF785F93468002CF5D005F10800B9
:101C5000A04704460028EFD00834066045602046BF
:101C6000F8BD00BFF8090020AFF30080AFF300809B
:101C700070B5064650F8080CA6F1080400F10805F6
:101C80001030FFF73DF92B46591B4A4242EB010247
:101C90009C4288BF42F001022AB11A682AB19442DC
:101CA00003D31346F0E71B68EEE756F8041C46F82A
:101CB000082C1C6001F1080256F8085CA018A84224
:101CC00009D05A6802F1080159188C4211D0BDE8B8
:101CD0007040FFF73DB94068A2580918083146F82E
:101CE000041C46F8082C5A6802F1080159188C4265
:101CF000EDD156F8040C56F8081C1218083283E887
:101D00000600E4E7AFF30080AFF30080AFF300809C
:101D100038B50D4C0D46002818BF044604F11000DC
:101D2000FFF7EEF8A3681A461C463BB100221446A2
:101D300059681B6852180134002BF9D105B12A608B
:101D4000FFF706F9204638BDF8090020AFF3008000
:101D50000023036041608260704700BFAFF30080E2
:101D600010B462B1202383F31188046800230C604F
:101D7000016083F311884368013A1944F2D110BC21
:101D8000704700BFAFF30080AFF30080AFF3008077
:101D900008B50246202383F31188006828B1036840
:101DA0001360002383F3118808BD9368002BF8D0DB
:101DB00050689847F5E700BFAFF30080AFF30080AD
:101DC000202383F31188026800230A60016083F3F3
:101DD00011887047AFF30080AFF30080AFF300804D
:101DE00041F20D03C2F2000301221A70704700BFD6
:101DF00038B5084D4C2428682D2103689B68984706
:101E0000013CF8D1034B04491868022203681B689F
:101E1000984738BD4010002080600008AFF3008074
:101E200070B584B0002823D04CF6CD426D466C4688
:101E3000CCF6CC42A2FB0013DB0803EB8301A0EB42
:101E400041013031C9B2184604F8011B002BF1D111
:101E5000AC420BD90A4E013502E014F8021C013CD9
:101E6000306803689B689847AC42F6D104B070BDF7
:101E7000034B3021186803689B689847F6E700BF5A
:101E800040100020AFF30080AFF30080AFF300807C
:101E900038B5017849B1054D0446286803689B6848
:101EA000984714F8011F0029F7D138BD40100020D1
:101EB00008B5FFF7EDFF41F24003C2F200031868D6
:101EC00046F280010368C0F600011B6802229847B1
:101ED00008BD00BFAFF30080AFF30080AFF3008018
:101EE000202383F3118841F21002C2F2000211682C
:101EF000002301F8010B116083F31188704700BFC4
:101F000041B9054A01231370044A1370044A106052
:101F100018467047002070470C1000201410002055
:101F200008100020AFF30080AFF30080AFF3008013
:101F30000F4B104AF0B41F68144604E011F8016B0F
:101F40002D78B54209D1A742254604F10104F5D800
:101F5000097811B91A60084607E0074A012313708F
:101F6000064A1370064A10601846F0BC704700BF5E
:101F700010100020441000200C100020141000202D
:101F800008100020AFF30080AFF30080AFF30080B3
:101F900010B5044608461146FEF71AFB38B9054B42
:101FA00001201870044B1870044B1C6010BD0020F9
:101FB00010BD00BF0C1000201410002008100020DD
:101FC00038B5064C04F1140554F8043F18460BB11B
:101FD000FEF7D6FCAC42F7D138BD00BF2810002078
:101FE00070B5074C002604F1140554F8043B18465C
:101FF0001BB1FEF745FD44F8046CAC42F5D170BD51
:102000002C100020AFF30080AFF30080AFF300800E
:102010004FF47A7303FB00F1134B44F6D352C1F231
:10202000620210B401399C69A2FB0131226A501C82
:1020300000EB91118A42236A0AD28B422CBF002006
:102040000120934238BF00200028F3D110BC704714
:10205000934234BF002001208B4238BF40F0010082
:102060000028E7D1F2E700BFD0090020AFF30080DD
:1020700008B50120FEF794FC40F6C013C2F200033D
:10208000D86808BDAFF30080AFF30080AFF30080E5
:1020900041F20D0310B5C2F2000300241C7020238E
:1020A00083F311884FF47A7101FB00F144F6D353A6
:1020B0000139C1F26203A3FB012141F21800890931
:1020C00041F6E1522346C2F200000131C0F600029F
:1020D000FEF746FA234683F3118810BDAFF3008064
:1020E0002DE9F04F694E83B030606948FFF7E0FE9C
:1020F0006848FFF7DDFE6848FFF7DAFE6748FFF73C
:10210000C7FE6748FFF7D4FE6648FFF7C1FE664882
:10211000FFF7CEFE6548FFF7BBFE6548FFF7C8FE38
:102120006448FFF7B5FE6448FFF7C2FE6348FFF757
:10213000AFFE6348FFF7BCFE6248FFF7A9FE6248A6
:10214000FFF7B6FE6148FFF7A3FE6148FFF7B0FE58
:102150006048FFF79DFE6048FFF7AAFE4C48FFF776
:10216000A7FE41F214024FF0000AC2F200025B4FD8
:10217000DFF8ACB15A4DDFF8909182F800A00AF177
:10218000010A4FF0000857F8043B002B59D0FFF725
:102190002FFE5448FFF77CFE5046FFF741FE08F142
:1021A00001085148FFF774FE4046FFF739FE4F48DB
:1021B000FFF76EFE57F8043C4D4C1868FFF768FEB9
:1021C0004C48FFF775FEC820FEF7EAFB4A4A57F86D
:1021D000043C0021116051609160D16011615A6826
:1021E000C5F80090217012B101939047019BDA6805
:1021F00001939047019B9B6803B19847FFF7F0FE5E
:102200002378002B3AD03D48FFF742FE3C4B18683C
:10221000FFF706FE3B48FFF73BFE2B684B4509D90D
:10222000394C306814F8011B03689B6898472B6889
:10223000A342F6D83548FFF73BFE57F8043B002B86
:10224000A5D15BF8047F002F99D1FFF7D1FD10488D
:10225000FFF72EFE2E48FFF71BFE41F21402C2F2DA
:102260000002137873B92B48FFF722FE41F21403E2
:10227000C2F20003187803B0BDE8F08F2648FFF7DC
:1022800017FE80E72548FFF713FEEFE74010002018
:10229000686A000884600008A0600008A460000864
:1022A000B8600008C0600008D4600008EC60000856
:1022B0000061000820610008346100083C610008EA
:1022C000506100085C6100087061000888610008C6
:1022D0009C610008B8610008CC610008C062000879
:1022E00010100020E4610008F4610008F8610008A3
:1022F0000C100020FC6100082C1000200062000877
:102300000810002018620008441000201C62000819
:10231000346200082C620008206200084462000851
:1023200050620008AFF30080AFF30080AFF300808D
:10233000F8B5504EB3699C68651C2846FEF7F8FA5C
:10234000021B514241EB020107460120FFF7D8FD75
:1023500000B1F8BDB369022099686B1A594241EB8C
:102360000301FFF7CDFD0028F3D13846FEF7E0FA70
:10237000C0EB050CDCF1000141EB0C010320FFF781
:10238000BFFD0028E5D1B36904209968C4EB010EB4
:10239000DEF1000141EB0E01FFF7B2FD0028D8D1BC
:1023A000202383F31188B26903469168023191605A
:1023B00083F31188B369A71C99680520CA1B514291
:1023C00041EB0201FFF79CFD0028C2D12846FEF731
:1023D000AFFA031B594241EB03010620FFF790FDC2
:1023E0000028B6D1B36907209968C1EB070CDCF16E
:1023F000000141EB0C01FFF783FD0028A9D1B3696F
:102400000820196CC1EB050EDEF1000141EB0E0155
:10241000FFF776FD00289CD1E71C3846FEF788FAC6
:10242000281A414241EB00010920FFF769FD00280D
:102430008FD1B3690A2099687A1A514241EB02019F
:10244000FFF75EFD002884D1B3690B20196C7B1A5D
:10245000594241EB0301FFF753FD00287FF479AFA8
:10246000202383F31188B26903469460146483F3D4
:1024700011886EE7D0090020AFF30080AFF3008031
:10248000F0B540F6D017C2F20007BB6946F260060D
:102490009A6842F26165C0F60006C0F6000546F291
:1024A000E02483B0043A2B4670684FF49871C0F66C
:1024B00000040094FEF724FABB6931689A6841F27F
:1024C0002C04C2F2000446F2F42E6060053A2B465A
:1024D000C0F6000E08464FF49871CDF800E0FEF704
:1024E0000FFABB6931699A6846F2E42E2060013A1E
:1024F0002B46C0F6000E08464FF49871CDF800E068
:10250000FEF7FEF9BB69F1689A6846F2E82E206191
:102510002B46C0F6000E0846023A4FF49871CDF8EB
:1025200000E0FEF7EDF92023E06083F31188BB693A
:10253000B0689A682B4646F2EC254FF49871033A3E
:10254000C0F600050095FEF7A3F9A060002383F311
:102550001188A068FEF704FAFFF742FD46F2F02169
:102560000120C0F6000103B0BDE8F040FFF7E0BC79
:10257000F0B540F6D017C2F20007BB6946F260061C
:102580009A6842F26165C0F60005C0F6000646F2A0
:10259000F42483B0053A2B4630684FF49871C0F6A6
:1025A00000040094FEF7ACF9BB69D6F804E041F2F0
:1025B0002C04C2F200049A682060704646F2E02EB5
:1025C000043A2B46C0F6000E4FF49871CDF800E0A7
:1025D000FEF796F9BB69D6F808E09A686060704625
:1025E00046F2EC2E033A2B46C0F6000E4FF49871DB
:1025F000CDF800E0FEF784F9BB69D6F80CE09A68E4
:10260000A060704646F2E82EC0F6000E023A2B4655
:102610004FF49871CDF800E0FEF772F9BB693669A6
:102620009A682B4646F2E425E0604FF49871013A2F
:102630003046C0F600050095FEF762F92061FFF70D
:10264000CFFC46F2F0210120C0F6000103B0BDE846
:10265000F040FFF76DBC00BFAFF30080AFF3008028
:1026600008B50078FFF73CFC002008BDAFF3008000
:1026700038B51C4CFFF7FCFCE5686420FEF790F9C8
:10268000012005F1640105F16502FFF781FC00B14D
:1026900038BDE5686420FEF783F9022005F1640186
:1026A00005F16502FFF774FC0028F1D1E5684FF4ED
:1026B0007A70FEF775F9032005F57A7105F2E932B3
:1026C000FFF766FC0028E3D1E46804F164052846BE
:1026D000FEF776F90420294604F16502BDE838408A
:1026E000FFF756BCC0090020AFF30080AFF30080B5
:1026F00040F60000C2F200000021FEF789BA00BFD8
:1027000040F60000C2F200000021FEF781BA00BFCF
:1027100040F60000C2F200000021FEF779BA00BFC7
:1027200010B586B0002103A8FEF772FA002103A8B5
:10273000FEF78EFA059901200029CCBF0021012166
:10274000FFF7DEFB08B106B010BD314B31489B6985
:102750004FF498719A680068013A2F4B03AC0094CB
:10276000FEF7CEF82D4B186003A8FEF7A1FA0599E5
:1027700002200029CCBF00210121FFF7C1FB002866
:10278000E1D1202383F31188059B002B3CDDFEF76C
:1027900037F8002383F31188059903209942D4BFA9
:1027A00000210121FFF7ACFB0028CCD105990420C2
:1027B000A1F10102514241EB0201FFF7A1FB002808
:1027C000C1D1202383F31188059B002B18DDFEF770
:1027D00017F8002383F31188059903209942D4BF89
:1027E00000210121FFF78CFB0028ACD105990520C1
:1027F000A1F10103594241EB0301FFF781FBA2E77D
:1028000003A8FEF7ADFAE2E703A8FEF7A9FABEE7D0
:10281000D009002060600008212800082C1000204A
:1028200008B5202383F311888368002B06DDFDF7AC
:10283000E7FF002383F31188184608BDFEF790FADE
:10284000F5E700BFAFF30080AFF30080AFF3008087
:1028500010B540F60004C2F200042046FEF728FA44
:102860002046FEF765FA002010BD00BFAFF30080E0
:1028700010B5044640F60000C2F20000FEF718FA58
:102880002078FFF72DFB002010BD00BFAFF30080C4
:1028900008B53220FEF784F8202383F3118840F630
:1028A0000000C2F20000FEF75BFAFDF7A9FF00236B
:1028B00083F31188184608BDAFF30080AFF30080A2
:1028C0002DE9F043464E474CB369D4F800909A681E
:1028D000454F83B04FF498710532444B48460097FA
:1028E000FEF70EF8B369424DD4F804E09A68286008
:1028F0007046DFF80CE14FF4987101323B4BCDF894
:1029000000E0FDF7FDFFB369D4F808E09A6868605D
:102910007046DFF8F0E04FF498710332334BCDF896
:1029200000E0FDF7EDFFB369D4F80CE09A68A86009
:102930007046DFF8D4E04FF4987104322B4BCDF899
:1029400000E0FDF7DDFFB36924699A68E86020467E
:10295000284C4FF498710232244B0094FDF7D0FFBD
:10296000254C28612046FEF7E3F92046FEF7E0F902
:102970002046FEF7DDF92046FEF7DAF92046FEF79D
:10298000D7F9FFF72DFB01201C49FFF7D1FA80464C
:1029900010B103B0BDE8F083B36948469A684FF4BC
:1029A00098710532114B0097FDF7AAFF202328608C
:1029B00083F3118802212046FEF7E2F9434683F3B0
:1029C0001188FFF70DFBA1680220A1F1010EDEF1D5
:1029D000000141EB0E0103B0BDE8F043FFF790BAF0
:1029E000D009002060600008E46200087128000837
:1029F0002C100020F462000800080020F06200089B
:102A0000E8620008EC620008E0620008AFF30080B2
:102A1000224B10B59B6922489A6882B0013200248B
:102A20004FF498711F4B00680094FDF769FF1E4C2E
:102A30001E4B214618602046FEF7BAF92168012096
:102A40000B1B594241EB0301FFF75AFA08B102B0E0
:102A500010BDA1680220D1F1010138BF0021FFF7AC
:102A60004FFA0028F3D121462046FEF7A1F921684C
:102A70000320C4EB010CDCF1000141EB0C01FFF77A
:102A80003FFA0028E3D1A1680420D1F1010138BF49
:102A9000002102B0BDE81040FFF732BAD009002093
:102AA0006060000851280008000800202C10002059
:102AB00070B54E4C002182B02046FEF729F9A0F1F6
:102AC000FF33594241EB03010120FFF719FA08B126
:102AD00002B070BD21680220C4EB010CDCF10001E2
:102AE00041EB0C01FFF70CFA0028F1D1A16803209B
:102AF000D1F1010138BF0021FFF702FA0546002895
:102B0000E6D13B4B3B489B694FF498719A6800684B
:102B1000013A394B0095FDF7F3FE384B4FF4FA714B
:102B200018602046FEF7F4F80546FFF759FA04202E
:102B3000D5F1010138BF0021FFF7E2F90028C7D124
:102B400021680520C4EB010EDEF1000141EB0E010E
:102B5000FFF7D6F90028BBD1A1680620D1F1010109
:102B600038BF0021FFF7CCF90028B1D1FFF780FA78
:102B7000234B4125DE682846FFF7B2F94FF4FA717E
:102B80001A48FEF7C5F8A0F1FF30414241EB0001C1
:102B90000720FFF7B5F900289AD1216808200A1B01
:102BA000514241EB0201FFF7ABF9002890D1A16837
:102BB0000920D1F1010138BF0021FFF7A1F901354A
:102BC000EDB2002884D1462DD5D10A200D49FFF75A
:102BD000AFF900287FF47CAF0B2006F6C41106F68F
:102BE000C91202B0BDE87040FFF7D2B9000800205A
:102BF000D009002060600008912800082C100020F7
:102C0000C0090020F0620008AFF30080AFF300803D
:102C100040F6D013F0B5C2F200039B6946F260059E
:102C20009E68C0F6000542F6315346F2E42483B0B4
:102C3000721C28684FF49871C0F60003C0F60004B7
:102C40000094FDF75DFE41F22C046F68C2F20004AF
:102C5000206042F60153384646F2EC27B21C4FF48E
:102C60009871C0F60003C0F600070097FDF748FE14
:102C7000AD68606042F6C143284646F2E8254FF44D
:102C80009871F21CC0F60003C0F600050095FDF730
:102C900037FE40F62C05C2F20005A0602846FEF77C
:102CA000DFF92846FEF7DCF9FFF79AF946F27041A2
:102CB0000120C0F6000103B0BDE8F040FFF738B9CD
:102CC00010B5044640F61C00C2F20000FEF718F9E9
:102CD0002078FFF705F9FEF73BF9002010BD00BF93
:102CE00010B5044640F60C00C2F20000FEF708F9E9
:102CF0002078FFF7F5F8FEF72BF9002010BD00BF94
:102D000010B5044640F60C00C2F20000FEF7F8F8D9
:102D100040F62C00C2F20000FEF71AFA2078FFF706
:102D2000DFF8FEF715F9002010BD00BFAFF30080FB
:102D300010B5044640F61C00C2F20000FEF7E0F8B1
:102D400040F60C00C2F20000FEF7DAF840F62C0064
:102D50004FF0FF31C2F20000FEF732FA2078FFF7A1
:102D6000BFF8FEF7F5F8FEF7F3F8002010BD00BF3E
:102D700040F62C0008B5C2F20000FEF769F940F6F3
:102D80000C00C2F20000FEF74BF840F61C00C2F245
:102D90000000BDE80840FEF743B800BFAFF3008075
:102DA00040F62C0008B5C2F20000FEF751F940F6DB
:102DB0000C00C2F20000BDE80840FEF731B800BFC9
:102DC00040F62C0008B5C2F20000FEF741F940F6CB
:102DD0000C00C2F20000BDE80840FEF721B800BFB9
:102DE00040F60C00C2F20000FEF71AB8AFF3008004
:102DF00040F60C0008B5C2F20000FEF711F840F6EC
:102E00001C00C2F20000BDE80840FEF709B800BF90
:102E100040F60C0008B5C2F20000FEF701F840F6DB
:102E20001C00C2F20000BDE80840FDF7F9BF00BF7A
:102E300040F60C00C2F20000FDF7F2BFAFF30080D5
:102E400040F60C00C2F20000FDF7EABFAFF30080CD
:102E500040F6D013F0B5C2F200039B6946F260065B
:102E60009F6842F60155C0F60005C0F6000646F21E
:102E7000F42483B07A1C2B4630684FF49871C0F666
:102E800000040094FDF73CFD41F22C04D6F804E068
:102E9000C2F200042060704646F2E02EBA1C2B46B7
:102EA000C0F6000E4FF49871CDF800E0FDF728FD54
:102EB000D6F808E06060704646F2EC2EFA1C2B460D
:102EC000C0F6000E4FF49871CDF800E0FDF718FD44
:102ED000D6F80CE0A060704646F2E82EC0F6000E70
:102EE0003A1D2B464FF49871CDF800E0FDF708FD30
:102EF00036692B4646F2E4254FF498717A1DE0605E
:102F0000C0F6000530460095FDF7FAFC206140F65A
:102F10002C00C2F20000FEF7E3F8FFF761F846F27A
:102F2000F0210120C0F6000103B0BDE8F040FEF73B
:102F3000FFBF00BFAFF30080AFF30080AFF30080AE
:102F400040F6D013F0B5C2F200039B6946F260066A
:102F50009F6842F60155C0F60006C0F6000546F22D
:102F6000F42483B07A1C2B4630684FF49871C0F675
:102F700000040094FDF7C4FC41F22C047168C2F215
:102F8000000446F2E02E2060BA1C2B46C0F6000E6C
:102F900008464FF49871CDF800E0FDF7B1FCB16838
:102FA00046F2EC2E6060FA1C2B46C0F6000E084676
:102FB0004FF49871CDF800E0FDF7A2FCF16846F2FD
:102FC000E82EA060C0F6000E3A1D2B4608464FF4CE
:102FD0009871CDF800E0FDF793FC32692B4646F27C
:102FE000E425E0604FF498711046C0F600057A1DA4
:102FF0000095FDF785FC2023206183F3118840F6BE
:103000002C04C2F200042046FEF742F82046FEF7E8
:103010003FF82046FEF73CF82046FEF739F82046F8
:10302000FEF736F8FDF7ECFB002383F31188FEF77B
:10303000D7FF46F2F0210120C0F6000103B0BDE841
:10304000F040FEF775BF00BFAFF30080AFF3008024
:10305000F0B52F4F2F4EBB6983B09C682E482F4D83
:10306000FDF74EFF621C30684FF498712C4B0095B1
:10307000FDF746FC2B4DD6F804E028607046DFF8DB
:10308000B0E0A21C4FF49871254BCDF800E0FDF79D
:1030900037FCD6F808E068607046DFF898E0E21C7C
:1030A0004FF498711E4BCDF800E0FDF729FCD6F8DF
:1030B0000CE0A8607046DFF880E0221D4FF49871A4
:1030C000174BCDF800E0FDF71BFC3669E860304691
:1030D000154E4FF49871621D114B0096FDF710FCD0
:1030E0002861FDF735FFFEF77BFFBB69012099687A
:1030F0000B1B594241EB0301FEF702FF08B103B07D
:10310000F0BD0A49022003B0BDE8F040FEF710BF51
:10311000D0090020606000080C080020F46200085C
:10312000E12C00082C100020E4620008F062000886
:10313000E0620008EC620008E8620008AFF300807B
:10314000F8B52F4D2F4CAB6920469E68FDF7E8FE81
:1031500001460120FEF7D4FE00B1F8BD2046FDF780
:10316000DFFED0F1010138BF00210220FEF7C8FECA
:1031700007460028F1D1202383F31188FDF718FFBB
:103180003B4683F3118821680320C4EB010CDCF17A
:10319000000141EB0C01FEF7B3FE0028DDD1A16870
:1031A0000420D1F1010138BF0021FEF7A9FE00285B
:1031B000D3D1AB6905209968C6EB010EDEF10001A1
:1031C00041EB0E01FEF79CFE0028C6D12046FDF71C
:1031D00097FEFDF715FF216806200A1B514241EBBF
:1031E0000201FEF78DFE0028B7D1A1680720D1F1BA
:1031F000010138BF0021BDE8F840FEF781BE00BFE5
:10320000D00900200C080020AFF30080AFF300804D
:103210002DE9F047914D924FAB69D7F800A09C681B
:10322000904E04F1010882B04FF4987142468E4BE3
:1032300050460096FDF764FB8C4ED7F80490DFF8FB
:103240003CE2A71C4FF4987130603A46884B4846E0
:10325000CDF800E0FDF754FB70608648FDF750FEA6
:10326000AB69012099680A1B514241EB0201FEF74C
:1032700047FE10B102B0BDE8F0876420FDF790FB77
:10328000AB6902209968C8EB0103594241EB030185
:10329000FEF736FE0028EDD17748FDF731FEAB6929
:1032A00003209968C8EB010CDCF1000141EB0C0133
:1032B000FEF726FE0028DDD16420FDF771FBAB6927
:1032C00004209968C7EB010EDEF1000141EB0E010D
:1032D000FEF716FE0028CDD1FDF73AFEAB690520BA
:1032E0009968C8EB0102514241EB0201FEF708FE6A
:1032F0000028BFD16420FDF753FBAB690620996815
:10330000C8EB0103594241EB0301FEF7F9FD002828
:10331000B0D1FDF775FEAB6907209968C4EB010CCD
:10332000DCF1000141EB0C01FEF7EAFD0028A1D120
:10333000FEF756FEDFF848E14FF4987142464A4BDB
:103340005046CDF800E0FDF7DBFADFF838E14FF446
:1033500098713060464B3A464846CDF800E0FDF79C
:10336000CFFA70604348FDF7CBFDAB690820996840
:10337000C4EB010EDEF1000141EB0E01FEF7C0FDD2
:1033800000287FF477AF6420FDF70AFBAB690920C2
:103390009968C8EB0102514241EB0201FEF7B0FD12
:1033A00000287FF467AF3448FDF7AAFDAB690A2017
:1033B0009968C8EB0103594241EB0301FEF7A0FDF8
:1033C00000287FF457AF6420FDF7EAFAAB690B20C1
:1033D0009968C7EB010CDCF1000141EB0C01FEF731
:1033E0008FFD064600287FF445AF202383F3118824
:1033F000FDF7DEFD334683F31188AB690C20996835
:10340000C8EB010EDEF1000141EB0E01FEF778FD85
:1034100000287FF42FAF6420FDF7C2FAAB690D20BE
:103420009968C8EB0102514241EB0201FEF768FDC9
:1034300000287FF41FAFFDF7E3FDAB690E2099680C
:103440000B1B594241EB0301FEF75AFD00287FF4A4
:1034500011AF02B0BDE8F047FEF7C2BDD0090020B1
:1034600060600008E8620008B13400082C100020F9
:10347000913400081C0800200C080020E4620008B9
:10348000E0620008EC620008AFF30080AFF3008058
:1034900008B59620FDF784FA40F60C00C2F2000051
:1034A000FDF72EFDFDF754FD002008BDAFF30080B1
:1034B00008B53220FDF774FA40F61C00C2F2000095
:1034C000FDF71EFDFDF744FD002008BDAFF30080B1
:1034D0002DE9F0412D4F82B0FEF7CAFDBB692C4E9D
:1034E0009A682C4C002530684FF49871053A2A4BA5
:1034F000D4F80C800095FDF703FABB69274C9A6855
:10350000D6F804E020604FF49871043A244B7046DA
:103510000095FDF7F5F9BB69D6F808E09A684FF415
:1035200098716060033A1F4B70460095FDF7E8F90B
:10353000BB69D6F80CE09A684FF49871A060023A23
:103540007046194B0095FDF7DBF9BB6936699A683F
:103550004FF49871E060013A144B30460095FDF746
:10356000CFF92061FEF73CFD01201149FEF7E0FC98
:1035700010B102B0BDE8F081022008F16E0108F13F
:10358000730202B0BDE8F041FEF702BDD009002091
:1035900060600008C0090020413700082C1000209E
:1035A000F1360008C1360008A1360008713600085F
:1035B000F0620008AFF30080AFF30080AFF300804B
:1035C0002DE9F041204F82B0FEF752FDBB691F4E3E
:1035D0009A681F4C002530684FF49871013A1D4BD2
:1035E000D4F80C800095FDF78BF9BB69D6F804E0A0
:1035F0009A68194C4FF498712060023A7046174B44
:103600000095FDF77DF9BB69B6689A684FF498712B
:103610006060033A124B30460095FDF771F9A060E7
:10362000FEF7DEFC01200F49FEF782FC10B102B06C
:10363000BDE8F081022008F1640108F1690202B0DE
:10364000BDE8F041FEF7A4BCD0090020606000088E
:10365000C0090020C13700082C100020A137000845
:103660007137000870640008AFF30080AFF300808A
:1036700008B53220FDF794F940F61C00C2F20000B4
:10368000FDF73EFC0A20FEF7C3FCFDF761FC41207C
:10369000FEF726FC002008BDAFF30080AFF30080EA
:1036A00008B52820FDF77CF91420FEF7B1FC422074
:1036B000FEF716FC002008BDAFF30080AFF30080DA
:1036C00008B51420FDF76CF940F61C00C2F20000AA
:1036D000FDF716FC0A20FEF79BFCFDF739FC4320A2
:1036E000FEF7FEFB002008BDAFF30080AFF30080C3
:1036F00008B50A20FDF754F940F61C00C2F200009C
:10370000FDF7FEFB1420FEF783FC40F60C00C2F22E
:103710000000FDF7F5FB0A20FEF77AFCFDF718FC28
:103720000A20FEF775FCFDF713FC4420FEF7D8FBDA
:10373000002008BDAFF30080AFF30080AFF300803E
:1037400040F60C0008B5C2F20000FDF7D9FB1E20C0
:10375000FEF75EFCFDF7FCFB4520FEF7C1FB0020F9
:1037600008BD00BFAFF30080AFF30080AFF300806F
:1037700040F60C0008B5C2F20000FDF7C1FB28209E
:10378000FEF746FCFDF7E4FB0A20FEF741FC432070
:10379000FEF7A6FB002008BDAFF30080AFF300806A
:1037A00008B51420FDF7FCF82820FEF731FC422074
:1037B000FEF796FB002008BDAFF30080AFF300805A
:1037C00008B52820FDF7ECF840F60C00C2F2000026
:1037D000FDF796FB0A20FEF71BFCFDF7B9FB412025
:1037E000FEF77EFB002008BDAFF30080AFF3008042
:1037F00040F6D01310B5C2F200039C6946F2600394
:10380000A268C0F60003186843F6810382B0013253
:103810004FF49871C0F600030094FDF771F841F27F
:103820002C03C2F200031860FDF79AFE446B214698
:10383000FDF7B6FEE0B2FEF753FBFDF791FE446BD9
:103840002146FDF7ADFEE0B2FEF74AFBFDF788FE2C
:10385000446B2146FDF7A4FEE0B2FEF741FB46F2C1
:1038600070410120C0F6000102B0BDE81040FEF733
:103870005FBB00BFAFF30080AFF30080AFF3008009
:1038800010B541210446FDF74BFE42212046FDF7CD
:1038900047FE20464321FDF743FE002010BD00BF38
:1038A00040F6340040F61821C2F20000C2F20001D6
:1038B0000522FDF785BE00BFAFF30080AFF30080A7
:1038C000F0B5B84D0120696A83B0A1F105035942F2
:1038D00041EB0301FEF714FB00BB4226B14C31461D
:1038E00020464FF0FF32FDF7C3FED0F1010138BF93
:1038F000002102200136FEF703FB78B9462EEDD1F8
:10390000412120464FF0FF32FDF7FAFED0F10101D0
:1039100038BF00210320FEF7F3FA08B103B0F0BD71
:10392000012258212046FDF7A3FEA0F1FF3CDCF167
:10393000000141EB0C010420FEF7E2FA06460028E4
:10394000ECD1202383F3118858212046FDF7A0FEF7
:103950003346014683F31188A1F1FF3E0520DEF1D5
:10396000000141EB0E01FEF7CBFA0028D6D101226F
:1039700058212046FDF7C4FEA0F1FF32514241EB31
:1039800002010620FEF7BCFA06460028C6D1202315
:1039900083F3118858212046FDF7C2FE33460146C5
:1039A00083F31188A1F1FF330720594241EB030152
:1039B000FEF7A6FA06460028B0D1202383F311882B
:1039C000616A0820D1F1010138BF0021FEF798FAA1
:1039D000074618B1334683F311889FE7034683F304
:1039E0001188202383F31188A1690920A1F1050C16
:1039F000DCF1000141EB0C01FEF782FA034618B13D
:103A00003B4683F3118889E783F31188202383F3EE
:103A10001188E168A3680A20C3EB010EDEF1000102
:103A200041EB0E01FEF76CFA002383F311880028A6
:103A30007FF474AF05265B4C01A94FF0FF3220469E
:103A4000FDF7A6FED0F1010138BF00210B20FEF7E3
:103A500057FA00287FF462AF9DF80400FEF740FAA1
:103A6000013EE8D10C205049FEF762FA00287FF4AD
:103A700055AF472120464FF0FF32FDF7F9FDD0F159
:103A8000010138BF00210D20FEF73AFA00287FF42B
:103A900045AF01A920464FF0FF32FDF779FED0F186
:103AA000010138BF00210E20FEF72AFA00287FF41A
:103AB00035AF2168A3680F20CA1A514241EB0201B9
:103AC000FEF71EFA00287FF429AF2168E368102072
:103AD000CB1A594241EB0301FEF712FA00287FF49A
:103AE0001DAF01A901222046FDF752FEA0F1FF3CC7
:103AF000DCF1000141EB0C011120FEF701FA002876
:103B00007FF40CAF202383F3118801A92046FDF731
:103B10004FFE3346014683F31188A1F1FF3E122088
:103B2000DEF1000141EB0E01FEF7EAF900287FF417
:103B3000F5AE202383F31188616A1320A1F10502F9
:103B4000514241EB0201FEF7DBF9002383F31188B8
:103B500000287FF4E3AE202383F31188A9691420A1
:103B6000D1F1010138BF0021FEF7CAF90D4C05461D
:103B700018B1002383F31188D0E6034683F311883C
:103B8000202383F31188E168A3681520CB1A5942DA
:103B900041EB0301FEF7B4F9034638B12B4683F33A
:103BA0001188BBE634080020F062000883F3118816
:103BB000202383F3118841212046FDF769FDD0F1D0
:103BC000010138BF00211620FEF79AF900287FF482
:103BD000A5AE42212046FDF75BFDD0F1010138BFC3
:103BE00000211720FEF78CF900287FF497AE4321BF
:103BF0002046FDF74DFDD0F1010138BF002118200E
:103C0000FEF77EF900287FF489AE44212046FDF7B7
:103C10003FFDD0F1010138BF00211920FEF770F9F6
:103C2000054600287FF47AAE45212046FDF730FD99
:103C30002B46014683F311881A20D1F1010138BFC8
:103C40000021FEF75DF900287FF468AEE168A36803
:103C50001B20C3EB010CDCF1000141EB0C01FEF772
:103C60004FF900287FF45AAE0525202383F31188ED
:103C7000A44C01A92046FDF79BFD0023014683F3D8
:103C80001188C3EB010E1C20DEF1000141EB0E0197
:103C9000FEF736F900287FF441AE9DF80400FEF7E8
:103CA0001FF9013DE1D11D209749FEF741F9002898
:103CB0007FF434AE202383F31188616A1E20A1F1C2
:103CC0000502514241EB0201FEF71AF92B4683F33C
:103CD000118800287FF422AE202383F31188A16984
:103CE0001F20D1F1010138BF0021FEF709F92B4651
:103CF00083F3118800287FF411AEE168A3682020C7
:103D0000CB1A594241EB0301FEF7FAF800287FF481
:103D100005AE202383F3118845212046FDF700FDE1
:103D2000D0F1010138BF00212120FEF7E9F8002879
:103D30007FF4F4AD44212046FDF7F2FCD0F10101FF
:103D400038BF00212220FEF7DBF800287FF4E6AD23
:103D500043212046FDF7E4FCD0F1010138BF0021EA
:103D60002320FEF7CDF800287FF4D8AD422120466D
:103D7000FDF7D6FCD0F1010138BF00212420FEF769
:103D8000BFF800287FF4CAAD5E4C41212046FDF704
:103D9000C7FC0023014683F31188C3EB010C2520E7
:103DA000DCF1000141EB0C01FEF7AAF800287FF4DA
:103DB000B5ADE168A3682620C3EB010EDEF100017A
:103DC00041EB0E01FEF79CF800287FF4A7AD052417
:103DD000202383F311884B4D01A92846FDF7E8FC09
:103DE0000023014683F31188CA1A2720514241EB70
:103DF0000201FEF785F800287FF490AD9DF80400DD
:103E0000FEF76EF8013CE3D128203F49FEF790F819
:103E100000287FF483AD202383F31188696A292069
:103E2000A1F10503594241EB0301FEF769F823466E
:103E300083F3118800287FF471AD202383F3118868
:103E4000A9692A20D1F1010138BF0021FEF758F8F5
:103E5000234683F3118800287FF460ADE968AB68DE
:103E60002B20C3EB010CDCF1000141EB0C01FEF750
:103E700047F800287FF452AD2846FDF7B9FB202310
:103E800083F31188696A2C20A1F1050EDEF100018F
:103E900041EB0E01FEF734F8234683F31188002826
:103EA0007FF43CAD202383F31188A9692D20D1F143
:103EB000010138BF0021FEF723F8234683F3118860
:103EC00000287FF42BAD202383F311882968AB6889
:103ED0002E20CA1A514241EB0201FEF711F8234687
:103EE00083F3118800287FF419AD202383F3118810
:103EF0002968EB682F20CB1A594241EB0301FDF7EB
:103F0000FFFF36E634080020F0620008AFF30080BF
:103F10004FF0FF30FDF794B9AFF30080AFF30080AE
:103F20004FF0FF30FDF78CB9AFF30080AFF30080A6
:103F30004FF0FF30FDF784B9AFF30080AFF300809E
:103F400040F65C0008B50021C2F20000FDF7E0F980
:103F50003220FCF725FD40F66000C2F2000000218F
:103F6000FDF7D6F9002008BDAFF30080AFF3008065
:103F700010B504463220FCF713FD20460121FDF761
:103F80009FF9002010BD00BFAFF30080AFF30080A9
:103F900010B51D4C88B00122204669462460FDF70B
:103FA0001FF9204604A90222FDF71AF92168012011
:103FB000091B18BF0121FDF7A3FF08B108B010BD10
:103FC00020466946FDF724F921680220091B18BF25
:103FD0000121FDF795FF0028F0D1204604A9FDF747
:103FE00017F9216803200B1B594241EB0301FDF730
:103FF00087FF0028E2D107210448FDF799F9042042
:104000000349FDF795FFD9E75C080020D06600085A
:1040100070640008AFF30080AFF30080AFF300805E
:104020004320FDF75DBF00BFAFF30080AFF300801A
:104030004220FDF755BF00BFAFF30080AFF3008013
:104040004120FDF74DBF00BFAFF30080AFF300800C
:10405000002108B54FF0FF30FDF7E2F9D0F1010182
:1040600038BF00210120FDF74BFF00B108BD01461C
:104070004FF0FF30FDF7FCF9D0F1010138BF00210E
:104080000220FDF73DFF0028F0D101464FF0FF3040
:10409000FDF716FAD0F1010138BF00210320FDF72A
:1040A0002FFF0028E2D10A214FF0FF30FDF7B8F9C9
:1040B000D0F1010138BF00210420FDF721FF0028C5
:1040C000D4D10A214FF0FF30FDF7D2F9D0F1010130
:1040D00038BF00210520FDF713FF0028C6D10A21B3
:1040E0004FF0FF30FDF7ECF9D0F1010138BF0021AE
:1040F0000620BDE80840FDF703BF00BFAFF3008016
:104100002DE9F04305208BB0FDF7B2F84FF0FF30FA
:10411000FDF726F9A0F1010EDEF1000141EB0E01E1
:104120000120FDF7EDFE10B10BB0BDE8F0834FF0BC
:10413000FF30FDF715F9A0F10400414241EB000109
:104140000220FDF7DDFE0028EED14FF0FF30FDF735
:1041500077F8D0F1010138BF00210320FDF7D0FE30
:104160000028E1D1784FFDF783FFBD69774BAA683E
:10417000D3F80080764E4FF49871013A754B404663
:10418000F4680095FCF7BCFB734D28604FF0FF30DE
:10419000FDF7E6F804F13201814604F1370204200C
:1041A000FDF7F6FE0028BFD1A9F10102052051421A
:1041B00041EB0201FDF7A4FE0028B5D14FF0FF301E
:1041C000FDF73EF8D0F1010138BF00210620FDF7D0
:1041D00097FE0028A8D1FDF703FF0520FDF748F85A
:1041E0004FF0FF30FDF7DCF8A0F10503594241EB39
:1041F00003010720FDF784FE002895D14FF0FF3022
:10420000FDF71EF8D0F1010138BF00210820FDF7AD
:1042100077FE002888D1FDF72BFFD7F818E04FF480
:104220009871DEF808204B4B013A4046F468CDF80F
:1042300000E0FCF765FB28604FF0FF30FDF7B0F8B9
:1042400004F13201814604F137020920FDF7A0FE96
:1042500000287FF469AFA9F1010C0A20DCF100010C
:1042600041EB0C01FDF74CFE00287FF45DAF4FF0F1
:10427000FF30FCF7E5FFD0F1010138BF00210B2032
:10428000FDF73EFE00287FF44FAF344CDFF8D890A6
:10429000FDF7A6FE204602A901222460C9F800907D
:1042A000FCF79EFF06A904224846FCF799FFFDF79C
:1042B000DFFEBB692A4F9A684FF49871013A294B87
:1042C0004046F6680097FCF71BFB28600520FDF7C9
:1042D00087F80C2006F1320106F13702FDF758FE8F
:1042E00000287FF421AF4FF0FF30FCF7A9FFD0F199
:1042F000010138BF00210D20FDF702FE00287FF4E8
:1043000013AFFDF76DFE204602A9FCF781FF48467A
:1043100006A9FCF77DFF21680E20C4EB010EDEF13B
:10432000000141EB0E01FDF7EBFD00287FF4FCAE30
:10433000D9F800100F20C9EB0102514241EB0201F4
:10434000FDF7DEFDF0E600BFD00900206060000848
:10435000C0090020713F00082C1000205C080020DC
:10436000E4620008413F000860080020AFF30080CD
:1043700070B582B0FDF704FC01A90020FDF7C8FC70
:1043800010210020FDF72CFC011C18BF0121044660
:104390000120FDF7B5FD054608B102B070BD20460D
:1043A000FDF766FC6FF0FF012846FDF719FCD0F120
:1043B000010138BF00210220FDF7A2FD0028ECD149
:1043C00001A98148FDF7A4FC10217F48FDF708FCF6
:1043D000102105467C48FDF703FC102104467A486D
:1043E000FDF7FEFB06462846FDF742FC2046FDF79A
:1043F0003FFC3046FDF73CFC69467348FDF788FCFE
:10440000A0F1010EDEF1000141EB0E010320FDF7EA
:1044100077FD0028C1D110216B48FDF7E1FB102189
:1044200004466948FDF7DCFB102105466648FDF7A8
:10443000D7FBFDF71DFC2846FDF71AFC2046FDF7CB
:1044400017FC69466048FDF763FCA0F1010041429A
:1044500041EB00010420FDF753FD00289DD11121FF
:104460005948FDF7BDFB102104465748FDF7B8FB3E
:1044700005462046FDF7FCFB69465348FDF748FC1E
:10448000A0F10202514241EB02010520FDF738FD87
:10449000002882D110214C48FDF7A2FB6946044652
:1044A0004948FDF735FC012808BF014608D0694698
:1044B0004548FDF72DFCA0F10203594241EB0301F1
:1044C0000620FDF71DFD00287FF467AF2846FDF7A5
:1044D000CFFB2046FDF7CCFB69463B48FDF718FCB7
:1044E000A0F1010CDCF1000141EB0C010720FDF70C
:1044F00007FD00287FF451AF10213348FDF770FB12
:10450000102105463048FDF76BFB04462846FDF7B1
:10451000AFFB69462C48FDF7FBFBA0F1020EDEF174
:10452000000141EB0E010820FDF7EAFC00287FF4B2
:1045300034AF20212448FDF753FBFDF799FB2046BB
:10454000FDF796FB69462048FDF7E2FBA0F101006C
:10455000414241EB00010920FDF7D2FC00287FF425
:104560001CAF69461848FDF7D3FB00991648FDF7C4
:1045700037FB694604461448FDF7CAFBD0F1010138
:1045800038BF00210A20FDF7BBFC00287FF405AFEF
:104590002046FDF76DFB69460B48FDF7B9FBA0F11E
:1045A0000102514241EB02010B20FDF7A9FC00285A
:1045B0007FF4F3AE9DE80A00CB1A0C20594241EB80
:1045C0000301FDF79DFCE8E658100020AFF30080E2
:1045D00041F2580040F61821C2F20000C2F2000178
:1045E0004FF4BE62FDF7ECBAAFF30080AFF300808A
:1045F00000207047AFF30080AFF30080AFF300807E
:1046000040F66400C2F200004FF498710022FDF7FA
:104610009FBB00BFAFF30080AFF30080AFF300801B
:104620002D4B70B51C682D4805222146FDF798FBDF
:1046300005252A48FDF7ACFB011C18BF012101200C
:10464000FDF75EFC002835D1013DF2D12348FDF78E
:104650009FFBD0F1010138BF00210220FDF750FC83
:1046600040BB1D4D214605F110061C48FDF7A8FB77
:10467000B54207D055F8044F18482146FDF7A0FB76
:10468000B542F7D105241548FDF782FB011C18BF80
:1046900001210320FDF734FC60B9013CF3D10F4840
:1046A000FDF776FBD0F1010138BF00210420FDF7B2
:1046B00027FC00B170BD1021094A0848FDF748FBEE
:1046C0000648FDF765FBD0F1010138BF0021052048
:1046D000BDE87040FDF714BC60600008640800206D
:1046E000F1450008AFF30080AFF30080AFF3008026
:1046F00038B50546FCF764FA002403461846AB4279
:1047000008BF44F00104FCF76BFA03460028F5D11A
:10471000204638BDAFF30080AFF30080AFF30080D8
:104720004B4B10B59B694B4C9A6882B04FF4987113
:10473000013A4948494B0094FCF7FAF9817F044655
:104740000120C0EB010CDCF1000141EB0C01FDF795
:10475000D7FB08B102B010BD2046FCF7B1F9A17F2C
:104760000220C0EB010EDEF1000141EB0E01FDF76E
:10477000C7FB0028EED12046FCF7B2F9A17F032049
:10478000A1F10102514241EB0201FDF7B9FB002802
:10479000E0D12046FFF7ACFF01460420FDF7B0FB57
:1047A0000028D7D12046FFF7A3FF01460520FDF7DB
:1047B000A7FB0028CED12046FCF792F9A17F062066
:1047C000D1F1010138BF0021FDF79AFB0028C1D1CA
:1047D000217F0720D1F1010138BF0021FDF790FBB7
:1047E0000028B7D12046FFF783FF01460820FDF7D8
:1047F00087FB0028AED12046FFF77AFF014609204B
:10480000FDF77EFB0028A5D13220FCF7C9F8217FF7
:104810000A20A1F10E03594241EB0301FDF770FBA1
:10482000002897D12046FFF763FF01460B20FDF7D4
:1048300067FB00288ED12046FFF75AFFD0F1010117
:1048400038BF00210C2002B0BDE81040FDF758BB76
:10485000D0090020E46200088810002061480008A8
:1048600008B50078FDF73CFB002008BDAFF30080E1
:1048700041F2880040F61821C2F20000C2F20001A5
:104880004FF4BE62FDF79CB9AFF30080AFF3008038
:1048900041F2880040F61821C2F20000C2F2000185
:1048A0004FF4BE62FDF78CB9AFF30080AFF3008028
:1048B000324B70B59B69324C9D6804F1100654F878
:1048C000041B3048FDF77CFAB442F8D1691E2E4A29
:1048D0002E4B2C48FCF74CF92D4CA91E20602A4A7F
:1048E0002C4B2848FCF744F9E91E6060264A2A4B05
:1048F0002448FCF73DF9291FA060234A274B214893
:10490000FCF736F9691FE0601F4A1E48244BFCF78C
:104910002FF92168206149B1616839B1A16829B1D5
:10492000E16819B1D0F1010138BF00210120FDF784
:10493000E7FA00B170BDFDF753FB02201949FDF7FE
:10494000F7FA0028F6D104240E48FDF721FA011CDD
:1049500018BF01210320FDF7D3FA0028EAD1013C5A
:10496000F2D10848FDF714FAD0F1010138BF002157
:104970000420BDE87040FDF7C3BA00BFD009002095
:10498000606000087810002061480008E4620008B8
:104990002C100020E8620008EC620008E0620008C9
:1049A000F4620008B0670008AFF30080AFF3008046
:1049B00041F27800C2F200004FF498710022FDF736
:1049C000C7B900BFAFF30080AFF30080AFF3008042
:1049D00070B5354B84B09B6903A99D68334C34484E
:1049E000FDF796F96A1E4FF49871324B30480094E7
:1049F000FCF79EF8304C314EAA1E2E4B20604FF42F
:104A000098712B480096FCF793F802A9606028483B
:104A1000FDF77EF902992648FDF7E2F8EA1E284DD7
:104A20004FF498710646234B21480095FCF780F817
:104A3000A0603046FDF71CF9216829B1616819B101
:104A4000A168002926D000210120FDF759FA08B1FC
:104A500004B070BDFDF7C4FA02201A49FDF768FAE8
:104A60000028F5D102A91248FDF752F9A0F1010280
:104A7000514241EB02010320FDF742FA0028E7D141
:104A80000299039B0420CB1A594241EB0301FDF725
:104A900037FADDE7E368002BD6D12169D1F10101B6
:104AA00038BF0021D0E700BFD0090020E462000831
:104AB00088100020614800082C100020E8620008DF
:104AC000EC620008B8670008AFF30080AFF3008025
:104AD000704700BFAFF30080AFF30080AFF30080FA
:104AE00040F6700008B50021C822C2F20000FCF7B1
:104AF00077FF002008BD00BFAFF30080AFF3008058
:104B000010B546F26003C0F60003196840F6700065
:104B100044F6D12382B00024C2F200000422C0F681
:104B200000030094FCF734FF02B010BDAFF3008027
:104B300040F6940008B5C821C2F20000FCF7C0FEA0
:104B4000002008BDAFF30080AFF30080AFF300801A
:104B500010B546F26003C0F60003196840F69400F1
:104B600044F6D12382B00024C2F200000422C0F631
:104B700000030094FCF754FE02B010BDAFF30080B8
:104B80002DE9F041202382B083F31188944B5969B9
:104B90009A69914263D000210120FDF7B1F9002804
:104BA0003AD1034683F3118841258D4C29460135BE
:104BB00020464FF0FF32EDB2FCF712FF452DF4D145
:104BC000202383F31188A1680220D1F1010138BFAD
:104BD0000021FDF795F9F8B9034683F31188042401
:104BE000202383F311887E4D2846FCF721FF002304
:104BF00083F31188C0B2FDF773F9013CF0D1202393
:104C000083F311886A69AB699A4218BF21462BD099
:104C10000320FDF775F928B1002383F3118802B052
:104C2000BDE8F081034683F3118804206D49FDF748
:104C30007FF905460028F2D1202383F31188684CC0
:104C40002046FCF7F5FE033014BF002101210520AA
:104C5000FDF756F968B12B4683F31188DFE79968B1
:104C6000003118BF012197E7A968003118BF012161
:104C7000CEE7034683F311885B4E08227568204611
:104C80002946FCF7FDFEA0F10408D8F1000141EB34
:104C900008010620FDF734F980460028BFD1202303
:104CA00083F31188A1680720D1F1010138BF0021E9
:104CB000FDF726F9074618B1434683F31188AEE79E
:104CC000034683F31188494B30689B694FF4987110
:104CD0009A68474B01320097FBF712FE454A2023A2
:104CE000106083F311882169E268A368891AC91AE0
:104CF000A1F1040C0820DCF1000141EB0C01FDF7EF
:104D0000FFF8064618B13B4683F3118887E7034650
:104D100083F31188FDF764F9202383F3118820467B
:104D2000FCF746FE334683F31188202383F3118872
:104D30002169E268A368891AC3EB010E0920DEF13C
:104D4000000141EB0E01FDF7DBF8034618B13346D5
:104D500083F3118863E783F31188022229462046F2
:104D6000FCF78EFEA0F10200414241EB00010A2057
:104D7000FDF7C6F8034600287FF451AF022229460A
:104D80002046FCF77DFEA0F10202514241EB0201F8
:104D90000B20FDF7B5F800287FF441AF202383F303
:104DA0001188A1680C20D1F1010138BF0021FDF765
:104DB000A7F8002383F3118800287FF430AF194649
:104DC0000A220748FCF70CFEA0F1FF33594241EBE1
:104DD00003010D2002B0BDE8F041FDF791B800BF1E
:104DE00070080020B067000860600008D00900204B
:104DF000E14A00082C100020AFF30080AFF30080E0
:104E000070B5202382B083F311889D4B01209968EF
:104E1000D1F1010138BF0021FDF772F800BB034654
:104E200083F31188202383F311884125944C29466C
:104E300001352046EDB2FCF71BFD452DF6D10023D0
:104E400083F31188202383F311886269A369002109
:104E50009A4200F0BC800220FDF752F8044620B1CF
:104E6000002383F3118802B070BD034683F31188D9
:104E7000202383F3118882482146FCF7F9FC043093
:104E800014BF002101210320FDF73AF8002840F06B
:104E90009A80034683F311880424794D4FF0FF3143
:104EA0002846FCF70DFDC0B2FDF71AF8013CF4D11D
:104EB000202383F31188A9680420D1F1010138BFB0
:104EC0000021FDF71DF8234683F311880028CAD17D
:104ED00005206C49FDF72CF80028C4D1202383F36A
:104EE00011884125664C294601352046EDB2FCF774
:104EF000BFFC452DF6D1002383F31188624D0822B3
:104F000069682046FCF704FDA0F10406714241EBFC
:104F100006010620FCF7F4FF06460028A3D1202353
:104F200083F31188A1680720D1F1010138BF002166
:104F3000FCF7E6FF00284FD1034683F311882023B6
:104F400083F3118841264E4C314601362046F6B295
:104F5000FCF78EFC452EF6D1002383F311886D6893
:104F6000022229462046FCF7D3FCA0F10200414270
:104F700041EB00010820FCF7C3FF00287FF473AF6A
:104F80002946022203462046FCF7C2FCA0F1020299
:104F9000514241EB02010920FCF7B2FF054600280F
:104FA0007FF461AF202383F31188A1680A20D1F137
:104FB000010138BF0021FCF7A3FF064680B12B4654
:104FC00083F311884FE7234683F311884BE7A168E9
:104FD000003118BF01213EE7334683F3118842E7D1
:104FE000034683F31188202383F31188014620466A
:104FF000FCF73EFC2046FCF723FC334683F3118884
:10500000202383F31188A1680B20D1F1010138BF5F
:105010000021FCF775FF05460028DDD1034683F328
:105020001188194B4FF498711868184B9B699A684E
:10503000174B01320095FBF763FC164A20231060E2
:1050400083F31188A1680C20D1F1010138BF002140
:10505000FCF756FF03460028B1D183F31188FCF713
:10506000BFFF20460A21FCF72BFCA0F1FF33594279
:1050700041EB03010D2002B0BDE87040FCF740BFDA
:1050800094080020B067000860600008D009002084
:10509000314B00082C100020AFF30080AFF30080EC
:1050A000704700BFAFF30080AFF30080AFF3008024
:1050B000704700BFAFF30080AFF30080AFF3008014
:1050C00046F6501010B5C0F6000046F66014C0F663
:1050D0000004FCF7DDFE4FF4CA70FCF7A1FE204689
:1050E000FCF7E6FE46F66810C0F60000FCF7D0FEBE
:1050F0004820FCF795FE2046FCF7DAFE46F67810CD
:10510000C0F60000FCF7C4FE1420FCF789FE204620
:10511000FCF7CEFE46F68810C0F60000FCF7B8FE9D
:105120000C20FCF77DFE2046FCF7C2FE46F69810E8
:10513000C0F60000FCF7ACFE0420FCF771FE204630
:10514000FCF7B6FE46F6A810C0F60000FCF7A0FE7D
:105150001020FCF765FE2046FCF7AAFE46F6B810C4
:10516000C0F60000FCF794FE1020FCF759FE204624
:10517000FCF79EFE46F6C810C0F60000FCF788FE5D
:105180000820FCF74DFE2046FCF792FE46F6D810AC
:10519000C0F60000FCF77CFE2420FCF741FE204610
:1051A000FCF786FE46F6E810C0F60000FCF770FE3D
:1051B0002820FCF735FE2046BDE81040FCF778BEFD
:1051C00038B5FCF755FF4FF47A70FCF761FF124DCC
:1051D00000241248FBF794FEFBF7BAFE0F48FBF7DA
:1051E0008FFEFBF7B5FE0D48FBF78AFEFBF7B0FE1E
:1051F0000A48FBF785FEFBF7ABFE2B780134002B4A
:10520000E7D00748FCF744FEA000FCF709FE05487C
:10521000BDE83840FCF74CBE0D100020B81000204F
:10522000F8690008086A0008AFF30080AFF3008057
:1052300041F2B800C2F20000FBF7F2BDAFF300800C
:1052400010B5074CA3695B7F5A0706D40548FBF7E6
:105250002FFDA3695B7F5B07F8D5002010BD00BF61
:10526000D0090020F0100020AFF30080AFF30080E1
:1052700038B5FCF7FDFE4FF47A70FCF709FF144DCA
:1052800000241448FBF714FD1248FBF751FD1148A8
:10529000FBF70EFD0F48FBF74BFD0E48FBF708FD33
:1052A0000C48FBF745FD0B48FBF702FD0948FBF7EF
:1052B0003FFD2B780134002BE3D00748FCF7E8FDD5
:1052C000A000FCF7ADFD0548BDE83840FCF7F0BD97
:1052D0000D100020F0100020F8690008186A00087E
:1052E00041F2F000C2F200000121FBF791BC00BFC7
:1052F00041F2F000C2F200000021FBF789BC00BFC0
:1053000038B5FCF7B5FE4FF47A70FCF7C1FE154DC9
:105310000024202383F31188012100231248134A1B
:10532000FBF71EF9002342F21071104A1048FBF7F8
:1053300017F90D48FBF734F90D48FBF731F9002355
:1053400083F311882B780134002BE2D00948FCF755
:105350009FFD6000FCF764FD0748BDE83840FCF79E
:10536000A7BD00BF0D100020DC100020B1500008C8
:10537000C8100020F8690008286A0008AFF3008010
:1053800030B5002483B024491022234623480094DA
:10539000FCF746FAFCF76CFE4FF47A70FCF778FEE7
:1053A0001F4D202383F3118800211C48FCF760FA6D
:1053B00001211A48FCF75CFA02211848FCF758FA58
:1053C00003211648FCF754FA002383F311884FF0A9
:1053D000FF311248FCF774FA4FF0FF310F48FCF729
:1053E0006FFA4FF0FF310D48FCF76AFA0B484FF0A7
:1053F000FF31FCF765FA2B780134002BD1D0094836
:10540000FCF746FDA000FCF70BFD074803B0BDE824
:105410003040FCF74DBD00BFA8100020FC1000205C
:105420000D100020F8690008346A0008AFF300800E
:105430002DE9F041144B154A9B6982B09F68D2F860
:105440000080FCF715FE4FF47A70FCF721FE002473
:105450000F4E013725460F4B40464FF498713A46A0
:105460000095FBF74DFA33780134002BF3D00A484E
:10547000FCF70EFD2046FCF7D3FC084802B0BDE85F
:10548000F041FCF715BD00BFD009002060600008A6
:105490000D100020A1500008F8690008406A0008BB
:1054A0002DE9F04140F6D01784B004ACC2F20007F9
:1054B000002344F8043DFCF7DBFDBB6946F26006BF
:1054C0009A6845F29155C0F60005C0F60006013A0B
:1054D0002B4630684FF498710094FBF711FABB69C2
:1054E000D6F804E09A6841F22C08C2F20008C8F825
:1054F0000000013A2B464FF4987170460094FBF778
:10550000FFF9BB69D6F808E09A684FF49871C8F8BB
:105510000400013A2B4670460094FBF7F1F9BB6991
:10552000D6F80CE09A684FF49871C8F80800013A70
:1055300070462B460094FBF7E3F9BB6936699A681D
:105540004FF49871013A2B46C8F80C00304600948D
:10555000FBF7D6F9C8F810004FF47A70FBF720FA81
:10556000FCF72EFDFCF73CFD46F6F810C0F60000F7
:10557000FCF78EFC0398FCF753FC46F64C20C0F673
:105580000000FCF795FC04B0BDE8F081AFF30080AB
:1055900038B5094C0546FBF72BFAFBF729FAFBF760
:1055A00027FAFBF725FA2A68A36904322A605B7F91
:1055B0005907F0D5002038BDD0090020AFF3008096
:1055C000F0B5374F374EBB6983B09A680024306816
:1055D0004FF498710532344B0094FBF791F9BB6995
:1055E000324D9A68D6F804E028604FF4987104327E
:1055F0002D4B70460094FBF783F9BB69D6F808E0A1
:105600009A684FF4987168600332274B7046009493
:10561000FBF776F9BB69D6F80CE09A684FF49871FD
:10562000A86002327046204B0094FBF769F9BB6911
:1056300036699A684FF49871E86001321A4B304627
:105640000094FBF75DF92861FCF712FD4FF47A70C6
:10565000FCF71EFD164D17480021FBF7F9FA2B78D1
:105660000134002BF7D0FCF7ABFC00211148FBF70D
:10567000EFFAFCF7B5FC1048FCF70AFC2046FCF7F3
:10568000CFFB04EB44040D48FCF702FC6000FCF780
:10569000C7FB0B4803B0BDE8F040FCF709BC00BFF6
:1056A000D009002060600008415200082C10002042
:1056B0000D100020F0100020F8690008586A00085A
:1056C0004C6A0008AFF30080AFF30080AFF30080B6
:1056D0002DE9F041154B164A9B6982B09F68D2F8BC
:1056E0000080FCF7C5FC4FF47A70FCF7D1FC002475
:1056F000104E013F2546104B4FF498713A464046F4
:105700000095FBF7FDF8FBF7BBF933780134002B6C
:10571000F1D00A48FCF7BCFB2046FCF781FB0848A7
:1057200002B0BDE8F041FCF7C3BB00BFD0090020C8
:10573000606000080D100020A1500008F869000802
:10574000406A0008AFF30080AFF30080AFF3008041
:10575000254B70B59B6925489A6882B04FF49871C3
:105760000132234B002400680094FBF7C9F8214B59
:1057700005461860FCF77CFC4FF47A701E4EFCF76F
:1057800087FC202383F3118800212846FAF7C8FFFD
:1057900028460021FAF7C4FF28460021FAF7C0FF87
:1057A00028460021FAF7BCFF002383F311883378E1
:1057B0000434002BE5D0202383F311884FF0FF3110
:1057C0002846FAF7ADFF002383F31188FCF708FCA5
:1057D0000A48FCF75DFB6000FCF722FB084802B0BA
:1057E000BDE87040FCF764BBD00900206060000891
:1057F000715A00082C1000200D100020F8690008D4
:105800004C6A0008AFF30080AFF30080AFF3008074
:1058100070B50546FCF72CFC4FF47A70FCF738FCA9
:10582000074E002428460121FBF77AFE3378013425
:10583000002BF7D028460021FBF772FE204670BDF2
:105840000D100020AFF30080AFF30080AFF30080B5
:105850002DE9F04140F6D016C2F20006B36946F2D7
:1058600060059A68C0F6000545F6512382B04FF0F6
:105870000008013228684FF49871C0F60003CDF893
:105880000080FBF73DF8B369D5F804E09A6841F26F
:105890002C0445F2A107C2F20004C0F60007206004
:1058A000023A3B464FF498717046CDF80080FBF702
:1058B00027F8B369D5F808E09A684FF498716060EA
:1058C000033A3B467046CDF80080FBF719F8B36900
:1058D000D5F80CE09A684FF49871A060043A7046CD
:1058E0003B46CDF80080FBF70BF8B3692D699A6849
:1058F0004FF49871053A3B46E0602846CDF80080A9
:10590000FAF7FEFF20612068FFF782FF0446FCF7EC
:1059100067FB46F6F810C0F60000FCF7B9FA20461F
:10592000FCF77EFA46F66C20C0F60000FCF7B0FAF1
:105930006000FCF775FA46F64C20C0F6000002B095
:10594000BDE8F041FCF7B4BAAFF30080AFF30080DC
:1059500040F6D01310B5C2F200039A6946F2600314
:105960009268C0F60003186845F6512382B04FF4E0
:10597000987101320024C0F600030094FAF7C0FFCA
:1059800041F22C03C2F200031860FFF741FF044606
:10599000FCF726FB46F6F810C0F60000FCF778FA94
:1059A0002046FCF73DFA46F66C20C0F60000FCF7F6
:1059B0006FFA6000FCF734FA46F64C20C0F600009F
:1059C00002B0BDE81040FCF773BA00BFAFF300802F
:1059D00040F6D01310B5C2F200039A6946F2600394
:1059E0009268C0F60003186845F6512382B04FF460
:1059F0009871013A0024C0F600030094FAF780FF82
:105A000041F22C03C2F200031860FFF701FF0446C5
:105A1000FCF7E6FA46F6F810C0F60000FCF738FA94
:105A20002046FCF7FDF946F66C20C0F60000FCF7B6
:105A30002FFA6000FCF7F4F946F64C20C0F600009F
:105A400002B0BDE81040FCF733BA00BFAFF30080EE
:105A500010B5FBF785FD446B2146FBF7A1FD002C3B
:105A6000F7D1204610BD00BFAFF30080AFF3008038
:105A7000084A10B52023946983F311880220FAF7AD
:105A800017FE636A002BF9D0002383F311881846B0
:105A900010BD00BFD0090020AFF30080AFF300803D
:105AA00008B500F0ADF846F6C040C0F6000000F0C2
:105AB00057F900F045F8BDE8084000F089BA00BF8A
:105AC0000C30FBF725BF00BFAFF30080AFF30080C1
:105AD0000C304FF0FF33FBF71BBF00BFAFF300806C
